:020000040800F2
:1000000000000220116700086167000861670008AE
:100010006167000861670008616700080000000070
:100020000000000000000000000000006167000800
:100030006167000800000000616700086167000850
:100040006167000861670008616700086167000870
:100050006167000861670008616700086167000860
:100060006167000861670008616700086167000850
:100070006167000861670008616700086167000840
:1000800061670008E14E00086167000861670008C9
:100090006167000861670008616700086167000820
:1000A0006167000861670008616700086167000810
:1000B0006167000861670008616700086167000800
:1000C00061670008616700086167000861670008F0
:1000D0006167000861670008014F00086167000858
:1000E00061670008616700086167000861670008D0
:1000F00061670008616700086167000861670008C0
:1001000061670008616700086167000861670008AF
:10011000616700086167000861670008616700089F
:10012000616700086167000861670008616700088F
:10013000616700080000000000000000616700081F
:10014000616700086167000861670008616700086F
:10015000616700086167000861670008616700085F
:10016000616700086167000861670008616700084F
:10017000616700086167000861670008000000000F
:10018000000000006167000800000000000000009F
:1001900061670008000000000000000061670008BF
:1001A000000000000000000000000000616700087F
:1001B00061670008616700086167000861670008FF
:0401C000616700086B
:100200000348044B834202D0034B03B118477047A5
:100210007000002070000020000000000548064922
:100220000B1AD90F01EBA301491002D0034B03B104
:100230001847704770000020700000200000000088
:1002400010B5064C237843B9FFF7DAFF044B13B11E
:100250000448AFF300800123237010BD700000201C
:10026000000000002875000808B5044B1BB10449C4
:100270000448AFF30080BDE80840CFE7000000006D
:10028000740000202875000808B5062000F084FBE3
:10029000012002F037FA00BF70B50D4E0D4D761BF0
:1002A000B61006D0002455F8043B01349847A64206
:1002B000F9D1094E094D761B07F036F9B61006D074
:1002C000002455F8043B01349847A642F9D170BD8B
:1002D0003C8000083C800008448000083C80000806
:1002E000024B0146186800F057BA00BF000000201A
:1002F000024B0146186800F0EDB900BF0000002075
:1003000001F0FF01102A2BDB10F0070F08D010F8C6
:10031000013B013A8B422DD010F0070F42B3F6D1CA
:10032000F0B441EA012141EA014122F007047FF0E3
:1003300000070023F0E80256083C85EA010586EA3A
:10034000010685FA47F5A3FA87F586FA47F6A5FA76
:1003500087F68EB9EED1F0BC01F0FF0102F0070282
:1003600032B110F8013B013A83EA010313B1F8D12D
:100370000020704701387047002D06BF354603380E
:10038000073815F0010F07D1013015F4807F02BF47
:10039000013015F4C03F0130F0BC0138704700BF98
:1003A000032A70B515D940EA010C1CF0030F04466E
:1003B0000B4621D1194620460E680568B54204F166
:1003C000040403F1040317D1043A032A2046194612
:1003D000F0D8541EA2B100F1FF3C013901E0C3186E
:1003E0000CD01CF801EF11F8012F9645A4EB0C037B
:1003F000F5D0AEEB020070BD541EECE7184670BDA0
:10040000104670BD844641EA000313F003036DD12A
:10041000403A41D351F8043B40F8043B51F8043BC7
:1004200040F8043B51F8043B40F8043B51F8043BCE
:1004300040F8043B51F8043B40F8043B51F8043BBE
:1004400040F8043B51F8043B40F8043B51F8043BAE
:1004500040F8043B51F8043B40F8043B51F8043B9E
:1004600040F8043B51F8043B40F8043B51F8043B8E
:1004700040F8043B51F8043B40F8043B51F8043B7E
:1004800040F8043B51F8043B40F8043B51F8043B6E
:1004900040F8043B403ABDD2303211D351F8043B0E
:1004A00040F8043B51F8043B40F8043B51F8043B4E
:1004B00040F8043B51F8043B40F8043B103AEDD2BD
:1004C0000C3205D351F8043B40F8043B043AF9D20E
:1004D000043208D0D2071CBF11F8013B00F8013BE1
:1004E00001D30B8803806046704700BF082A13D3EE
:1004F0008B078DD010F003038AD0C3F10403D21A06
:10050000DB071CBF11F8013B00F8013B80D331F839
:10051000023B20F8023B7BE7043AD9D3013A11F8B9
:10052000013B00F8013BF9D20B7803704B78437024
:100530008B7883706046704788420DD98B18834250
:100540000AD900EB020CBAB1624613F801CD02F8E9
:1005500001CD9942F9D170470F2A0ED8034602F116
:10056000FF3C4AB10CF1010C013B8C4411F8012B0A
:1005700003F8012F6145F9D1704740EA01039B0759
:1005800050D1A2F1100370B501F1200C23F00F053A
:1005900001F1100E00F11004AC441B095EF8105C70
:1005A00044F8105C5EF80C5C44F80C5C5EF8085C87
:1005B00044F8085C5EF8045C44F8045C0EF1100E2C
:1005C000E64504F11004E9D1013312F00C0F01EB00
:1005D000031102F00F0400EB031327D0043C24F0B6
:1005E00003064FEA940C1E441C1F8E465EF8045B03
:1005F00044F8045FB442F9D10CF1010402F00302A3
:1006000003EB840301EB840102F1FF3C4AB10CF1DE
:10061000010C013B8C4411F8012B03F8012F6145BB
:10062000F9D170BD02F1FF3C03469BE72246EBE7A0
:10063000830730B548D0541E002A3FD0CAB20346C3
:1006400001E0013C3AD303F8012B9D07F9D1032CBB
:100650002DD9CDB245EA05250F2C45EA054536D9F9
:10066000A4F1100222F00F0C03F1200EE6444FEA31
:10067000121C03F1100242E9045542E902551032FE
:100680007245F8D10CF1010214F00C0F03EB0212C9
:1006900004F00F0C13D0ACF1040323F00303043374
:1006A000134442F8045B9342FBD10CF003042CB1D9
:1006B000CAB21C4403F8012B9C42FBD130BD6446F6
:1006C0001346002CF4D1F9E703461446BFE71A4657
:1006D000A446E0E7002958D030B551F8043C83B077
:1006E000002BA1F10404B8BFE418019000F066FCEF
:1006F000284A0198136833B1A3420DD9216804EB4D
:10070000010C63452FD06360146003B0BDE8304036
:1007100000F056BCA34210D81A465B68002BF9D1F2
:10072000116802EB010C644519D02FD3636054604B
:1007300003B0BDE8304000F043BC116802EB010C8F
:10074000A44516D022D8216804EB010C6345EDD1F5
:100750001D685B682944C4E900135460D5E7236829
:1007600019441160D1E71D685B682944C4E900138E
:10077000CAE7246821445418A3421160C5D1D3E9C3
:1007800000432144C2E90013BFE770470C23036014
:10079000BBE700BF8C000020F8B5CD1C25F0030599
:1007A00008350C2D38BF0C25002D064623DBA94249
:1007B00021D8254F00F002FC3A6822B3144603E02A
:1007C00063682246FBB11C4623685B1BF8D40B2BE5
:1007D00015D8636894420CBF3B605360304600F00C
:1007E000EFFB04F10B00231D20F00700C21A01D01B
:1007F0001B1AA350F8BD0C2333600020F8BD236002
:100800001C442560EAE77968C9B12946304600F002
:100810001DF8431C0CD0C41C24F00304A04205D0D6
:10082000211A304600F012F8013001D02560D5E7DA
:100830000C233046336000F0C3FB0020F8BD304687
:1008400000F004F87860E0E78C00002038B5074D30
:100850000022044608462A6001F046FF431C00D0EF
:1008600038BD2B68002BFBD0236038BD94000020DE
:1008700038B5446C0CB1002038BD80210546FFF727
:100880008BFF0246686430B1031F7C3243F8044F8B
:100890009342FBD1EFE74FF0FF3038BD1F29F8B589
:1008A000054608D8466C0C4617464EB156F824004B
:1008B00046F82470F8BD162303604FF0FF30F8BDF2
:1008C0008021FFF769FF0646686440B1031F00F10D
:1008D0007C05002143F8041F9D42FBD1E6E74FF061
:1008E000FF30F8BD1F2938B5054620D8426C0C46AC
:1008F0006AB152F8213053B1012B16D0591C10D0D7
:100900000025204642F824509847284638BD2846FE
:1009100000F0F8F8224601462846BDE8384000F0CD
:10092000DBB816230360012038BD002038BD162334
:1009300003604FF0FF3038BD1F292AD8426C38B50C
:100940000C46054682B152F8243002EB84024BB1CA
:10095000591C19D0012B15D0002520461560984749
:10096000284638BD012038BD8021FFF715FF02461B
:10097000686458B1031F00217C3043F8041F98427B
:10098000FBD1E0E7032038BD022038BD4FF0FF3037
:1009900038BD4FF0FF30704738B5144B1F281D6825
:1009A0001FD86A6C044662B152F820304BB1012B5B
:1009B00015D0591C0FD0002542F8205098472846E2
:1009C00038BD284600F09EF8224601462846BDE87C
:1009D000384000F081B816232B60012038BD00207C
:1009E00038BD16232B604FF0FF3038BD00000020CB
:1009F000124B1F2870B51E6808D80D46716C04464E
:100A000049B151F8240041F8245070BD16233360D9
:100A10004FF0FF3070BD80213046FFF7BDFE01462C
:100A2000706440B1031F00F17C0C002243F8042FD6
:100A30006345FBD1E5E74FF0FF3070BD00000020BB
:100A400038B50B4B1D686C6C0CB1002038BD802193
:100A50002846FFF7A1FE686438B1031F00F17C024D
:100A600043F8044F9342FBD1EFE74FF0FF3038BD1E
:100A70000000002038B5174B1F281D6826D86A6C67
:100A8000044682B152F8243002EB84024BB1591C67
:100A90001AD0012B16D0002520461560984728460D
:100AA00038BD012038BD80212846FFF775FE02467B
:100AB000686458B1031F00217C3043F8041F83424F
:100AC000FBD1DFE7032038BD022038BD4FF0FF30F7
:100AD00038BD00BF0000002070B50C46084D03462D
:100AE0000026204611461C462E6001F0F5FD431CF1
:100AF00000D070BD2B68002BFBD0236070BD00BF01
:100B00009400002001F0E0BD0000000000000000A3
:100B100000000000000000000000000000000000D5
:100B2000A2EB0300704700BF02780B78012A28BFB0
:100B30009A42F5D16DE9044540EA0104CDE9026726
:100B40006FF0000C4FEA447212B380EA010414F013
:100B5000070F6AD100F0070420F0070004F0030536
:100B600021F007014FEAC505F0E8042314F0040F53
:100B7000F1E804670CFA05F462EA040266EA040686
:100B80000AD063EA0403624667EA0407664603E0A4
:100B9000F0E80423F1E8046782FA4CF582EA0604DF
:100BA000A4FA8CF46CBB83FA4CF583EA0705A5FA2A
:100BB0008CF595B950E9022351E9026782FA4CF5A8
:100BC00082EA0604A4FA8CF483FA4CF583EA07055A
:100BD000A5FA8CF52543DBD09CB92DBAB5FA85F47E
:100BE00024F0070427FA04F1DDE9026723FA04F38D
:100BF00003F0FF0001F0FF01FDE80445A0EB010058
:100C0000704724BAB4FA84F424F0070426FA04F1F5
:100C1000DDE9026722FA04F202F0FF0001F0FF01B1
:100C2000FDE80445A0EB0100704714F0030F3CD130
:100C300010F0030428D150F8082B51F8083B82FA31
:100C40004CF582EA0305A5FA8CF55DB950F8042C41
:100C500051F8043C82FA4CF582EA0305A5FA8CF5BA
:100C6000002DE8D02DBAB5FA85F424F0070423FA54
:100C700004F122FA04F202F0FF0001F0FF01FDE8A6
:100C80000445A0EB010070474FEAC40420F00300C4
:100C900050F8082B21F0030151F8083B0CFA04F43A
:100CA00062EA040263EA0403C9E710F003041AD0FD
:100CB000A1EB040120F00300E40750F8042B06D058
:100CC0000FD28B785FFAA2F4E41A06D12BB1CB785D
:100CD0005FFAB2F4E41A00D11BB920465DF8104B5C
:100CE000704701F1040150F8042BCC0721F00301F7
:100CF00051F8043B48D824D222F07F4482FA4CF5C4
:100D000094EA1325A5FA8CF50AD165B951F8043B8C
:100D100084EA0204B4EB036F0ED150F8042BEBE726
:100D20004FEA132355E035F07F454DD10878FDE8B3
:100D30000445C0F1000070474FEA126203F0FF0360
:100D400047E002EA1C4482FA4CF594EA1345A5FAFE
:100D50008CF50AD165B951F8043B84EA0204B4EB7E
:100D6000034F0CD150F8042BEBE74FEA134330E06C
:100D700015EA1C4528D10B884FEA124229E04FEAB8
:100D8000124203EA1C4324E002F0FF0482FA4CF50D
:100D900094EA1365A5FA8CF50AD165B951F8043BBC
:100DA00084EA0204B4EB032F09D150F8042BEBE7DB
:100DB0004FEA13630DE015F0FF0F05D10B684FEA02
:100DC000122223F07F4304E04FF00000FDE80445C9
:100DD000704712BA1BBA82FA4CF482EA0304A4FAEE
:100DE0008CF5B5FA85F402FA04F203FA04F34FEA3B
:100DF0001260FDE80445A0EB13607047000000009E
:100E000090F800F06DE9024520F007016FF0000C4A
:100E100010F0070491F820F040F049804FF00004F2
:100E20006FF00700D1E9002391F840F000F10800CD
:100E300082FA4CF2A4FA8CF283FA4CF3A2FA8CF305
:100E40004BBBD1E9022382FA4CF200F10800A4FA6C
:100E50008CF283FA4CF3A2FA8CF3E3B9D1E90423C0
:100E600082FA4CF200F10800A4FA8CF283FA4CF3F7
:100E7000A2FA8CF37BB9D1E9062301F1200182FAB1
:100E80004CF200F10800A4FA8CF283FA4CF3A2FAB7
:100E90008CF3002BC6D0002A04BF04301A4612BAC5
:100EA000B2FA82F2FDE8024500EBD2007047D1E9C8
:100EB000002304F00305C4F100004FEAC50514F057
:100EC000040F91F840F00CFA05F562EA05021CBF28
:100ED00063EA050362464FF00004A9E710B51A4C17
:100EE000002924689AB02ADB009004904FF4027025
:100EF000ADF80C0013D001394FF6FF700291059147
:100F0000ADF80E006946204600F03AF9421C01DABD
:100F10008B232360009B00221A701AB010BD4FF67D
:100F2000FF7002910591ADF80E006946204600F071
:100F300027F9431C01DA8B2323601AB010BD8B23E1
:100F400023604FF0FF30F8E70000002030B5141E9A
:100F50009BB005462CDB4FF4027200910491ADF872
:100F60000C2014D04FF6FF711A46013CADF80E105C
:100F70001E9B02946946059400F002F9421C01DAB6
:100F80008B232B60009B00221A701BB030BD4FF6E4
:100F9000FF711A46ADF80E101E9B02946946059427
:100FA00000F0EEF8431C01DA8B232B601BB030BD40
:100FB0008B2303604FF0FF30F8E700BF704700BF9E
:100FC000704700BF2DE9F0478F689F420C461D46D1
:100FD000164638D88246888910F4906F0ED108687A
:100FE0003D462A463146FFF7A7FAA2682368D21B7E
:100FF0002B44A26023600020BDE8F0874B6909699B
:1010000003EB4308236808EBD878A3EB01096B1CBA
:101010004FEA68084B444345424684BF98464246DF
:10102000430513D511465046FFF7B6FB074608B3F4
:1010300021694A46FFF7E6F9A38923F4906343F058
:101040008003A38107E008681F46CAE7504600F006
:101050009FFB074650B107EB0900A8EB0903276186
:10106000C4F81480A36020602F46BAE72169504677
:10107000FFF730FB0C23CAF80030A38943F040038C
:101080004FF0FF30A381B7E72DE9F04F936883B0AD
:101090009146002B6ED017688D6880460C46086814
:1010A000083744E0A38913F4906F2ED0D4E90415D7
:1010B000A0EB010A05EB450505EBD5750AEB06002B
:1010C0006D100130A8422A4684BF05462A465B05BA
:1010D00037D511464046FFF75FFB00283BD052460C
:1010E00021690190FFF78EF9A289019B22F4906299
:1010F00042F08002A281A5EB0A0203EB0A006561BF
:10110000A260236120603546B24659465246FFF739
:1011100013FAA068D9F808102368451B8E1B03EB4F
:101120000A00A5602060C9F808601EB3083757E9B7
:1011300002B6002EFAD0B542AA46B3D93546B24619
:10114000E3E7404600F024FB03460028D3D12169A1
:101150004046FFF7BFFA0C23C8F80030A3890022ED
:1011600043F040034FF0FF30A381C9E9012203B0EF
:10117000BDE8F08F0020C9F8040003B0BDE8F08F8F
:101180002DE9F04F92468A8915069DB08846814622
:101190001C4603D50A69002A00F0EF80002209925C
:1011A0009AF800307E4D039420228DF829203022B9
:1011B0008DF82A200126002B72D0544603E014F843
:1011C000013F002B76D0252BF9D1B4EB0A0B74D15B
:1011D0002278002A64D000234FF0FF32CDE90523A6
:1011E000049307938DF853301A93013404E0049A62
:1011F00006FA03F313430493A246052214F8011BD5
:101200002846FFF77DF8431B0028F0D1049BD80641
:1012100044BF20228DF8532019079AF8001044BFCC
:101220002B228DF853202A2954D1039A11680432B5
:10123000002903927CDB07919AF801100AF1010A58
:101240002E2959D0574C03222046FFF759F840B1B8
:10125000049B001B402404FA00F0034304930AF1AA
:10126000010A1AF8011B50488DF828100622FFF7D2
:1012700047F8002862D04D4B002B52D003AA0092B1
:101280004B4B424604A94846AFF3008007467A1C00
:1012900006D0099B3B4409939AF80030002B8CD16F
:1012A000B8F80C305B0654BF09984FF0FF301DB002
:1012B000BDE8F08FB4EB0A0BF2D05B4652464146D4
:1012C0004846FFF77FFE0130EAD0099B22785B4455
:1012D00009937EE7A1F13002092AB1D8079B1AF8D9
:1012E000011F03EB830302EB4303A1F13002092A40
:1012F000F5D92E290793A5D19AF801102A2927D1CB
:10130000039B9AF802101A6805920433002A0AF126
:1013100002000393B8BF4FF0FF338246B8BF059376
:1013200090E7039B073323F0070308330393B0E7E9
:10133000494243F00203079104937DE703AA009218
:101340001B4B424604A9484600F0CAF807469EE7F0
:10135000A1F130020023092A05930AF1010A3FF6A0
:1013600071AF1AF8011F03EB830302EB4303A1F1F2
:101370003002092AF5D9059364E74021FFF70CFAFA
:10138000C8F80000C8F8100018B14022C8F81420AE
:1013900004E70C23C9F800304FF0FF3087E700BFA7
:1013A000307C0008387C00083C7C0008000000000D
:1013B000C50F00082DE9F84F92461F460A698B6851
:1013C000DDF828909A42B8BF1A46CAF8002091F872
:1013D00043300C46064613B10132CAF80020226899
:1013E00091065DD5DAF800300233CAF80030226881
:1013F00012F0060F11461ED1E168CB1A002BD8BFA0
:10140000114618DD04F1190B4FF0000805E0E568FE
:10141000DAF80030ED1A45450CDD01235A4639460D
:101420003046C847013008F10108F0D14FF0FF30D5
:10143000BDE8F88F216894F84330003B18BF0123C2
:101440008A060AD5E1185A1C302081F8430022444C
:1014500094F8451082F84310023304F143023946F0
:101460003046C8470130E1D0236803F00603042B5F
:101470001DD0A3682269934225DD4FF000089B1A16
:1014800098441A34002501E045451CDA0123224620
:1014900039463046C847013005F10105F4D1C5E7AA
:1014A00012F0060F12D0003B18BF0123D5E7DAF87F
:1014B0000030E1682269C91AA368934221EAE17801
:1014C000DDDC0029DDDC0020BDE8F88FE168DAF81A
:1014D0000030CB1A002BD8BF114693DCABE700BF1E
:1014E0002DE9F0470C4684B09046227E0C990746C1
:1014F000994604F14300002A33D0A2F15803DDB22B
:10150000202D67D8202B65D8DFE813F0DE006400BB
:1015100064006400640064006400640064006400AB
:101520006400A3006E0064006400640064006E0048
:10153000640064006400640021007F00C000640057
:101540006400AE0064007F0064006400E50023686E
:101550001A0640F104810B6862691D1D0D601B684D
:101560001A60002382462361CDF80090434603AA07
:1015700021463846FFF71EFF013020D0236952462E
:1015800041463846C847013019D02368E068039EB9
:101590009B0719D5831B002B16DD04F1190A0025C2
:1015A00004E0E068039E831BAB420DDD012352463D
:1015B00041463846C847013005F10105F1D14FF0E9
:1015C000FF3004B0BDE8F087B042B8BF304604B089
:1015D000BDE8F087012384F84220236104F1420A28
:1015E000002384F84330BFE723681A0602D45E065E
:1015F00000F1C1800D682A6804350D601546002A87
:101600006BDBDFF884C10A2610E023681D0640F179
:101610009C800B681D1D0D601D68DFF86CC16F2A72
:101620000CBF08260A26002384F843306268A260B3
:10163000002A7FDB236823F004032360002D5BD1A5
:10164000002A79D18246082E65D0A0EB0A002061DD
:101650008AE70B680122186804330B6004F1420A20
:1016600084F842002261BBE70B686268181D0860BD
:10167000D3F800A000215046FEF742FE002800F0FB
:101680008180A0EB0A0060602061A9E7236843F035
:10169000200323607822DFF8F4C084F845200A682C
:1016A000151D0D601D0643D4590641D51588DE076A
:1016B00044BF43F020032360002D44D1236823F06E
:1016C000200323601026AEE7582384F84530DFF866
:1016D000B8C02368E3E72368DCE76268A2602D21D5
:1016E000002AC5F1000584F8431002DB23F004034F
:1016F0002360DFF894C00A268246B5FBF6F306FBAA
:1017000013512A461CF801100AF8011DB2421D4669
:10171000F3D2082E99D12368D90796D56268236938
:101720009A4292DC30230AF8013C0AF1FF3A8CE736
:101730001568BCE7002DDFD19CF8003084F84230FA
:1017400004F1420A7FE710266DE713F0400F0B68A3
:1017500003F104050D600CBF1D681D885DE713F0E3
:10176000400F0B68626903F104050D601B6814BF2C
:101770001A801A60F5E60A68B2F9005004320A606D
:101780002A463CE760687FE7447C0008587C0008F4
:10179000F8B51446F9B1CAB106460D4600F020F876
:1017A000A04202D32F463846F8BD21463046FEF708
:1017B000F3FF07460028F6D022462946FEF722FE10
:1017C00030462946FEF786FF3846F8BD2746FEF725
:1017D00081FF3846F8BDBDE8F8401146FEF7DCBF92
:1017E00051F8040C0028A0F10400BCBF0B58C0182D
:1017F000704700BF03685A004CBF43F0004323F01A
:1018000000431844704700BF2DE9F84329B34F1E29
:10181000044615463E464FF0000808EB060101EB72
:10182000D171491004EBC1094846FFF7E3FF0346B5
:10183000C80008308F42204409D0AB4209D8FFF7D6
:10184000D9FF0138A8420AD201F10108E5E7AB420D
:1018500005D9884501D04E1EDFE74FF00009484604
:10186000BDE8F883012807D0022807D0044B0028E0
:101870000CBF184600207047024870470248704766
:101880003D1F0008411F0008451F000830B5234BCD
:1018900083B004468D1E3BB301A92846AFF30080F8
:1018A000E8B101992A46FFF7AFFF0146B8B1FFF74B
:1018B000A1FF4B68A064012B2CD0002B01F1040088
:1018C00024DBFFF797FF0023C4E913030368002B11
:1018D00011DBFFF78FFF2061002003B030BD002334
:1018E0000920236103B030BD0D4B0E49C91AC91040
:1018F00018460191D6E7C3F30360FFF7B3FF002852
:10190000206114BF0020092003B030BD0123C4E9C9
:101910001303DBE7002323610520DEE7000000005E
:10192000947E00083C8000080368DA0710B504467E
:1019300006D49B0700F1480009D500F05BFC236842
:10194000590709D51A070ED5DB0613D510BD00F0CF
:1019500049FC23685907F5D404F1D00000F052FC8B
:1019600023681A07F0D404F5A87000F053FC23682C
:10197000DB06EBD404F5E870BDE8104000F08EBC47
:10198000092070470346006800B11844704700BF43
:10199000704700BF70B504460E46316C2046FFF715
:1019A00075FF054688B9326C62612369324621466B
:1019B000012098470828F0D0072806D12846316C26
:1019C000FFF7E6FF301D00F001FCFEF75DFC00BFF5
:1019D0002DE9F0470D1DD0F80C80D0F8189007467F
:1019E00014460FCDADF5727D0DF10C0CACE80F0077
:1019F0000FCDACE80F000FCDACE80F0095E80F005D
:101A000002AE4FF0000E8CE80F00C6F800E020E0B8
:101A1000336C7B614FF4F07231467AA8FEF7F2FC2A
:101A20003B697AAA394650469847889B7364214699
:101A3000CDE9006905463B463A460120C0470446C9
:101A4000E0B94FF4F0727AA93046FEF7DBFC082DBE
:101A50001AD1316C3846FFF719FF09345FFA84FA5E
:101A600005460028D4D0B36B73643A46CDE90069CB
:101A70003B464AF010010120C04700B10925284625
:101A80000DF5727DBDE8F087072DF7D12046316C4A
:101A9000FFF77EFF03A800F099FB00BF406C704782
:101AA000F0B5CB6B0B6401F1040C0E460546BCE8A7
:101AB0000F00F9B001AC0FC4BCE80F000FC4BCE8C4
:101AC0000F000FC49CE80F004FF0FF3784E80F00B1
:101AD000009706E02B696A4629469847082804467D
:101AE00008D110992846FFF7D1FE0028F2D009202E
:101AF00079B0F0BD6846FFF717FF062CF7D13146E5
:101B00002846FFF747FF00BFC160D96B82611964A7
:101B1000002219465CE700BF70B5C66843690B64D4
:101B2000AEB903690A4604460D46014602209847AD
:101B3000072805D008280FD129462046FFF72AFF9D
:101B40003046296CFFF724FF281D00F03FFB0122DF
:101B5000FFF73EFFFEF798FBFEF796FBC2681AB14F
:101B6000CA6B0A64002233E79AE700BF704700BFE0
:101B7000836801460BB1012018477047012912D034
:101B800009D873B90F2A0CD800EB820218465368A3
:101B9000009A136070470339012994BF0120022085
:101BA0007047022070470846704700BF00B585B0F7
:101BB0000A46002303A900911946FFF7DFFF0398A7
:101BC00005B05DF804FB00BF012912D009D873B934
:101BD0000F2A0CD800EB8200009A12684260184667
:101BE00070470339012994BF012002207047022069
:101BF00070470846704700BF10B584B0002303AC9F
:101C0000039200940A461946FFF7DEFF04B010BDA8
:101C100070B5D36B136402F1040C05460C46BCE8A6
:101C20000F00ADF50E7D0DF15C0EAEE80F00BCE8C7
:101C30000F00AEE80F00BCE80F00AEE80F009CE814
:101C40000F004FF0FF368EE80F00169610E0FFF7FA
:101C5000D3FF214616A8A847034616AA69460820BE
:101C600083B9049B9847052806460CD0092809D05B
:101C700026996846FFF70AFE03466A460C2116A815
:101C8000002BE4D0092616A8FFF74EFE30460DF5CE
:101C90000E7D70BD2DE9F04FCC6C89B01E4654F816
:101CA000043B06940D46174600F00308002E79D039
:101CB0001A0C1B0405938DF81D200223D2B204EBED
:101CC00082048DF81C302B6DB8F1020F08BFAC6B8D
:101CD00013F001030CD005A9384600F079FB18B9C0
:101CE000082009B0BDE8F08F092009B0BDE8F08FE9
:101CF000D4F800A0BAF1000FEDD0019300F0080372
:101D00000293022E4AD0B4F800A0B4F80290043432
:101D1000AB6C29F0010B0F2138469B44FFF746FFBF
:101D2000834539D82AF001039B44834594BF0020A2
:101D300001204FEA490303F002030AF0010A43EAD3
:101D40000A03012B49D0022B32D0002BCCD1B8F1A1
:101D5000000F02D0002840F0CD800434D4F800A059
:101D6000BAF1000FCDD105A9384600F031FB0028AB
:101D7000BAD1019B002BB3D00F213846FFF716FFD5
:101D80000E2102463846FFF737FF38466A4A0F21D0
:101D9000FFF732FF0720A8E70020CAE7D4F8049035
:101DA0000834B5E71B0205930323ADF81C308AE71E
:101DB000236823F0004BB8F1000F45D128B1029AF7
:101DC000002A5CD0BBF1000F74D0002B00DA043481
:101DD0000BF1010B04EB8B04C0E7B8F1000F19D134
:101DE000B0B163682268991C4FEAD2723FF47CAFAD
:101DF00005F158010133049100F09080201DFFF798
:101E0000C1FD04AB0146284604F044FD00285BD127
:101E10000834A3E70D213846D5F82090FFF7C6FE19
:101E20008145F5D1AB6A9C42F2D12046FFF7E2FC36
:101E30000F2102463846FFF7DFFE38462A460021CA
:101E4000FFF7DAFE072050E70D213846D5F820903D
:101E5000FFF7ACFE814501D02368B6E7AB6A9C4230
:101E6000FAD104230022C5E90B23E318C5F828B0F2
:101E70006B632368002B59DB01230193A8E705F16D
:101E80005803CDF80C8004F1040AB04691461E4672
:101E90000EE050460496FFF775FD0022014604ABA4
:101EA000284609F101090AF1040A04F0F3FCE0B93B
:101EB000D945EED10D213846FFF778FE049BAC6280
:101EC000C5E90803062010E781460D213846FFF7D3
:101ED0006DFEB9F1020F286225D12B46049A43F812
:101EE0002C2F6B62AC620620FFE646462368DDF8C5
:101EF0000C806AE72046FFF77DFC04340246AC63A1
:101F00002846144604F024FD00283FF4EDAE384680
:101F100022460F21FFF770FE0720E6E60D21384626
:101F2000FFF744FE2862049B6B62DBE70BF10100C4
:101F300004EB80007AE700BFE57400080023A9E6FF
:101F40000123A7E60223A5E62DE9F0430646C3B028
:101F500015461C46042900F2BF80DFE801F09E57B9
:101F6000BD2D0300002C40F0B780102A00F2B48091
:101F70000368D80600F1F98020AF384600F098F9E0
:101F8000B46B394600234FF0010C0CFA03F22A42DD
:101F9000204603F1010303D050F8042B0A600446E5
:101FA000042B01F10401F0D13846B46300F076F956
:101FB000002043B0BDE8F083032C40F08D8094B244
:101FC00004EB1243102B4FEA124500F285800368A0
:101FD0001F0700F1D28020AF384600F03DF9B26B08
:101FE00007EBC50154B10B46D01A01EBC401E40064
:101FF0001D5843F8045B8B42FAD122443846B26341
:1020000000F008F9002043B0BDE8F083012C4FEA4E
:10201000124895B25CD0052C5ED108EB0509B9F1E8
:10202000200F59D8B8F10F0F79D9A946002D40F0EB
:102030008A80B36B6DB320AF4FF0000907EBC80780
:10204000043F03EBC50553F8041B47F8041FAB42DC
:10205000F9D1B9F1000F0FD06F464146102938BFB2
:10206000102107EBC101843903EBC90553F8040BB8
:1020700041F8040FAB42F9D1012C00F08680B8F191
:102080000F0FB56347D9B9F1000F02D0684600F0D1
:10209000B9F8002043B0BDE8F083ECB9806B23466B
:1020A0001FFA82FC0124371D04FA03F212EA0C0F16
:1020B000014604D051F8042B47F823200846013389
:1020C000102BF1D115F40055E3D1B063284604E09C
:1020D00008EB0503102B03D9022043B0BDE8F083C1
:1020E000B8F10F0FF8D83368DA0706D5304623F079
:1020F000030340F8483B00F079F820AF384600F081
:1021000075F8B36B002D97D11D460435B56338467D
:1021100000F068F8BDE720A800F06CF8B3E7B9F16B
:10212000100F40D9A9F110093368D90708D523F059
:102130000103304643F0020340F8483B00F05EF8EC
:10214000B9F1000F32D033685A0720D4B8F10F0F1D
:1021500025D96F463846C8F1100500F057F8002D14
:10216000B36B7FF77AAF20AF68E723F010033360DB
:1021700006F5E87000F09CF8FEE623F00803036023
:1021800000F5A87000F068F825E720AFBDE73046FD
:1021900023F0040340F8D03B00F038F8D6E720A83D
:1021A00000F02CF8D5E74FF00009BDE7B8F10F0FAC
:1021B0003FF63FAF20AF384600F020F8B36B002D5C
:1021C0007FF43AAF384600F015F862E700F13401C9
:1021D00091E838009C46A6464CF8045D90E8FF0F55
:1021E000E54600BD90EC210B704700BF80EC210B51
:1021F000704700BF90EC200B704700BF80EC200BB5
:10220000704700BFD0EC200B704700BFC0EC200B24
:10221000704700BFF0EC0201F0EC0211F0EC02217B
:10222000F0EC0231F0EC0241F0EC0251F0EC026112
:10223000F0EC0271F0EC0281F0EC0291F0EC02A102
:10224000F0EC02B1F0EC02C1F0EC02D1F0EC02E1F2
:10225000F0EC02F1704700BFE0EC0201E0EC02118B
:10226000E0EC0221E0EC0231E0EC0241E0EC025152
:10227000E0EC0261E0EC0271E0EC0281E0EC029142
:10228000E0EC02A1E0EC02B1E0EC02C1E0EC02D132
:10229000E0EC02E1E0EC02F1704700BFB0FC01812C
:1022A000B0FC0191B0FC01A1B0FC01B1704700BFCE
:1022B000A0FC0181A0FC0191A0FC01A1A0FC01B146
:1022C000704700BFEC4600B52DE900502DE9FF1F17
:1022D0004FF000032DE90C0001A9FFF7E1FBDDF849
:1022E00040E012B0704700BFEC4600B52DE9005049
:1022F0002DE9FF1F4FF000032DE90C0001A9FFF7A6
:102300000BFCDDF840E012B0704700BFEC4600B5B2
:102310002DE900502DE9FF1F4FF000032DE90C00BF
:1023200001A9FFF71BFCDDF840E012B0704700BFC9
:10233000EC4600B52DE900502DE9FF1F4FF00003DA
:102340002DE90C0001ABFFF7DFFBDDF840E012B038
:10235000704700BFEC4600B52DE900502DE9FF1F86
:102360004FF000032DE90C0001AAFFF751FCDDF846
:1023700040E012B0704700BF027A03467AB9427A51
:10238000A2B14168013A10B44272086803220C1DE0
:102390001A7202025C60000E10BC1A60704700687E
:1023A000013A1A7202021A60000E7047B02070479C
:1023B00000B585B0002303AA009219460C22FFF74E
:1023C000DDFB039805B05DF804FB00BFF0E700BF3C
:1023D0002DE9F043054685B00E464FF00008304623
:1023E000FFF7CAFFB028044600F0BA80070620D5E0
:1023F00000F0F003802B4DD0902B36D0A02B60D076
:10240000B02B74D0C02B00F08B8000F0F803D02BE1
:102410000BD100F007020132052342F40022012112
:102420002846FFF791FD0028D9D0092005B0BDE866
:10243000F0838300DBB21F1D0DF10C090023194648
:10244000CDF800900D222846FFF798FB039BCDF8AE
:10245000009060064CBFDF1BFF1800230D221946B9
:1024600028460397FFF7B0FBB9E700F00D030D2BEB
:10247000DBD003AF002300F00F0219460097284677
:10248000FFF77CFB002300970D2219462846FFF733
:102490009BFBA4E73046FFF76FFF24022043B0F513
:1024A000004FC2D004010023A2B219462846FFF70C
:1024B0004BFD0028B9D114F4004F18BF4FF00108AC
:1024C0008DE7C24302F007034FF47F621A41010710
:1024D00002F47F624FF0000348BF42F48042194685
:1024E0002846FFF731FD00283FF479AF9DE7B1287A
:1024F0003BD0B22800F09380B32841D000F0FC0319
:10250000B42B92D000F007020132012342F40022E2
:1025100019462846FFF718FD00283FF460AF84E70E
:10252000C6284AD0C72854D000F0F803C02B63D087
:10253000C82868D0C9287FF478AF3046FFF71CFF61
:10254000020300F00F0002F4702201300243012167
:1025500005232846FFF7F8FC00283FF440AF64E766
:10256000B8F1000F18D0002060E73046FFF704FFF5
:10257000024600283FF459AF10F0F003C8D054E7EA
:102580003046FFF7F9FE020300F00F03013302F4B7
:1025900070221A430123BBE703AC43460E22414697
:1025A00000942846FFF7EAFA009443460F2241467A
:1025B0002846FFF709FB404638E73046FFF7DCFEC8
:1025C000020300F00F03013302F470221A430323C5
:1025D0009EE73046FFF7D0FE024600283FF425AFC5
:1025E00010F0F0037FF421AF04212846FFF7ACFC84
:1025F00000283FF4F4AE18E700F00F020132032385
:1026000042F4202284E73046FFF7B6FE00F0F002E5
:1026100000F00F031032013343EA023297E7002340
:102620000DF10C090D221946CDF800902846FFF750
:10263000A5FA3046FFF7A0FE02064FF002040CD5C3
:10264000039B00F07F00A040184403903046FFF742
:1026500093FE030604F10704F2D4039BCDF8009027
:1026600000F07F02A24003F501731A440023039295
:1026700019460D222846FFF7A7FAB0E610B5C26C3E
:10268000536884B04FF0030C08321C0208461B0E3E
:1026900001A9019402928DF80CC08DF80D30FFF75E
:1026A00097FE04B010BD00BF08B5FFF78FFE806C29
:1026B00008BD00BF08B5FFF789FEC06CC3790233BF
:1026C00000EB830008BD00BF024B58221A604FF098
:1026D000FF30704794000020024B58221A604FF0E0
:1026E000FF30704794000020044A05491368002B0E
:1026F00008BF0B4618441060184670479800002029
:10270000E8040020FEE700BF034AD2F8883043F413
:102710007003C2F88830704700ED00E0164A9368F5
:1027200003F00C03042B0CD0082B0CD0134B124AD3
:10273000134892681349C2F30312825CD3400B60C2
:102740007047114BF3E75368516813F4800F01F0A1
:102750003F01536814BF0C4A084AB2FBF1F1064A24
:102760005268C2F30142C3F38813013201FB03F341
:102770005200B3FBF2F3DAE7003802400024F40021
:10278000E07500086400002000127A00234B9A686C
:1027900042F4A05210B59A609A6842F400429A60DE
:1027A0001A6822F4A02242F4803282B01A601A68B9
:1027B0009203FCD55A681A4C42F480025A605A6857
:1027C00022F03F025A605A6842F004025A605A6886
:1027D00022F4FF4222F040025A605A6842EA811114
:1027E000596059680D4A21F440315960216841F41B
:1027F000827141F001012160196841F08071196016
:1028000013689B01FCD59368019043F00203936029
:10281000FFF784FF019802B010BD00BF00380240EE
:10282000003C0240704700BF0A6802604A6842608C
:102830008A89D1F808C082818A7BC0F808C0827377
:10284000704700BF704700BF0379413B2DE9F0435B
:10285000032B57D8DFE803F078685802424A136B1D
:1028600043F00803136300250C2402214023057064
:102870004470A2F530528170C370D0F80570002307
:1028800003260F2503F0070127FA03F44FEA430E4E
:102890008900E40706FA0EF805FA01F92DD5146847
:1028A00024EA080414609468072BCCBF4FF0040C92
:1028B0004FF0000C944424EA08049460DCF8208073
:1028C000847A28EA0908CCF82080D2F8008004FA3B
:1028D0000EF444EA08041460447AD2F8088004FA3A
:1028E0000EFE4EEA08049460D0F80BE0DCF82040BD
:1028F0000EFA01F12143CCF820100133102BC1D185
:1029000000235361BDE8F083174A136B43F00403BF
:102910001363002508240221402305704470A2F5AA
:1029200040528170C370A8E70F4A136B43F0020353
:102930001363002504240221402305704470A2F58E
:1029400050528170C37098E7074A136B43F001033C
:102950001363002102244023A2F5605201704170EC
:102960008470C37089E700BF0038024030B5416809
:102970004B1E052B4BD8DFE803F04B5C6C7D8F03BF
:10298000514A536C142143F0200353640025012461
:10299000402241704D4B057002218470C27080242A
:1029A0000D46026A1AB15A6942F080025A61C26940
:1029B0001AB15A6942F040025A61454A1268012D23
:1029C0004FEAC2027AD0D0F808C04FEA8C1CB2FBA2
:1029D000FCF29A60D0F818C0D0F814E0DD684FEA35
:1029E000CC1242EA4E122A43DA605EEA0C021CBFA5
:1029F000384A42F821400269C068D968D20042EAE8
:102A000080020A43DA60DA6842F40052DA6030BDCC
:102A10002D4A536C43F01003536400251023012406
:102A200040220570437084702B4BC2702024022515
:102A3000B7E725490B6C43F400330B6400224425AF
:102A4000402401214570254B02708270C4700D46F0
:102A5000A7E71D490B6C43F480230B640022482533
:102A6000402401214570C4701D4B02708270802487
:102A70000D4696E714490B6C43F400230B640022C7
:102A80004C25402401214570C470164B02708270A1
:102A90004FF480140D4684E70B490B6C43F480130C
:102AA0000B6400225025402401214570C4700E4B58
:102AB000027082704FF400140D4672E785686D0154
:102AC000B2FBF5F29A6085E700380240001401403D
:102AD0006400002000E100E00010014000440040DC
:102AE00000480040004C0040005000402049214A6E
:102AF0000B6C43F0805310B40B64136843F4807381
:102B000013601368D905FCD5194A1B4B916841F431
:102B100000219160116F41F480311167116F21F430
:102B200080311167116F41F440711167116FCA2430
:102B3000532041F4004111675C625862DA6842F048
:102B40008002DA60DA685206FCD541F63F721A61FB
:102B50001A690A495DF8044B42F4F8021A611960D7
:102B6000DA68002122F08002DA605962704700BF03
:102B70000038024000700040002800405943140013
:102B8000114B1A68C2F3015230320A701A68C2F34C
:102B900003423A2030324A7088701A68C2F3023217
:102BA0003032CA701A684871C2F3032230320A7197
:102BB0001A68C2F3021230328A711B6803F00F03E5
:102BC0003033CB71704700BF00280040D0F804C0FC
:102BD000BCF1010F30B573D0BCF1020F6FD1AB4A1D
:102BE000136B43F4800313638268072A67D8DFE816
:102BF00012F0330119012601E500F30001010D0176
:102C000041016FF0470260230221027043704022AD
:102C10009F4B8170C2704FF4004400221A601A6802
:102C2000002AFCD11968C56841EA4561196001694B
:102C3000D9604169196181699960C169596090F8E9
:102C4000211090F82250490341EAC5211D6829430B
:102C50001960196841F440311960D0F82310D0F898
:102C60002750890241EA45211D68294319605A61AC
:102C70001A6890F8331042EA81121A601A68D0F884
:102C80002F1042EA01221A601A68D0F82B1042EA8B
:102C900081421A601D68D0F838E0416B0A0142EAAF
:102CA000CE022A431A605EEA01021CBF794A42F84A
:102CB0002C40C26B1AB11A6842F001021A6030BD92
:102CC000724A136B43F4001313638268072AF6D821
:102CD00001A353F822F000BFF92C0008132D0008BF
:102CE0002F2D0008492D0008652D0008812D0008B2
:102CF0009F2D0008032C000810216023022401707E
:102D0000402143708470644BC17094464FF400645A
:102D100083E72824602302214022047043708170DD
:102D20005E4BC2704FF480544FF0000C75E74022A8
:102D30000223602183700270594B4170C2704FF4BE
:102D400000544FF0000C68E7582460230221402211
:102D5000047043708170534BC2704FF480444FF045
:102D6000000C5AE770246023022140220470437053
:102D700081704D4BC2704FF400444FF0000C4CE793
:102D80006FF0770460230221402204704370817049
:102D9000464BC2704FF480344FF0000C3DE76FF0AB
:102DA0005F04602302214022047043708170404B15
:102DB000C2704FF400344FF0000C2EE75824642307
:102DC000022140220470437081703A4BC2704FF070
:102DD00000644FF0010C20E770246423022140229C
:102DE000047043708170344BC2704FF080544FF0C8
:102DF000010C12E76FF07702642302210270402277
:102E0000437081702D4BC270102406E76FF05F0293
:102E1000642302210270402243708170284BC270EB
:102E20002024FAE628216423022401704021437003
:102E30008470244BC17094464FF00074EDE640223C
:102E400002236421837002701F4B4170C2704FF0E7
:102E500080644FF0010CE0E610246423022140223C
:102E6000047043708170194BC2704FF080744FF042
:102E7000010CD2E66FF04702642340240270022264
:102E800043708270124BC470C7E600BF0038024026
:102E9000B860024000E100E010600240286002409B
:102EA000406002405860024070600240886002400A
:102EB000A06002405864024070640240886402408E
:102EC000A064024028640240406402401064024052
:102ED000B864024082B03B4B019303E0019B013B8D
:102EE00001931BB1436B13F0450FF7D0436B5A07A7
:102EF00002D5019B002B39D0436BDB073DD403691E
:102F00008B4230D140F2FF53836343692E4818400F
:102F100050B3002B38DB5A002DD4990036D4DA0098
:102F200036D4190136D45A0136D4D90136D41A020E
:102F300028D4590217D49A0232D4D90232D41A03AF
:102F400032D4590332D49A0332D4D90332D41A0476
:102F500032D4590434D49A0430D413F0080F0CBF7F
:102F60000020242000E01A2002B07047042383636D
:102F7000012002B070471320F6E70123836302208B
:102F800002B070471920EFE70B20EDE71420EBE7C4
:102F90001520E9E71620E7E71720E5E71820E3E723
:102FA0001B20E1E71C20DFE71D20DDE71E20DBE71B
:102FB0001F20D9E72020D7E72120D5E72320D3E71A
:102FC0002220D1E7A086010008E0FFFD70B5D0E91E
:102FD0000045AC4282B0064605D020460F34FFF7CC
:102FE00033FCA542F9D1154AB36F506C96F87C10AA
:102FF00040F400605064D2F8940040F08050C2F871
:1030000094001A68C90242F003021A6059605968B4
:103010000B4A41F0FF0159605968002041F480716A
:1030200059600190019B934205DC019B01330193A0
:10303000019B9342F9DD02B070BD00BF0038024031
:103040009F86010090F83630027B9B09032A30B43A
:1030500080F8203053D090F83920C2617BB390F8CB
:103060003D20C38F12045BBA02F47C129BB213435F
:1030700001334FF4007490F84650B0F8532080F8B4
:103080002450436103FB04F5D0F84F30B0F84710EB
:10309000056152BAC2F30B021BBAD0F849508286BE
:1030A00049BA90F84D20036390F84E3085628461F0
:1030B000C18430BC80F82C2080F82D30704790F807
:1030C0003E3090F83D4090F83F2090F83C109B092E
:1030D00043EA8403520090F84040890202F006025D
:1030E00001F4406142EAD41290F83B400B430133B3
:1030F00004F00F010232012493408C40BBE790F8AA
:103100003C2090F83E3090F83D4090F83B10120281
:1031100002F440729B092244013303EB820390F8CE
:103120003F2090F84040520002F0060202EBD41219
:103130000232934001F00F0143618B4003612A2367
:1031400090F83940838501230022C46103FA01F11C
:10315000044C846280F8242030BCC28402638286DE
:10316000816170472A4D4D432DE9F041426E6FF069
:1031700040439B1A0026052B90B0067340F25186FF
:10318000044600F1600506228449284604F032F91D
:10319000A26F834B01934FF0FF3393634FF480632F
:1031A0009660D36003E0019B013B01931BB1536B1D
:1031B00013F0840FF7D0536B5F0731D4019B1BB919
:1031C000012010B0BDE8F081626E6FF040439B1AA1
:1031D000052B40F2268673490622284604F00AF998
:1031E000A26F6F4B4FF0FF3191634FF4D571916037
:1031F0004FF48961D160029303E0029B013B02938B
:103200001BB1536B13F0450FF7D0536B5E070BD414
:10321000029B4BB1536B580600F18C830A20D0E718
:10322000012010B0BDE8F081606E6FF040431B1AC2
:1032300004210F2B916340F2F4855B49102228464C
:1032400004F0D8F8A26F564B4FF0FF319163002184
:10325000916040F27741D160059303E0059B013B0B
:1032600005931BB1536B13F0450FF7D0536B580701
:1032700004D5059B13B9042393630AE0536BD90764
:1032800000F136841369372B03D140F2FF53936367
:103290005369DFF82081424E444F4FF6FF7301938C
:1032A0000122019B013B0193002B00F05984626EC7
:1032B0006FF040439B1A112B40F2B3851222414616
:1032C000284604F097F8A26F4FF0FF339363002372
:1032D000936040F27743D360069603E0069B013B80
:1032E00006931BB1536B13F0450FF7D0536B5B077D
:1032F00003D5069B002B00F00C84536BD80700F11C
:1033000002841369372B40F0FA8340F2FF53936332
:1033100053693B4238D0002BC0F21084590000F1B1
:103320000784980000F11084D90000F1138418017B
:1033300000F16584590100F1D684D80100F1DB84E5
:10334000190200F1F184580200F1D983990200F1C9
:103350000585D80200F10C85190300F11285580388
:1033600000F12785990300F12F85D80300F12F85FF
:10337000190400F13F85580400F13985990400F1E2
:103380005685180700F15085094B4FF0FF319163C6
:10339000936040F26943D360079611E00876000815
:1033A000A0860100107600084076000808E0FFFDC6
:1033B000000010802C760008079B013B07931BB18F
:1033C000536B13F0450FF7D0536B590703D5079B89
:1033D000002B00F0A38340F2FF5393635369002254
:1033E0009342BFF65EAF019B002B00F03D850123A9
:1033F0002373626E6FF040439B1A052B40F21185D8
:1034000079490622284603F0F5FFA26F774B4FF06B
:10341000FF3191630021916040F28241D1600993B4
:1034200003E0099B013B09931BB1536B13F0450F5C
:10343000F7D0536B5E0703D5099B002B00F0668421
:10344000566B16F0010640F05C8440F2FF53936324
:1034500053691BBAC4F8463093691BBAC4F84A30A2
:10346000D3691BBAC4F84E30136A227B1BBA032AF5
:10347000626EC4F852306FF04043A3EB020300F0D9
:10348000C483052B40F2CD8459490622284603F017
:10349000B1FFA26F4FF0FF33936340F24341534BB0
:1034A0009660D1600A9303E00A9B013B0A931BB12B
:1034B000536B13F0450FF7D0536B580703D50A9B96
:1034C000002B00F03984536BD90700F13084136965
:1034D000032B40F0138440F2FF539363536913F4BA
:1034E000604F00F03E849A0400F166845F0400F1AE
:1034F00005841E0400F17884626E6FF040439B1ACD
:10350000052B40F28E843B490622284603F072FFC9
:10351000638CA26F4FF0FF3191631B0433499360BA
:1035200040F28940D0600C9103E00C9B013B0C936E
:103530001BB1536B13F0450FF7D0536B580703D5EE
:103540000C9B002B00F0FD83536BD90700F1018425
:1035500040F2FF5393635169636E09BAC4F83610A1
:10356000916909BAC4F83A10D16909BAC4F83E1091
:10357000126A6FF04046F31A12BA0C2BC4F84220BC
:1035800040F24F841C490D22284603F033FF2046A9
:10359000FFF758FD636EF31A0D2B40F24284174972
:1035A0000E22284603F026FFA16FD4F881304A6826
:1035B000DBB222F0FF0213434B60636EF61A052E56
:1035C00040F22F840E490622284603F013FF638C35
:1035D000A26F4FF0FF3191631B040449936040F2E6
:1035E0004740D0600D9111E070760008A086010080
:1035F00078760008947600089C760008AC7600087F
:10360000BC7600080D9B013B0D931BB1536B13F06F
:10361000450FF7D0536B5B0703D50D9B002B00F0D4
:10362000B883536BDF0700F1AF831369072B40F0BA
:10363000A58340F2FF53936353695C4A1A40002A02
:1036400038D0002BC0F20D845E0000F10784980092
:1036500000F10184D90000F119841A0100F12284DB
:103660005F0100F11C84DE0100F11684180200F1F4
:103670001084590200F182839A0200F13F84DF0234
:1036800000F139841E0300F13384580300F12D84C6
:10369000990300F12784DA0300F121841F0400F16B
:1036A0001B845E0400F11584980400F172841907EC
:1036B00000F16C84626E6FF040439B1A072B40F25E
:1036C000B0833B490822284603F094FE628CA36F26
:1036D0004FF0FF319963120436499A6040F2774007
:1036E000D8600E9103E00E9A013A0E921AB15A6B0D
:1036F00012F0450FF7D05A6B520703D50E9A002AE5
:1037000000F07B835A6BD70700F197831A69372A39
:1037100040F0908340F2FF529A635A692349114066
:10372000002938D0002AC0F28884560000F1828433
:10373000900000F17C84D10000F17684170100F143
:103740007084560100F16A84D00100F16484110292
:1037500000F15E84570200F16D83960200F15584FA
:10376000D00200F14F84110300F14984570300F1A6
:103770004384960300F13D84D00300F137841104A3
:1037800000F13184570400F12B84960400F19E83EC
:10379000100700F198834FF0FF3199630021996081
:1037A000044A40F26A41D9600F9209E008E0FFFD47
:1037B000C4760008A08601000F9A013A0F921AB150
:1037C0005A6B12F0450FF7D05A6B510703D50F9A79
:1037D000002A00F004835A6BD20700F1FB821A69B9
:1037E0002A2A40F01B8340F2FF529A635B699D4A8C
:1037F0001A40002A38D0002BC0F2B0835F0000F1DD
:10380000AA839E0000F1A483D80000F19E831901D1
:1038100000F198835A0100F19283DF0100F18C835B
:103820001E0200F18683580200F1F882990200F12D
:103830007D83DA0200F177831F0300F171835E0359
:1038400000F16B83980300F16583D90300F15F8376
:103850001A0400F159835F0400F153839E0400F1C0
:103860002783180700F12183626E6FF040439B1A93
:10387000162B40F2D6827C491722284603F0BAFD67
:10388000237B032B43D0A06F4FF0FF3708264FF464
:103890008A63876310218660C360FFF71BFB0028E3
:1038A00035D1638CA06F1B048763836040F277433C
:1038B000C3603721FFF70EFB034640BBA06F6B4A86
:1038C000332140F22A48C0F8388042628662C162E1
:1038D0008763836040F27343C360FFF7FBFAB0B9BC
:1038E000A36F04F1560203E0596B890200F1E682EE
:1038F000596B11EA080FF7D05A6B12F02A0F03D058
:103900005A6B5A6B5A6B5A6B40F2FF529A63626E53
:103910006FF040439B1A172B40F2838254491822C0
:10392000284603F067FD237B013B022B40F21C83FA
:10393000002046E4606E6FF040431B1A4021112BBB
:10394000916340F26E8212224A49284603F052FDEA
:10395000A26F5369C3F30803B3F5D57F40F0E58048
:103960004FF6FF73DFF81881434E3E4F0193019BE2
:10397000013B0193002B00F09980626E6FF0404391
:103980009B1A112B40F24D8212224146284603F029
:1039900031FDA26F4FF0FF3393630023936040F239
:1039A0007743D360039603E0039B013B03931BB172
:1039B000536B13F0450FF7D0536B590703D5039B97
:1039C000002B00F08980536BDB077FD41369372B02
:1039D00078D140F2FF53936353693B4238D0002BB8
:1039E000C0F2AF80580000F1A680990000F1AF80CE
:1039F000D80000F1B280190100F1048158017BD494
:103A0000D90100F18881180200F18881590259D446
:103A1000980200F19B81D90200F1A781180300F1FF
:103A2000AA81590300F1BF81980300F1BF81D90336
:103A300000F1F181180400F10B82590400F10582B4
:103A4000980400F1FF81190702D52420FFF7B9BBC4
:103A50000A4B4FF0FF319163936040F26943D360AA
:103A6000049613E008E0FFFDD0760008405489007A
:103A7000E876000818760008A0860100000010C053
:103A80002C760008049B013B04931BB1536B13F08D
:103A9000450FF7D0536B5B0701D5049B13B340F27E
:103AA000FF5393635369002BBFF661AF019B002B5B
:103AB00000F03781536913F0804F14BF04230223B1
:103AC000237396E41A2010B0BDE8F0810123022090
:103AD000936310B0BDE8F08104230120936310B01C
:103AE000BDE8F08104230120936310B0BDE8F081AC
:103AF00001239363FFF7CDBB1720FFF762BB1A20AA
:103B000010B0BDE8F08101230220936310B0BDE83E
:103B1000F081042393630120FFF753BB04239363D5
:103B2000019B1BBB0920FFF74CBB0620FFF749BBDD
:103B30001320FFF746BB1320FFF743BB0B20FFF713
:103B400040BB0B20FFF73DBB1420FFF73ABB14200E
:103B5000FFF737BB1520FFF734BB1520FFF731BB4C
:103B6000019B002BDED0002A3FF441AC626E6FF067
:103B700040439B1A1A2B40F25481BD49DFF8088359
:103B8000BC4FBD4E1B22284603F034FC4FF6FF739A
:103B90000193019B013B019353B3626E6FF040436D
:103BA0009B1A112B40F23D8112224146284603F018
:103BB00021FCA26F4FF0FF33936340F241439760C3
:103BC000D360089603E0089B013B08931BB1536B3D
:103BD00013F0450FF7D0536B5B0703D5089B002B01
:103BE00000F0848040F2FF5393635369002BD0DAD6
:103BF000019B002B96D003232373FFF7FABB1620FB
:103C0000FFF7DFBA1620FFF7DCBA122B40F209816A
:103C10009A491322284603F0EDFBA26F964B4FF012
:103C2000FF3191634FF48031916040F24341D160A4
:103C30000B9303E00B9B013B0B931BB1536B13F0F6
:103C4000450FF7D0536B580703D50B9B002B00F0A3
:103C5000A580536BD90700F1B2801369032B4DD1B6
:103C600040F2FF5393635369854A1A40002A37D0C4
:103C7000002BC0F2CD805A0000F1C7809F0000F1F8
:103C8000C180DE0000F11781180100F18E81590119
:103C900000F18881DA0100F182811F0200F1A48025
:103CA0005E022BD4980200F17781D90200F1958150
:103CB0001A0300F18F815F0300F189819E0300F1F7
:103CC0008381D80300F17D81190400F177815A04C2
:103CD00000F171819F0400F16B811E0700F14181A9
:103CE0000123638408E41720FFF76BBA042393636E
:103CF0000120FFF766BA1820FFF763BA1A20FFF712
:103D000060BA012393630220FFF75BBA0423936335
:103D10000120FFF756BA1820FFF753BA1920FFF712
:103D200050BA0D20FFF74DBA1920FFF74ABA012308
:103D300093630220FFF745BA042393630120FFF742
:103D400040BA042393630120FFF73BBA1B20FFF71F
:103D500038BA012393630220FFF733BA1B20FFF721
:103D600030BA1B0C6384FFF7C7BB1C20FFF729BACE
:103D70001C20FFF726BA1D20FFF723BA1A20FFF7F1
:103D800020BA1D20FFF71DBA012393630220FFF71D
:103D900018BA042393630120FFF713BA0423936333
:103DA0000120FFF70EBA1E20FFF70BBA1F20FFF706
:103DB00008BA1E20FFF705BAFF20FFF702BA012359
:103DC00093630220FFF7FDB91F20FFF7FAB9202007
:103DD000FFF7F7B901229A630220FFF7F2B9042234
:103DE0009A630120FFF7EDB91920FFF7EAB9222005
:103DF000FFF7E7B92120FFF7E4B904229A63012015
:103E0000FFF7DFB91420FFF7DCB91320FFF7D9B9AA
:103E10000B20FFF7D6B92020FFF7D3B91A20FFF700
:103E2000D0B9184803F0C2F92420FFF7CAB92320FB
:103E3000FFF7C7B91A20FFF7C4B901229A6302201D
:103E4000FFF7BFB92320FFF7BCB92220FFF7B9B9AC
:103E50002120FFF7B6B91420FFF7B3B91320FFF7FD
:103E6000B0B90B20FFF7ADB90920FFF7AAB900BF21
:103E70005476000800001080A086010080760008BB
:103E800008E0FFFDF07500082C7600081520FFF70C
:103E900098B91920FFF795B91820FFF792B91720A4
:103EA000FFF78FB91620FFF78CB92420FFF789B9E7
:103EB0002320FFF786B91520FFF783B9D3F88010C8
:103EC00042F8041B14E52420FFF77BB92320FFF7F9
:103ED00078B92220FFF775B92120FFF772B92020A9
:103EE000FFF76FB91F20FFF76CB91E20FFF769B904
:103EF0001D20FFF766B91C20FFF763B91B20FFF7F1
:103F000060B92220FFF75DB92120FFF75AB92020C0
:103F1000FFF757B91F20FFF754B91E20FFF751B91B
:103F20001D20FFF74EB91C20FFF74BB91B20FFF7F0
:103F300048B91920FFF745B91820FFF742B91720F3
:103F4000FFF73FB91620FFF73CB91520FFF739B945
:103F50001420FFF736B91320FFF733B90B20FFF712
:103F600030B92420FFF72DB9A06F4FF0FF314FF487
:103F700000724FF48A63816382601021C360FEF790
:103F8000A9FF002818BF0820FFF71BB92420FFF75E
:103F900018B92320FFF715B91B20FFF712B9182015
:103FA000FFF70FB91720FFF70CB91620FFF709B973
:103FB0002320FFF706B92220FFF703B92120FFF7DE
:103FC00000B92020FFF7FDB81F20FFF7FAB81E2028
:103FD000FFF7F7B81D20FFF7F4B81C20FFF7F1B882
:103FE0002220FFF7EEB82120FFF7EBB82020FFF7E3
:103FF000E8B81F20FFF7E5B81E20FFF7E2B81D2044
:10400000FFF7DFB81C20FFF7DCB81B20FFF7D9B89B
:104010001920FFF7D6B81820FFF7D3B81720FFF7FD
:10402000D0B81620FFF7CDB81520FFF7CAB8142076
:10403000FFF7C7B81320FFF7C4B80B20FFF7C1B8CC
:1040400070B59A4C0025E562047B042C974C40F235
:10405000FF55A5634FEA532E846F954D08BF490A5B
:104060004FF0FF36BEF1010FA66384B0A16040F2AD
:10407000B28040F25241E160019503E001990139BB
:10408000019119B1616B11F0450FF7D0616B4D07CC
:1040900000F19880616BC90700F1578121691229ED
:1040A00040F0F58040F2FF51A1636169814D0D4000
:1040B000002D38D00029C0F258814E0000F14D810A
:1040C0008D0000F15681CE0000F149810D0100F113
:1040D0005A814E0100F14581CD0100F156810E0259
:1040E00000F155814D0200F1D2808E0200F1538122
:1040F000CD0200F154810E0300F155814D0300F112
:1041000056818E0300F15D81CD0300F158810E04CC
:1041100000F159814D0400F158818E0400F157815E
:104120000D0700F1B2804FF4957C6049624D4D62FD
:104130008B629323CB624B6B1D0418D5D1F8805052
:104140001560D1F880505560D1F880509560D1F855
:104150008050D560D1F880501561D1F880505561FC
:10416000D1F880509561D1F88050D561203213EAA2
:104170000C0FE0D0017B032903D0BEF1010F00F248
:104180008980002013F03A0F0BD013F0080F18BFEE
:104190000E2013F0020F18BF0F2013F0200F18BFCE
:1041A0001020424B596B8C0206D5D3F8801042F890
:1041B000041B596B8902F8D43C4B40F2FF529A63BE
:1041C00004B070BD019900297FF464AF042301207D
:1041D000A36304B070BD40F25141E160029503E079
:1041E00002990139029119B1616B11F0450FF7D0B5
:1041F000616B490702D502990029E7D0616BCE07B0
:1042000000F1A3802169112941D140F2FF51A1633E
:104210006169284D0D40002D00F09C800029C0F2FE
:10422000A4804D0000F199808E0000F1A280CD00A5
:1042300000F195800E0100F1A6804D0100F1918002
:10424000CE0100F1A2800D0200F1A1804E021ED429
:104250008D0200F1A080CE0200F1A1800D0300F1DB
:10426000A2804E0300F1A3808D0300F1AA80CE034B
:1042700000F1A5800D0400F1A6804E0400F1A58098
:104280008D0400F1A4800E0764D5242000E01A20DC
:1042900004B070BD4FF0FF30A0630020A06004495F
:1042A00040F24C40E06003910CE000BF002C014064
:1042B000A086010008E0FFFD405489000399013900
:1042C000039119B1616B11F0450FF7D0616B48078D
:1042D00002D50399002952D0616BC9074BD42169DB
:1042E0000C2944D140F2FF51A16361694248084062
:1042F00000283FF446AF002935DB4E0049D48D003D
:104300004BD4CC004DD40E014FD44D0151D4CC012F
:1043100051D40E0251D44D0229D48C0259D4CE026C
:1043200059D40D0359D44C035BD48E0357D4CD0319
:1043300059D40C0459D44E045BD48D0457D411F0D5
:10434000080F0CBF002024201CE701230220A363D8
:1043500004B070BD40F22A4CE7E6132098E7152020
:1043600096E7172094E70B200CE70B2090E71A2024
:1043700008E714208CE70121A163022002E7042151
:10438000A1630120FEE6162082E7182080E71920AD
:104390007EE71320F6E61B207AE71420F2E61C20C5
:1043A00076E71520EEE61D2072E71620EAE61E20CD
:1043B0006EE71720E6E61820E4E61920E2E6202062
:1043C00066E71F2064E7212062E7222060E72320C0
:1043D0005EE71B20D6E61C20D4E61D20D2E61F2077
:1043E000D0E61E20CEE62020CCE62120CAE62320FF
:1043F000C8E62220C6E600BF08E0FFFD2DE9F04137
:10440000854C0026E662047B844E042C4FEA53253B
:10441000846F08BF490A4FF0FF37012DA76384B0AE
:10442000A16040F2F48040F25941E160009603E05F
:1044300000990139009119B1616B11F0450FF7D066
:10444000616B4E0700F1D880616BC90700F10382F0
:104450002169192940F0428140F2FF51A16361694D
:104460006F4E0E40002E38D00029C0F20C824F0053
:1044700000F101828E0000F10882CF0000F1FD8181
:104480000E0100F10E824F0100F1F981CE0100F121
:104490000A820F0200F109824E0200F11F818F0291
:1044A00000F10982CE0200F104820F0300F10C82B8
:1044B0004E0300F102828F0300F11E82CE0300F151
:1044C00019820F0400F114824E0400F10F828F0450
:1044D00000F104820E0700F1FF804FF48D7C4E49FD
:1044E000504E40F2FF578F6313F01F0E4E624FF095
:1044F00091068B62CE6200F0F6804FF0000E4E6B9C
:10450000760421D59E451FD2A3EB0E061F2E40F246
:104510001D811668C1F880605668C1F88060966891
:10452000C1F88060D668C1F880601669C1F8806003
:104530005669C1F880609669C1F88060D669C1F893
:1045400080600EF1200E20324E6B16EA0C0FD6D092
:10455000037B314A032B526B02D0012D00F22A81DA
:10456000002112F03A0F0BD012F0080F18BF0E21E5
:1045700012F0020F18BF0F2112F0100F18BF1121F7
:10458000428CDFF89CC02548DFF89CE04FF0FF36F6
:10459000120440F24D4540F2FF57A663A260E56069
:1045A000039003E0039B013B03931BB1636B13F088
:1045B000450FF7D0636B5B0703D5039B002B00F01F
:1045C000C280636BDB0700F1BB8023690D2B0BD12D
:1045D000A763636913EA0C0F00F0AA80002B03DBCA
:1045E00013EA0E0F00F0A4800B4B40F2FF52084676
:1045F0009A6304B0BDE8F081009900297FF424AFEC
:10460000012104230846A36304B0BDE8F0814FF400
:104610008B61E16001960DE0002C0140A086010055
:1046200008E0FFFDA052570108E0FF7D0199013924
:10463000019119B1616B11F0450FF7D0616B49071A
:1046400002D501990029DBD0616BCF0700F103810E
:104650002169182942D140F2FF51A1636169984E46
:104660000E40002E00F004810029C0F20C814E00A3
:1046700000F101818F0000F10881CE0000F1FD8082
:104680000F0100F10E814E0100F1F980CF0100F120
:104690000A810E0200F109814F021FD48E0200F13F
:1046A0000A81CF0200F105810E0300F10D814F0355
:1046B00000F103818E0300F11F81CF0300F11A8105
:1046C0000E0400F115814F0400F110818E0400F1F9
:1046D0000581090740F1CC80242100E01A21084619
:1046E00004B0BDE8F0814E6B77041CD59E451AD20C
:1046F0001668C1F880605668C1F880609668C1F895
:104700008060D668C1F880601669C1F8806056691B
:10471000C1F880609669C1F88060D669C1F8806090
:104720000EF1200E20324E6B16EA0C0FDBD00FE795
:104730006369C3F34323063B012B7FF62EAF53E798
:104740000123A36350E70423A3634DE7B70740F0B9
:104750008980B70826F00306B6447E1E002F3FF47A
:10476000F3AEB8461768C1F8807006B35768C1F851
:104770008070012E1BD09768C1F88070022E16D071
:10478000D768C1F88070032E11D01769C1F8807006
:10479000042E0CD05769C1F88070052E07D0976998
:1047A000C1F88070062E1CBFD669C1F8806002EB8C
:1047B0008802C9E64FF0FF31A1630021A160414B9F
:1047C00040F24C41E160029303E0029B013B029303
:1047D0001BB1636B13F0450FF7D0636B5F0702D516
:1047E000029B002B59D0636BDE0752D423690C2B3C
:1047F0004DD140F2FF53A363636931491940002949
:104800003FF4AEAE002B3CDB5D0050D499005DD48C
:10481000DF005FD41E015BD45D015DD4D9015FD49C
:104820001F0261D45E0232D49D025BD4D90273D4DC
:104830001F036FD45E036BD49D0367D4D90363D485
:104840001F045FD45E045BD49D0457D419077FF521
:1048500087AE242185E6022101230846A36304B024
:10486000BDE8F081B60806F101080EEB880E79E785
:1048700040F21A4C33E6132131E715212FE71721B7
:104880002DE70B216DE60B2129E7142127E71A21DB
:1048900067E60123A363022163E60423A3630121E6
:1048A0005FE616211BE7182119E7192117E71321E5
:1048B00057E61C2113E71B2111E71E210FE700BF5C
:1048C00008E0FFFDA08601001D2108E7142148E64D
:1048D000162146E6152144E6172142E62321FEE68D
:1048E00018213EE61B213CE619213AE62221F6E694
:1048F0002121F4E62021F2E61F21F0E6232130E613
:1049000022212EE621212CE620212AE61F2128E65D
:104910001E2126E61D2124E61C2122E62DE9F04F6A
:10492000D0E900A6494B0D46A6EB0A07484907FB0C
:1049300003F38B4283B000F08680012B1F4638BF03
:104940000127FF1881467AD2A5EB0A04002F66D111
:1049500000974FF00F0BB84608EB0403116848F8B6
:104960000410516859609168996055459189927B0E
:1049700099819A7322D008F10F07D346DBF8001013
:10498000DBF80420DBF8080047F8070C47F80F1C99
:1049900047F80B2CBBF80C209BF80E1007F8011CF5
:1049A00027F8032C58460BF10F0BFDF74BFF5D4525
:1049B00007F10F07E2D10F3408EB040BB5421CD00E
:1049C0000BF10F072C4622686068A168B4F80CC090
:1049D00047F80F2CA27B47F80B0C27F803CC47F8BD
:1049E000071C07F8012C20460F34FDF72BFFA642C9
:1049F00007F10F07E7D1751BAB44BAF1000F06D0E2
:104A0000D9F808105046A1EB0A0101F01DFF009BE8
:104A1000C9F80830C9E9008B03B0BDE8F08F8F42B8
:104A200028BF0F46C7EB07173846019202F00EFB6E
:104A3000C319019A0093804600F10F0B8CE7054FD4
:104A4000A5EB0A04F0E7044802F0B0FBEFEEEEEE4F
:104A500088888808F8FFFF7F047700082DE9F04177
:104A6000002790B00446C0E9007739468760542299
:104A70000C30FBF7DDFD5B4B84F8687004F16806D1
:104A800003F11008C4E9186703F120070FCB6D4646
:104A900007C525F8023B1B0C2B7098E80F000DF1A1
:104AA000100EAEE807002EF8023B1B0C8EF800300B
:104AB00097E80F000DF1200CACE807002CF8023B42
:104AC00069461B0C0CA88CF80030FDF7ADFED4E94C
:104AD0000132934256D00CAD07CD186059609A60F0
:104AE0002A88A978997303F10F079A8167600CA847
:104AF000FDF7A8FE04A90CA8FDF796FED4E9013243
:104B0000934245D00CAD07CD186059609A602A8851
:104B1000A978997303F10F079A8167600CA8FDF7D4
:104B200091FE08A90CA8FDF77FFED4E9013293425B
:104B300034D00CAD07CD186059609A602A88A978E6
:104B4000997303F10F069A8166600CA8FDF77AFE4F
:104B5000254B26481B682649DA09A0FB0202A1FB67
:104B600003132448A06712099B0D0021023A023B5F
:104B70002046C4F87D2084F87C10C4F8813010B041
:104B8000BDE8F08119460CAA2046FFF7C7FEAEE744
:104B900019460CAA2046FFF7C1FEBFE70CAA19462A
:104BA0002046FFF7BBFED0E70CA8FDF74BFE206EBA
:104BB000B04203D0A16E013101F046FED4E90056A7
:104BC000AE420AD12068A168091A08B101F03CFE82
:104BD00001F03CFEEBE7E7E7E6E72846FDF732FEAB
:104BE0000F35EDE74075000864000020598B4F0138
:104BF0006BCA5F6B002C014010B5124B04460FCB03
:104C000088B0EC46ACE807002CF8023B1A0C694669
:104C100004A88CF80020FDF707FE04AB07CB616009
:104C200019889B782060A181A260A37304A8FDF776
:104C300009FE204608B010BD2046FDF703FE01F036
:104C400005FE00BF70750008FDF7FEBD0368D3E9DF
:104C500001214FEA620C01EB6200D20745BF51F817
:104C60000C201B681B68D358184700BF38B5044692
:104C700062B1012A0ED0022A10D0032A04D10068A2
:104C800010B10C2101F0E0FD002038BD094B03609C
:104C9000002038BD0B680360002038BD0C200D6873
:104CA00002F0D4F9034695E80700236083E8070083
:104CB000EAE700BF887A0008C36B10B5044623B149
:104CC00000F13401032208469847E06904F1240307
:104CD000984203D0616A013101F0B6FD234653F8D2
:104CE000080B984203D0A168013101F0ADFD2046C8
:104CF00010BD00BF0EB410B5144A83B0044613684B
:104D0000002BFCD1012106AB11601148059A0193DB
:104D10004FF48061FCF7E2F8D4F83120136823F0F7
:104D2000010313601368DB07FCD4094BD360D4F88C
:104D30000D30043393605060136843F00103136037
:104D400003B0BDE8104003B0704700BFC4040020AA
:104D5000A000002010B584B00023044601A90C3047
:104D60008DF80C30FDF70CFF034901AA2046FFF730
:104D7000C1FF04B010BD00BFDC7800080149FFF797
:104D8000B9BF00BFE4780008F8B51A490546FFF737
:104D9000B1FF19492846FFF7ADFF18492846FFF72C
:104DA000A9FF17492846FFF7A5FF16492846FFF730
:104DB000A1FF15492846FFF79DFF14492846FFF734
:104DC00099FF13492846FFF795FFD5E91E46B442DF
:104DD00009D0104FE36954F8442B39462846FFF7B1
:104DE00089FFA642F6D128460949BDE8F840FFF7F9
:104DF00081BF00BF2077000858770008B07700080F
:104E0000007800085C78000898780008D4780008DA
:104E1000EC78000818790008F8B505460C30FDF765
:104E200065FED5E90046B44205D020460F34FDF7B3
:104E30000BFDA642F9D105F13100FDF7C7FE05F1E2
:104E40000D00FDF793FD1C492846FFF753FF1B4952
:104E50002846FFF74FFF1A492846FFF74BFF19492D
:104E60002846FFF747FF18492846FFF743FF174931
:104E70002846FFF73FFF16492846FFF73BFF154935
:104E80002846FFF737FF14492846FFF733FFD5E9D7
:104E90001E46B44209D0114FE36954F8442B3946F9
:104EA0002846FFF727FFA642F6D128460A49BDE863
:104EB000F840FFF71FBF00BFE47800082077000824
:104EC00058770008B0770008007800085C78000880
:104ED00098780008D4780008EC7800081879000861
:104EE000054B5A68920205D5044A4FF40010002180
:104EF000D8601160704700BF00600240C404002009
:104F00001C4B1A68920611D55B68DBB20D2B10B4EE
:104F10000DD0082B1CD07F2B1AD01749174C0A68CC
:104F2000501C1F28A3541DDC086009E07047124B79
:104F3000124C186812490022225401201A6008609D
:104F40000C4A5DF8044B136823F02003136070478C
:104F5000094A1368013B48BF00231360074A002138
:104F6000D154EDE7064B00204FF0FF3208601A6085
:104F7000E6E700BF004400409C000020A40400209D
:104F8000A0040020F8B5D0E90056B54207460FD07E
:104F900005F1080454F8080C844211D0A9681835AA
:104FA000013101F051FCAE4204F11804F2D13E6827
:104FB00026B1B9683046891B01F046FC3846F8BD79
:104FC0001835AE4204F11804E4D13E68F0E700BFA2
:104FD0002DE9F04FD0E900748C4BE51BED1003FB7D
:104FE00005F58B4B9D4285B000F0F380012D924674
:104FF0002A4638BF0122AD1880460E4680F0C38095
:10500000CA1B002D40F08480A946DAF800300193D5
:1050100009EB020B0BF10801DAF804A049F80210C1
:105020000091002B00F0C680BAF10F0FCDF80CA054
:1050300000F2AC80BAF1010F40F0C5801B788BF80C
:105040000830009ACBF804A00023BE4202F80A30D0
:1050500000F0B78009F1080307F108013A4643F868
:10506000083C1068884274D043F8080C90681860B7
:10507000506843F8040C1832B24201F1180103F1F0
:105080001803ECD1A6F11803624ADB1BDB0802FB14
:1050900003F323F06043013303EB430309EBC30342
:1050A000A64203F1180A24D0203306F10800324644
:1050B000116843F8083C814237D043F8081C9168D6
:1050C0001960183252F8141C43F8041CA24200F173
:1050D000180003F11803EBD1A31B4E4A183BDB0861
:1050E00002FB03F323F06043013303EB43030AEBBA
:1050F000C30A2FB1D8F808103846C91B01F0A4FB29
:105100004D44C8E9009AC8F8085005B0BDE8F08FD2
:105110009D4228BF1D4605EB4505ED00284600923F
:1051200001F094FF009A81466FE7016819604168B9
:10513000596081689960C168D960183252F8141CAE
:1051400043F8041CA24200F1180003F11803AFD188
:10515000C2E78868D1F800E0D1F804C0D1F80CA00B
:10516000C3F80CA0C3F800E0C3F804C0986050680E
:1051700043F8040C1832B24201F1180103F118038C
:105180007FF46DAF7EE7244DCA1BC7E7002203A959
:10519000584602F01BF8039BCBF80000CBF8083010
:1051A00052460199FBF72EF9DBF80030DDF80CA030
:1051B000009346E7BAF1000F3FF443AF174801F000
:1051C000F2FF4B466CE7BAF1000F3FF43AAF00989C
:1051D000E6E7134801F0EAFF01F00DFCB9F1000F1A
:1051E00005D02946484601F02FFB01F0F8FEDBF818
:1051F0000000009B8342F8D0DBF80810013101F079
:1052000023FBF2E701F020FC01F020FBABAAAAAAE5
:1052100055555505ABAAAA0AF8FFFF7F2479000867
:10522000047700082DE9F04F8BB0002406AA4B6FDD
:10523000DFF844818460C0E90044CDE904240646D7
:105240000F468DF81840A24605E07B6F1A5D611C81
:10525000002A37D00C461D5D092D02D015F0DF0F56
:105260003CD1414604A802F0E7F80028EDD0D6E989
:1052700001539D4246D005F108002860DDE904B9DC
:10528000BBF1000F54D0B9F10F0FCDF80C903FD8FF
:10529000B9F1010F5CD19BF800302B72C5F8049076
:1052A00000F809A0736818337360059ACDF800A060
:1052B0004346002104A802F01FF87B6F1A5D611CB1
:1052C000002AC7D1049806AB984203D00699013151
:1052D00001F0BAFA30460BB0BDE8F08FDDE9043BCF
:1052E00006AA934218BF069A0BF1010908BF0F22C4
:1052F000914523D803F80B50049BCDF8149003F884
:1053000009A0A2E7294604AA3046FFF761FECCE7D0
:10531000002203A9284601F059FF039B2860AB60D7
:105320004A465946FBF76EF8DDF80C902868B5E759
:10533000B9F1000FB2D00F4801F035FF01230093FF
:1053400000231A46594604A801F09AFF049BD1E7AE
:10535000B9F1000FA2D0E3E7049806AB984203D05E
:105360000699013101F070FA3046FFF70BFE01F0AB
:105370006DFA00BF24790008CC7600082DE9F047CB
:10538000464C84B007462368002BFCD023680133C9
:105390006DD04FF0000A394601A8C4F800A0FFF70D
:1053A00041FFDDE901563E4A731BDB1002FB03F3AC
:1053B00013F0FF032ED0D7E91E48444561D0DFF833
:1053C000EC9044345E1E03E044451ED0019D4434FD
:1053D00054F8402C6B689A42F6D12D6832B154F8DB
:1053E000440C2946FAF7DCFF0028EDD154F82C3C98
:1053F000B3422AD0013328D02A4649463846FFF71F
:1054000079FC44454FF0010AE0D1BAF1000F38D0E1
:10541000DDE90156B5420FD005F1080454F8080C37
:10542000A0421DD0A9681835013101F00DFAB5422E
:1054300004F11804F2D1019E26B103993046891B6C
:1054400001F002FA04B0BDE8F08754F8083CF3B16B
:1054500054F8043CA4F1100098474FF0010AB3E758
:105460001835B54204F11804D8D1019EE4E70D497E
:10547000002320223846236004B0BDE8F047FFF740
:1054800039BC7A6F08493846FFF734FCC0E701F0B1
:1054900090FE01A8FFF776FD01F0D8F9A0040020E6
:1054A000ABAAAAAA50790008907900086C79000884
:1054B000F0B585B00146054601A8FFF7B3FEDDE96A
:1054C0000146B4421CD0164F54F8182B39462846D2
:1054D000FFF710FCA642F7D1DDE90156B5420FD027
:1054E00005F1080454F8080C844211D0A968183555
:1054F000013101F0A9F9AE4204F11804F2D1019E84
:1055000026B103993046891B01F09EF905B0F0BD24
:105510001835AE4204F11804E4D1019EF0E700BF53
:10552000DC7800082DE9F04F034687B0D3F804B0CB
:1055300002900068CD4E01901446ABEB0003CC4ABC
:105540009B1002FB03F3B34200F09A81012B1A4631
:1055500038BF01229B18894680F08E810D1A002BDE
:1055600040F0628103934FF0440A00931E462246A6
:10557000731952F8081B03F108009142705100F0B2
:105580006C817151A1689960226062685A60002242
:10559000E16962602272A2699A6104F1240203F156
:1055A00024009142D86100F04F81D961616A59624B
:1055B0000027E26104F13405226A84F8247027622E
:1055C00095E803001A6204AE03F1340286E8030092
:1055D00092E8030085E8030096E8030082E80300F0
:1055E000D4F83CC0256C1A6CC3F83CC01D64019B08
:1055F000E7639945226476D0009A03F1080802F126
:10560000440503F12404A5F13C0245F8442C54F868
:10561000243C4345AA4600F0C98045F8443C54F870
:105620001C3C45F83C3C54F8203C45F8403CA5F176
:10563000200254F80C3C04F81C7C44E9098745F826
:10564000282C45F82C3C54F8083CA34200F0BF80BD
:1056500045F8283C236845F8203C54F8043C45F8BC
:10566000243CA44644E902470CF8107B45F8087C2A
:105670009CE80300A5F1100386E8030093E803000B
:105680008CE8030096E8030083E80300A369A761A0
:1056900045F8083CD4E9063255F8041CE16145F8A8
:1056A000042C1BB1032261466046984754F8080C4D
:1056B000A04203D02168013101F0C6F854F8240C4F
:1056C000404505F1440508F144085AD054F81C1C23
:1056D000013101F0B9F804F12003994504F14404C3
:1056E00091D10AF1440AD94500F08D800AF10802EF
:1056F00009F124034C46002732E042F8080C53F825
:105700001C0C106043F8241C53F80C1C116153F856
:10571000081C53F8200C03F81C7C02F11C058B427A
:10572000556142F8040C43F8207C32D0516119686D
:10573000D16153F8041C916103F1100103C9D3E94D
:1057400006EC443402F12C055C4502F1440285E884
:10575000030086E8030042E904EC03F1440344D06B
:1057600053F8240C42F8082C04F108018842C4D1F3
:10577000A06810604868506088689060C868D06011
:10578000C0E704F12003994504F144047FF43BAFE2
:10579000A7E7D3F800E0D3F804C09868D96891620D
:1057A000C2F81CE0C2F820C05062C2E7D8F800C0BE
:1057B000D8F80400D8F80810D8F80C3045F8303C78
:1057C00045F83CCC45F8380C45F8341C2BE7D4F8A8
:1057D00000C06068A168E36845F8143C45F820CC37
:1057E00045F81C0C45F8181C37E7A4EB0903214ABF
:1057F000443B9B0802FB03F323F04043013303EBDC
:1058000003130AEB830A019B2BB1029A9168184695
:10581000C91A01F019F8029B009AC3E9002A039AF9
:105820009A6007B0BDE8F08FB34228BF334603EB60
:1058300003139E00304601F009FC82190090039288
:1058400000F1440A064692E6616A5962516899621B
:105850009168D962D1681963AAE6A1689960516814
:10586000D96091681961D16859618DE6E1E1E10182
:10587000F1F0F0F0F1F0F030019B034ECD1AD9E7D2
:10588000024801F093FC00BFC4FFFF7F04770008CB
:1058900070B5D0E90134A34282B00A4644D003F186
:1058A00008041C60844651F8080B88424CD01860EC
:1058B00090689860506858600020C2E900109169B3
:1058C000107203F12404C3E90614D06902F1240123
:1058D00088422ED0D861506A58620024106A18623B
:1058E000C2E9071482F8244002F13406DC6396E82A
:1058F00003006D4603F1340E85E803009EE80300C3
:1059000086E8030095E803008EE80300D16BD963B5
:10591000DCF80410106CD4631C6C146444311864FB
:10592000CCF8041002B070BD1946FFF7FBFD02B0C1
:1059300070BDD2F824E04E688D68C8681863C3F85B
:1059400024E09E62DD62C8E7D2F808E04E688D6808
:10595000C8685861C3F808E0DE601D61AAE700BFAF
:105960002DE9F04FA3B0B34B0793042300228046E8
:1059700007AF06930DAE152311A90BA805978DF857
:1059800020200B96119301F021FCAB4D119B0B9045
:105990000D9304460FCD2060E36028682B792061C9
:1059A0006160A2602375119B0B9A0C934FF0000C61
:1059B00002F803C00C20CDF80CC001F047FB9F4B50
:1059C0000360DDF814909E4B049300229D4B069DCE
:1059D000019013AC08F1780AC0F808800393426084
:1059E0001194B9F1000F00F003830F2D009500F220
:1059F0007582012D40F03A8399F800308DF84C30D3
:105A00002346002212955A55DDF82CB0DDF830906F
:105A100017921AAD1895BBF1000F00F0E482B9F1AE
:105A20000F0FCDF8009000F27682B9F1010F40F02F
:105A300021839BF800308DF868302A460023CDF88A
:105A4000649002F809302093039B4BB10DF1780963
:105A5000022201A948469847049B2193039B209367
:105A600011A95046FFF714FF209B1BB11EA903226A
:105A7000084698471898A84203D01A99013100F0B7
:105A8000E3FE1198A04203D01399013100F0DCFE2F
:105A9000039B1BB101A90322084698470B98B0420B
:105AA00003D00D99013100F0CFFE0598B84203D024
:105AB0000799013100F0C8FE634B05971B68ADF8EC
:105AC0001C301B0C8DF81E3003230022069311A9F5
:105AD00012230BA80B968DF81F20119301F076FB73
:105AE000DFF86CE1119B0B900D938446BEE80F002C
:105AF000CCF80C30BEF80030CCF80000CCF8041024
:105B0000CCF80820ACF81030119B0B9A0C934FF096
