:020000040800F2
:1000000000000220094A0008594A0008594A00081D
:10001000594A0008594A0008594A000800000000DF
:10002000000000000000000000000000594A000825
:10003000594A000800000000594A0008594A0008BF
:10004000594A0008594A0008594A0008594A000804
:10005000594A0008594A0008594A0008594A0008F4
:10006000594A0008594A0008594A0008594A0008E4
:10007000594A0008594A0008594A0008594A0008D4
:10008000594A0008C9310008594A0008594A00086D
:10009000594A0008594A0008594A0008594A0008B4
:1000A000594A0008594A0008594A0008594A0008A4
:1000B000594A0008594A0008594A0008594A000894
:1000C000594A0008594A0008594A0008594A000884
:1000D000594A0008594A0008E9310008594A0008FD
:1000E000594A0008594A0008594A0008594A000864
:1000F000594A0008594A0008594A0008594A000854
:10010000594A0008594A0008594A0008594A000843
:10011000594A0008594A0008594A0008594A000833
:10012000594A0008594A0008594A0008594A000823
:10013000594A00080000000000000000594A000869
:10014000594A0008594A0008594A0008594A000803
:10015000594A0008594A0008594A0008594A0008F3
:10016000594A0008594A0008594A0008594A0008E3
:10017000594A0008594A0008594A0008000000007E
:1001800000000000594A00080000000000000000C4
:10019000594A00080000000000000000594A000809
:1001A000000000000000000000000000594A0008A4
:1001B000594A0008594A0008594A0008594A000893
:0401C000594A000890
:100200000348044B834202D0034B03B118477047A5
:100210007000002070000020000000000548064922
:100220000B1AD90F01EBA301491002D0034B03B104
:100230001847704770000020700000200000000088
:1002400010B5064C237843B9FFF7DAFF044B13B11E
:100250000448AFF300800123237010BD700000201C
:1002600000000000DC57000808B5044B1BB104492E
:100270000448AFF30080BDE80840CFE7000000006D
:1002800074000020DC57000808B5062000F084FB4D
:10029000012002F037FA00BF70B50D4E0D4D761BF0
:1002A000B61006D0002455F8043B01349847A64206
:1002B000F9D1094E094D761B05F090FAB61006D01B
:1002C000002455F8043B01349847A642F9D170BD8B
:1002D0000861000808610008106100080861000852
:1002E000024B0146186800F057BA00BF000000201A
:1002F000024B0146186800F0EDB900BF0000002075
:1003000001F0FF01102A2BDB10F0070F08D010F8C6
:10031000013B013A8B422DD010F0070F42B3F6D1CA
:10032000F0B441EA012141EA014122F007047FF0E3
:1003300000070023F0E80256083C85EA010586EA3A
:10034000010685FA47F5A3FA87F586FA47F6A5FA76
:1003500087F68EB9EED1F0BC01F0FF0102F0070282
:1003600032B110F8013B013A83EA010313B1F8D12D
:100370000020704701387047002D06BF354603380E
:10038000073815F0010F07D1013015F4807F02BF47
:10039000013015F4C03F0130F0BC0138704700BF98
:1003A000032A70B515D940EA010C1CF0030F04466E
:1003B0000B4621D1194620460E680568B54204F166
:1003C000040403F1040317D1043A032A2046194612
:1003D000F0D8541EA2B100F1FF3C013901E0C3186E
:1003E0000CD01CF801EF11F8012F9645A4EB0C037B
:1003F000F5D0AEEB020070BD541EECE7184670BDA0
:10040000104670BD844641EA000313F003036DD12A
:10041000403A41D351F8043B40F8043B51F8043BC7
:1004200040F8043B51F8043B40F8043B51F8043BCE
:1004300040F8043B51F8043B40F8043B51F8043BBE
:1004400040F8043B51F8043B40F8043B51F8043BAE
:1004500040F8043B51F8043B40F8043B51F8043B9E
:1004600040F8043B51F8043B40F8043B51F8043B8E
:1004700040F8043B51F8043B40F8043B51F8043B7E
:1004800040F8043B51F8043B40F8043B51F8043B6E
:1004900040F8043B403ABDD2303211D351F8043B0E
:1004A00040F8043B51F8043B40F8043B51F8043B4E
:1004B00040F8043B51F8043B40F8043B103AEDD2BD
:1004C0000C3205D351F8043B40F8043B043AF9D20E
:1004D000043208D0D2071CBF11F8013B00F8013BE1
:1004E00001D30B8803806046704700BF082A13D3EE
:1004F0008B078DD010F003038AD0C3F10403D21A06
:10050000DB071CBF11F8013B00F8013B80D331F839
:10051000023B20F8023B7BE7043AD9D3013A11F8B9
:10052000013B00F8013BF9D20B7803704B78437024
:100530008B7883706046704788420DD98B18834250
:100540000AD900EB020CBAB1624613F801CD02F8E9
:1005500001CD9942F9D170470F2A0ED8034602F116
:10056000FF3C4AB10CF1010C013B8C4411F8012B0A
:1005700003F8012F6145F9D1704740EA01039B0759
:1005800050D1A2F1100370B501F1200C23F00F053A
:1005900001F1100E00F11004AC441B095EF8105C70
:1005A00044F8105C5EF80C5C44F80C5C5EF8085C87
:1005B00044F8085C5EF8045C44F8045C0EF1100E2C
:1005C000E64504F11004E9D1013312F00C0F01EB00
:1005D000031102F00F0400EB031327D0043C24F0B6
:1005E00003064FEA940C1E441C1F8E465EF8045B03
:1005F00044F8045FB442F9D10CF1010402F00302A3
:1006000003EB840301EB840102F1FF3C4AB10CF1DE
:10061000010C013B8C4411F8012B03F8012F6145BB
:10062000F9D170BD02F1FF3C03469BE72246EBE7A0
:10063000830730B548D0541E002A3FD0CAB20346C3
:1006400001E0013C3AD303F8012B9D07F9D1032CBB
:100650002DD9CDB245EA05250F2C45EA054536D9F9
:10066000A4F1100222F00F0C03F1200EE6444FEA31
:10067000121C03F1100242E9045542E902551032FE
:100680007245F8D10CF1010214F00C0F03EB0212C9
:1006900004F00F0C13D0ACF1040323F00303043374
:1006A000134442F8045B9342FBD10CF003042CB1D9
:1006B000CAB21C4403F8012B9C42FBD130BD6446F6
:1006C0001346002CF4D1F9E703461446BFE71A4657
:1006D000A446E0E7002958D030B551F8043C83B077
:1006E000002BA1F10404B8BFE418019000F066FCEF
:1006F000284A0198136833B1A3420DD9216804EB4D
:10070000010C63452FD06360146003B0BDE8304036
:1007100000F056BCA34210D81A465B68002BF9D1F2
:10072000116802EB010C644519D02FD3636054604B
:1007300003B0BDE8304000F043BC116802EB010C8F
:10074000A44516D022D8216804EB010C6345EDD1F5
:100750001D685B682944C4E900135460D5E7236829
:1007600019441160D1E71D685B682944C4E900138E
:10077000CAE7246821445418A3421160C5D1D3E9C3
:1007800000432144C2E90013BFE770470C23036014
:10079000BBE700BF8C000020F8B5CD1C25F0030599
:1007A00008350C2D38BF0C25002D064623DBA94249
:1007B00021D8254F00F002FC3A6822B3144603E02A
:1007C00063682246FBB11C4623685B1BF8D40B2BE5
:1007D00015D8636894420CBF3B605360304600F00C
:1007E000EFFB04F10B00231D20F00700C21A01D01B
:1007F0001B1AA350F8BD0C2333600020F8BD236002
:100800001C442560EAE77968C9B12946304600F002
:100810001DF8431C0CD0C41C24F00304A04205D0D6
:10082000211A304600F012F8013001D02560D5E7DA
:100830000C233046336000F0C3FB0020F8BD304687
:1008400000F004F87860E0E78C00002038B5074D30
:100850000022044608462A6001F046FF431C00D0EF
:1008600038BD2B68002BFBD0236038BD94000020DE
:1008700038B5446C0CB1002038BD80210546FFF727
:100880008BFF0246686430B1031F7C3243F8044F8B
:100890009342FBD1EFE74FF0FF3038BD1F29F8B589
:1008A000054608D8466C0C4617464EB156F824004B
:1008B00046F82470F8BD162303604FF0FF30F8BDF2
:1008C0008021FFF769FF0646686440B1031F00F10D
:1008D0007C05002143F8041F9D42FBD1E6E74FF061
:1008E000FF30F8BD1F2938B5054620D8426C0C46AC
:1008F0006AB152F8213053B1012B16D0591C10D0D7
:100900000025204642F824509847284638BD2846FE
:1009100000F0F8F8224601462846BDE8384000F0CD
:10092000DBB816230360012038BD002038BD162334
:1009300003604FF0FF3038BD1F292AD8426C38B50C
:100940000C46054682B152F8243002EB84024BB1CA
:10095000591C19D0012B15D0002520461560984749
:10096000284638BD012038BD8021FFF715FF02461B
:10097000686458B1031F00217C3043F8041F98427B
:10098000FBD1E0E7032038BD022038BD4FF0FF3037
:1009900038BD4FF0FF30704738B5144B1F281D6825
:1009A0001FD86A6C044662B152F820304BB1012B5B
:1009B00015D0591C0FD0002542F8205098472846E2
:1009C00038BD284600F09EF8224601462846BDE87C
:1009D000384000F081B816232B60012038BD00207C
:1009E00038BD16232B604FF0FF3038BD00000020CB
:1009F000124B1F2870B51E6808D80D46716C04464E
:100A000049B151F8240041F8245070BD16233360D9
:100A10004FF0FF3070BD80213046FFF7BDFE01462C
:100A2000706440B1031F00F17C0C002243F8042FD6
:100A30006345FBD1E5E74FF0FF3070BD00000020BB
:100A400038B50B4B1D686C6C0CB1002038BD802193
:100A50002846FFF7A1FE686438B1031F00F17C024D
:100A600043F8044F9342FBD1EFE74FF0FF3038BD1E
:100A70000000002038B5174B1F281D6826D86A6C67
:100A8000044682B152F8243002EB84024BB1591C67
:100A90001AD0012B16D0002520461560984728460D
:100AA00038BD012038BD80212846FFF775FE02467B
:100AB000686458B1031F00217C3043F8041F83424F
:100AC000FBD1DFE7032038BD022038BD4FF0FF30F7
:100AD00038BD00BF0000002070B50C46084D03462D
:100AE0000026204611461C462E6001F0F5FD431CF1
:100AF00000D070BD2B68002BFBD0236070BD00BF01
:100B00009400002001F0E0BD0000000000000000A3
:100B100000000000000000000000000000000000D5
:100B2000A2EB0300704700BF02780B78012A28BFB0
:100B30009A42F5D16DE9044540EA0104CDE9026726
:100B40006FF0000C4FEA447212B380EA010414F013
:100B5000070F6AD100F0070420F0070004F0030536
:100B600021F007014FEAC505F0E8042314F0040F53
:100B7000F1E804670CFA05F462EA040266EA040686
:100B80000AD063EA0403624667EA0407664603E0A4
:100B9000F0E80423F1E8046782FA4CF582EA0604DF
:100BA000A4FA8CF46CBB83FA4CF583EA0705A5FA2A
:100BB0008CF595B950E9022351E9026782FA4CF5A8
:100BC00082EA0604A4FA8CF483FA4CF583EA07055A
:100BD000A5FA8CF52543DBD09CB92DBAB5FA85F47E
:100BE00024F0070427FA04F1DDE9026723FA04F38D
:100BF00003F0FF0001F0FF01FDE80445A0EB010058
:100C0000704724BAB4FA84F424F0070426FA04F1F5
:100C1000DDE9026722FA04F202F0FF0001F0FF01B1
:100C2000FDE80445A0EB0100704714F0030F3CD130
:100C300010F0030428D150F8082B51F8083B82FA31
:100C40004CF582EA0305A5FA8CF55DB950F8042C41
:100C500051F8043C82FA4CF582EA0305A5FA8CF5BA
:100C6000002DE8D02DBAB5FA85F424F0070423FA54
:100C700004F122FA04F202F0FF0001F0FF01FDE8A6
:100C80000445A0EB010070474FEAC40420F00300C4
:100C900050F8082B21F0030151F8083B0CFA04F43A
:100CA00062EA040263EA0403C9E710F003041AD0FD
:100CB000A1EB040120F00300E40750F8042B06D058
:100CC0000FD28B785FFAA2F4E41A06D12BB1CB785D
:100CD0005FFAB2F4E41A00D11BB920465DF8104B5C
:100CE000704701F1040150F8042BCC0721F00301F7
:100CF00051F8043B48D824D222F07F4482FA4CF5C4
:100D000094EA1325A5FA8CF50AD165B951F8043B8C
:100D100084EA0204B4EB036F0ED150F8042BEBE726
:100D20004FEA132355E035F07F454DD10878FDE8B3
:100D30000445C0F1000070474FEA126203F0FF0360
:100D400047E002EA1C4482FA4CF594EA1345A5FAFE
:100D50008CF50AD165B951F8043B84EA0204B4EB7E
:100D6000034F0CD150F8042BEBE74FEA134330E06C
:100D700015EA1C4528D10B884FEA124229E04FEAB8
:100D8000124203EA1C4324E002F0FF0482FA4CF50D
:100D900094EA1365A5FA8CF50AD165B951F8043BBC
:100DA00084EA0204B4EB032F09D150F8042BEBE7DB
:100DB0004FEA13630DE015F0FF0F05D10B684FEA02
:100DC000122223F07F4304E04FF00000FDE80445C9
:100DD000704712BA1BBA82FA4CF482EA0304A4FAEE
:100DE0008CF5B5FA85F402FA04F203FA04F34FEA3B
:100DF0001260FDE80445A0EB13607047000000009E
:100E000090F800F06DE9024520F007016FF0000C4A
:100E100010F0070491F820F040F049804FF00004F2
:100E20006FF00700D1E9002391F840F000F10800CD
:100E300082FA4CF2A4FA8CF283FA4CF3A2FA8CF305
:100E40004BBBD1E9022382FA4CF200F10800A4FA6C
:100E50008CF283FA4CF3A2FA8CF3E3B9D1E90423C0
:100E600082FA4CF200F10800A4FA8CF283FA4CF3F7
:100E7000A2FA8CF37BB9D1E9062301F1200182FAB1
:100E80004CF200F10800A4FA8CF283FA4CF3A2FAB7
:100E90008CF3002BC6D0002A04BF04301A4612BAC5
:100EA000B2FA82F2FDE8024500EBD2007047D1E9C8
:100EB000002304F00305C4F100004FEAC50514F057
:100EC000040F91F840F00CFA05F562EA05021CBF28
:100ED00063EA050362464FF00004A9E710B51A4C17
:100EE000002924689AB02ADB009004904FF4027025
:100EF000ADF80C0013D001394FF6FF700291059147
:100F0000ADF80E006946204600F03AF9421C01DABD
:100F10008B232360009B00221A701AB010BD4FF67D
:100F2000FF7002910591ADF80E006946204600F071
:100F300027F9431C01DA8B2323601AB010BD8B23E1
:100F400023604FF0FF30F8E70000002030B5141E9A
:100F50009BB005462CDB4FF4027200910491ADF872
:100F60000C2014D04FF6FF711A46013CADF80E105C
:100F70001E9B02946946059400F002F9421C01DAB6
:100F80008B232B60009B00221A701BB030BD4FF6E4
:100F9000FF711A46ADF80E101E9B02946946059427
:100FA00000F0EEF8431C01DA8B232B601BB030BD40
:100FB0008B2303604FF0FF30F8E700BF704700BF9E
:100FC000704700BF2DE9F0478F689F420C461D46D1
:100FD000164638D88246888910F4906F0ED108687A
:100FE0003D462A463146FFF7A7FAA2682368D21B7E
:100FF0002B44A26023600020BDE8F0874B6909699B
:1010000003EB4308236808EBD878A3EB01096B1CBA
:101010004FEA68084B444345424684BF98464246DF
:10102000430513D511465046FFF7B6FB074608B3F4
:1010300021694A46FFF7E6F9A38923F4906343F058
:101040008003A38107E008681F46CAE7504600F006
:101050009FFB074650B107EB0900A8EB0903276186
:10106000C4F81480A36020602F46BAE72169504677
:10107000FFF730FB0C23CAF80030A38943F040038C
:101080004FF0FF30A381B7E72DE9F04F936883B0AD
:101090009146002B6ED017688D6880460C46086814
:1010A000083744E0A38913F4906F2ED0D4E90415D7
:1010B000A0EB010A05EB450505EBD5750AEB06002B
:1010C0006D100130A8422A4684BF05462A465B05BA
:1010D00037D511464046FFF75FFB00283BD052460C
:1010E00021690190FFF78EF9A289019B22F4906299
:1010F00042F08002A281A5EB0A0203EB0A006561BF
:10110000A260236120603546B24659465246FFF739
:1011100013FAA068D9F808102368451B8E1B03EB4F
:101120000A00A5602060C9F808601EB3083757E9B7
:1011300002B6002EFAD0B542AA46B3D93546B24619
:10114000E3E7404600F024FB03460028D3D12169A1
:101150004046FFF7BFFA0C23C8F80030A3890022ED
:1011600043F040034FF0FF30A381C9E9012203B0EF
:10117000BDE8F08F0020C9F8040003B0BDE8F08F8F
:101180002DE9F04F92468A8915069DB08846814622
:101190001C4603D50A69002A00F0EF80002209925C
:1011A0009AF800307E4D039420228DF829203022B9
:1011B0008DF82A200126002B72D0544603E014F843
:1011C000013F002B76D0252BF9D1B4EB0A0B74D15B
:1011D0002278002A64D000234FF0FF32CDE90523A6
:1011E000049307938DF853301A93013404E0049A62
:1011F00006FA03F313430493A246052214F8011BD5
:101200002846FFF77DF8431B0028F0D1049BD80641
:1012100044BF20228DF8532019079AF8001044BFCC
:101220002B228DF853202A2954D1039A11680432B5
:10123000002903927CDB07919AF801100AF1010A58
:101240002E2959D0574C03222046FFF759F840B1B8
:10125000049B001B402404FA00F0034304930AF1AA
:10126000010A1AF8011B50488DF828100622FFF7D2
:1012700047F8002862D04D4B002B52D003AA0092B1
:101280004B4B424604A94846AFF3008007467A1C00
:1012900006D0099B3B4409939AF80030002B8CD16F
:1012A000B8F80C305B0654BF09984FF0FF301DB002
:1012B000BDE8F08FB4EB0A0BF2D05B4652464146D4
:1012C0004846FFF77FFE0130EAD0099B22785B4455
:1012D00009937EE7A1F13002092AB1D8079B1AF8D9
:1012E000011F03EB830302EB4303A1F13002092A40
:1012F000F5D92E290793A5D19AF801102A2927D1CB
:10130000039B9AF802101A6805920433002A0AF126
:1013100002000393B8BF4FF0FF338246B8BF059376
:1013200090E7039B073323F0070308330393B0E7E9
:10133000494243F00203079104937DE703AA009218
:101340001B4B424604A9484600F0CAF807469EE7F0
:10135000A1F130020023092A05930AF1010A3FF6A0
:1013600071AF1AF8011F03EB830302EB4303A1F1F2
:101370003002092AF5D9059364E74021FFF70CFAFA
:10138000C8F80000C8F8100018B14022C8F81420AE
:1013900004E70C23C9F800304FF0FF3087E700BFA7
:1013A0005C5D0008645D0008685D000800000000E6
:1013B000C50F00082DE9F84F92461F460A698B6851
:1013C000DDF828909A42B8BF1A46CAF8002091F872
:1013D00043300C46064613B10132CAF80020226899
:1013E00091065DD5DAF800300233CAF80030226881
:1013F00012F0060F11461ED1E168CB1A002BD8BFA0
:10140000114618DD04F1190B4FF0000805E0E568FE
:10141000DAF80030ED1A45450CDD01235A4639460D
:101420003046C847013008F10108F0D14FF0FF30D5
:10143000BDE8F88F216894F84330003B18BF0123C2
:101440008A060AD5E1185A1C302081F8430022444C
:1014500094F8451082F84310023304F143023946F0
:101460003046C8470130E1D0236803F00603042B5F
:101470001DD0A3682269934225DD4FF000089B1A16
:1014800098441A34002501E045451CDA0123224620
:1014900039463046C847013005F10105F4D1C5E7AA
:1014A00012F0060F12D0003B18BF0123D5E7DAF87F
:1014B0000030E1682269C91AA368934221EAE17801
:1014C000DDDC0029DDDC0020BDE8F88FE168DAF81A
:1014D0000030CB1A002BD8BF114693DCABE700BF1E
:1014E0002DE9F0470C4684B09046227E0C990746C1
:1014F000994604F14300002A33D0A2F15803DDB22B
:10150000202D67D8202B65D8DFE813F0DE006400BB
:1015100064006400640064006400640064006400AB
:101520006400A3006E0064006400640064006E0048
:10153000640064006400640021007F00C000640057
:101540006400AE0064007F0064006400E50023686E
:101550001A0640F104810B6862691D1D0D601B684D
:101560001A60002382462361CDF80090434603AA07
:1015700021463846FFF71EFF013020D0236952462E
:1015800041463846C847013019D02368E068039EB9
:101590009B0719D5831B002B16DD04F1190A0025C2
:1015A00004E0E068039E831BAB420DDD012352463D
:1015B00041463846C847013005F10105F1D14FF0E9
:1015C000FF3004B0BDE8F087B042B8BF304604B089
:1015D000BDE8F087012384F84220236104F1420A28
:1015E000002384F84330BFE723681A0602D45E065E
:1015F00000F1C1800D682A6804350D601546002A87
:101600006BDBDFF884C10A2610E023681D0640F179
:101610009C800B681D1D0D601D68DFF86CC16F2A72
:101620000CBF08260A26002384F843306268A260B3
:10163000002A7FDB236823F004032360002D5BD1A5
:10164000002A79D18246082E65D0A0EB0A002061DD
:101650008AE70B680122186804330B6004F1420A20
:1016600084F842002261BBE70B686268181D0860BD
:10167000D3F800A000215046FEF742FE002800F0FB
:101680008180A0EB0A0060602061A9E7236843F035
:10169000200323607822DFF8F4C084F845200A682C
:1016A000151D0D601D0643D4590641D51588DE076A
:1016B00044BF43F020032360002D44D1236823F06E
:1016C000200323601026AEE7582384F84530DFF866
:1016D000B8C02368E3E72368DCE76268A2602D21D5
:1016E000002AC5F1000584F8431002DB23F004034F
:1016F0002360DFF894C00A268246B5FBF6F306FBAA
:1017000013512A461CF801100AF8011DB2421D4669
:10171000F3D2082E99D12368D90796D56268236938
:101720009A4292DC30230AF8013C0AF1FF3A8CE736
:101730001568BCE7002DDFD19CF8003084F84230FA
:1017400004F1420A7FE710266DE713F0400F0B68A3
:1017500003F104050D600CBF1D681D885DE713F0E3
:10176000400F0B68626903F104050D601B6814BF2C
:101770001A801A60F5E60A68B2F9005004320A606D
:101780002A463CE760687FE7705D0008845D0008DA
:10179000F8B51446F9B1CAB106460D4600F020F876
:1017A000A04202D32F463846F8BD21463046FEF708
:1017B000F3FF07460028F6D022462946FEF722FE10
:1017C00030462946FEF786FF3846F8BD2746FEF725
:1017D00081FF3846F8BDBDE8F8401146FEF7DCBF92
:1017E00051F8040C0028A0F10400BCBF0B58C0182D
:1017F000704700BF03685A004CBF43F0004323F01A
:1018000000431844704700BF2DE9F84329B34F1E29
:10181000044615463E464FF0000808EB060101EB72
:10182000D171491004EBC1094846FFF7E3FF0346B5
:10183000C80008308F42204409D0AB4209D8FFF7D6
:10184000D9FF0138A8420AD201F10108E5E7AB420D
:1018500005D9884501D04E1EDFE74FF00009484604
:10186000BDE8F883012807D0022807D0044B0028E0
:101870000CBF184600207047024870470248704766
:101880003D1F0008411F0008451F000830B5234BCD
:1018900083B004468D1E3BB301A92846AFF30080F8
:1018A000E8B101992A46FFF7AFFF0146B8B1FFF74B
:1018B000A1FF4B68A064012B2CD0002B01F1040088
:1018C00024DBFFF797FF0023C4E913030368002B11
:1018D00011DBFFF78FFF2061002003B030BD002334
:1018E0000920236103B030BD0D4B0E49C91AC91040
:1018F00018460191D6E7C3F30360FFF7B3FF002852
:10190000206114BF0020092003B030BD0123C4E9C9
:101910001303DBE7002323610520DEE7000000005E
:10192000885F0008086100080368DA0710B50446FC
:1019300006D49B0700F1480009D500F05BFC236842
:10194000590709D51A070ED5DB0613D510BD00F0CF
:1019500049FC23685907F5D404F1D00000F052FC8B
:1019600023681A07F0D404F5A87000F053FC23682C
:10197000DB06EBD404F5E870BDE8104000F08EBC47
:10198000092070470346006800B11844704700BF43
:10199000704700BF70B504460E46316C2046FFF715
:1019A00075FF054688B9326C62612369324621466B
:1019B000012098470828F0D0072806D12846316C26
:1019C000FFF7E6FF301D00F001FCFEF75DFC00BFF5
:1019D0002DE9F0470D1DD0F80C80D0F8189007467F
:1019E00014460FCDADF5727D0DF10C0CACE80F0077
:1019F0000FCDACE80F000FCDACE80F0095E80F005D
:101A000002AE4FF0000E8CE80F00C6F800E020E0B8
:101A1000336C7B614FF4F07231467AA8FEF7F2FC2A
:101A20003B697AAA394650469847889B7364214699
:101A3000CDE9006905463B463A460120C0470446C9
:101A4000E0B94FF4F0727AA93046FEF7DBFC082DBE
:101A50001AD1316C3846FFF719FF09345FFA84FA5E
:101A600005460028D4D0B36B73643A46CDE90069CB
:101A70003B464AF010010120C04700B10925284625
:101A80000DF5727DBDE8F087072DF7D12046316C4A
:101A9000FFF77EFF03A800F099FB00BF406C704782
:101AA000F0B5CB6B0B6401F1040C0E460546BCE8A7
:101AB0000F00F9B001AC0FC4BCE80F000FC4BCE8C4
:101AC0000F000FC49CE80F004FF0FF3784E80F00B1
:101AD000009706E02B696A4629469847082804467D
:101AE00008D110992846FFF7D1FE0028F2D009202E
:101AF00079B0F0BD6846FFF717FF062CF7D13146E5
:101B00002846FFF747FF00BFC160D96B82611964A7
:101B1000002219465CE700BF70B5C66843690B64D4
:101B2000AEB903690A4604460D46014602209847AD
:101B3000072805D008280FD129462046FFF72AFF9D
:101B40003046296CFFF724FF281D00F03FFB0122DF
:101B5000FFF73EFFFEF798FBFEF796FBC2681AB14F
:101B6000CA6B0A64002233E79AE700BF704700BFE0
:101B7000836801460BB1012018477047012912D034
:101B800009D873B90F2A0CD800EB820218465368A3
:101B9000009A136070470339012994BF0120022085
:101BA0007047022070470846704700BF00B585B0F7
:101BB0000A46002303A900911946FFF7DFFF0398A7
:101BC00005B05DF804FB00BF012912D009D873B934
:101BD0000F2A0CD800EB8200009A12684260184667
:101BE00070470339012994BF012002207047022069
:101BF00070470846704700BF10B584B0002303AC9F
:101C0000039200940A461946FFF7DEFF04B010BDA8
:101C100070B5D36B136402F1040C05460C46BCE8A6
:101C20000F00ADF50E7D0DF15C0EAEE80F00BCE8C7
:101C30000F00AEE80F00BCE80F00AEE80F009CE814
:101C40000F004FF0FF368EE80F00169610E0FFF7FA
:101C5000D3FF214616A8A847034616AA69460820BE
:101C600083B9049B9847052806460CD0092809D05B
:101C700026996846FFF70AFE03466A460C2116A815
:101C8000002BE4D0092616A8FFF74EFE30460DF5CE
:101C90000E7D70BD2DE9F04FCC6C89B01E4654F816
:101CA000043B06940D46174600F00308002E79D039
:101CB0001A0C1B0405938DF81D200223D2B204EBED
:101CC00082048DF81C302B6DB8F1020F08BFAC6B8D
:101CD00013F001030CD005A9384600F079FB18B9C0
:101CE000082009B0BDE8F08F092009B0BDE8F08FE9
:101CF000D4F800A0BAF1000FEDD0019300F0080372
:101D00000293022E4AD0B4F800A0B4F80290043432
:101D1000AB6C29F0010B0F2138469B44FFF746FFBF
:101D2000834539D82AF001039B44834594BF0020A2
:101D300001204FEA490303F002030AF0010A43EAD3
:101D40000A03012B49D0022B32D0002BCCD1B8F1A1
:101D5000000F02D0002840F0CD800434D4F800A059
:101D6000BAF1000FCDD105A9384600F031FB0028AB
:101D7000BAD1019B002BB3D00F213846FFF716FFD5
:101D80000E2102463846FFF737FF38466A4A0F21D0
:101D9000FFF732FF0720A8E70020CAE7D4F8049035
:101DA0000834B5E71B0205930323ADF81C308AE71E
:101DB000236823F0004BB8F1000F45D128B1029AF7
:101DC000002A5CD0BBF1000F74D0002B00DA043481
:101DD0000BF1010B04EB8B04C0E7B8F1000F19D134
:101DE000B0B163682268991C4FEAD2723FF47CAFAD
:101DF00005F158010133049100F09080201DFFF798
:101E0000C1FD04AB0146284602F0C0FE00285BD1AC
:101E10000834A3E70D213846D5F82090FFF7C6FE19
:101E20008145F5D1AB6A9C42F2D12046FFF7E2FC36
:101E30000F2102463846FFF7DFFE38462A460021CA
:101E4000FFF7DAFE072050E70D213846D5F820903D
:101E5000FFF7ACFE814501D02368B6E7AB6A9C4230
:101E6000FAD104230022C5E90B23E318C5F828B0F2
:101E70006B632368002B59DB01230193A8E705F16D
:101E80005803CDF80C8004F1040AB04691461E4672
:101E90000EE050460496FFF775FD0022014604ABA4
:101EA000284609F101090AF1040A02F06FFEE0B9BF
:101EB000D945EED10D213846FFF778FE049BAC6280
:101EC000C5E90803062010E781460D213846FFF7D3
:101ED0006DFEB9F1020F286225D12B46049A43F812
:101EE0002C2F6B62AC620620FFE646462368DDF8C5
:101EF0000C806AE72046FFF77DFC04340246AC63A1
:101F00002846144602F0A0FE00283FF4EDAE384605
:101F100022460F21FFF770FE0720E6E60D21384626
:101F2000FFF744FE2862049B6B62DBE70BF10100C4
:101F300004EB80007AE700BF995700080023A9E668
:101F40000123A7E60223A5E62DE9F0430646C3B028
:101F500015461C46042900F2BF80DFE801F09E57B9
:101F6000BD2D0300002C40F0B780102A00F2B48091
:101F70000368D80600F1F98020AF384600F098F9E0
:101F8000B46B394600234FF0010C0CFA03F22A42DD
:101F9000204603F1010303D050F8042B0A600446E5
:101FA000042B01F10401F0D13846B46300F076F956
:101FB000002043B0BDE8F083032C40F08D8094B244
:101FC00004EB1243102B4FEA124500F285800368A0
:101FD0001F0700F1D28020AF384600F03DF9B26B08
:101FE00007EBC50154B10B46D01A01EBC401E40064
:101FF0001D5843F8045B8B42FAD122443846B26341
:1020000000F008F9002043B0BDE8F083012C4FEA4E
:10201000124895B25CD0052C5ED108EB0509B9F1E8
:10202000200F59D8B8F10F0F79D9A946002D40F0EB
:102030008A80B36B6DB320AF4FF0000907EBC80780
:10204000043F03EBC50553F8041B47F8041FAB42DC
:10205000F9D1B9F1000F0FD06F464146102938BFB2
:10206000102107EBC101843903EBC90553F8040BB8
:1020700041F8040FAB42F9D1012C00F08680B8F191
:102080000F0FB56347D9B9F1000F02D0684600F0D1
:10209000B9F8002043B0BDE8F083ECB9806B23466B
:1020A0001FFA82FC0124371D04FA03F212EA0C0F16
:1020B000014604D051F8042B47F823200846013389
:1020C000102BF1D115F40055E3D1B063284604E09C
:1020D00008EB0503102B03D9022043B0BDE8F083C1
:1020E000B8F10F0FF8D83368DA0706D5304623F079
:1020F000030340F8483B00F079F820AF384600F081
:1021000075F8B36B002D97D11D460435B56338467D
:1021100000F068F8BDE720A800F06CF8B3E7B9F16B
:10212000100F40D9A9F110093368D90708D523F059
:102130000103304643F0020340F8483B00F05EF8EC
:10214000B9F1000F32D033685A0720D4B8F10F0F1D
:1021500025D96F463846C8F1100500F057F8002D14
:10216000B36B7FF77AAF20AF68E723F010033360DB
:1021700006F5E87000F09CF8FEE623F00803036023
:1021800000F5A87000F068F825E720AFBDE73046FD
:1021900023F0040340F8D03B00F038F8D6E720A83D
:1021A00000F02CF8D5E74FF00009BDE7B8F10F0FAC
:1021B0003FF63FAF20AF384600F020F8B36B002D5C
:1021C0007FF43AAF384600F015F862E700F13401C9
:1021D00091E838009C46A6464CF8045D90E8FF0F55
:1021E000E54600BD90EC210B704700BF80EC210B51
:1021F000704700BF90EC200B704700BF80EC200BB5
:10220000704700BFD0EC200B704700BFC0EC200B24
:10221000704700BFF0EC0201F0EC0211F0EC02217B
:10222000F0EC0231F0EC0241F0EC0251F0EC026112
:10223000F0EC0271F0EC0281F0EC0291F0EC02A102
:10224000F0EC02B1F0EC02C1F0EC02D1F0EC02E1F2
:10225000F0EC02F1704700BFE0EC0201E0EC02118B
:10226000E0EC0221E0EC0231E0EC0241E0EC025152
:10227000E0EC0261E0EC0271E0EC0281E0EC029142
:10228000E0EC02A1E0EC02B1E0EC02C1E0EC02D132
:10229000E0EC02E1E0EC02F1704700BFB0FC01812C
:1022A000B0FC0191B0FC01A1B0FC01B1704700BFCE
:1022B000A0FC0181A0FC0191A0FC01A1A0FC01B146
:1022C000704700BFEC4600B52DE900502DE9FF1F17
:1022D0004FF000032DE90C0001A9FFF7E1FBDDF849
:1022E00040E012B0704700BFEC4600B52DE9005049
:1022F0002DE9FF1F4FF000032DE90C0001A9FFF7A6
:102300000BFCDDF840E012B0704700BFEC4600B5B2
:102310002DE900502DE9FF1F4FF000032DE90C00BF
:1023200001A9FFF71BFCDDF840E012B0704700BFC9
:10233000EC4600B52DE900502DE9FF1F4FF00003DA
:102340002DE90C0001ABFFF7DFFBDDF840E012B038
:10235000704700BFEC4600B52DE900502DE9FF1F86
:102360004FF000032DE90C0001AAFFF751FCDDF846
:1023700040E012B0704700BF027A03467AB9427A51
:10238000A2B14168013A10B44272086803220C1DE0
:102390001A7202025C60000E10BC1A60704700687E
:1023A000013A1A7202021A60000E7047B02070479C
:1023B00000B585B0002303AA009219460C22FFF74E
:1023C000DDFB039805B05DF804FB00BFF0E700BF3C
:1023D0002DE9F043054685B00E464FF00008304623
:1023E000FFF7CAFFB028044600F0BA80070620D5E0
:1023F00000F0F003802B4DD0902B36D0A02B60D076
:10240000B02B74D0C02B00F08B8000F0F803D02BE1
:102410000BD100F007020132052342F40022012112
:102420002846FFF791FD0028D9D0092005B0BDE866
:10243000F0838300DBB21F1D0DF10C090023194648
:10244000CDF800900D222846FFF798FB039BCDF8AE
:10245000009060064CBFDF1BFF1800230D221946B9
:1024600028460397FFF7B0FBB9E700F00D030D2BEB
:10247000DBD003AF002300F00F0219460097284677
:10248000FFF77CFB002300970D2219462846FFF733
:102490009BFBA4E73046FFF76FFF24022043B0F513
:1024A000004FC2D004010023A2B219462846FFF70C
:1024B0004BFD0028B9D114F4004F18BF4FF00108AC
:1024C0008DE7C24302F007034FF47F621A41010710
:1024D00002F47F624FF0000348BF42F48042194685
:1024E0002846FFF731FD00283FF479AF9DE7B1287A
:1024F0003BD0B22800F09380B32841D000F0FC0319
:10250000B42B92D000F007020132012342F40022E2
:1025100019462846FFF718FD00283FF460AF84E70E
:10252000C6284AD0C72854D000F0F803C02B63D087
:10253000C82868D0C9287FF478AF3046FFF71CFF61
:10254000020300F00F0002F4702201300243012167
:1025500005232846FFF7F8FC00283FF440AF64E766
:10256000B8F1000F18D0002060E73046FFF704FFF5
:10257000024600283FF459AF10F0F003C8D054E7EA
:102580003046FFF7F9FE020300F00F03013302F4B7
:1025900070221A430123BBE703AC43460E22414697
:1025A00000942846FFF7EAFA009443460F2241467A
:1025B0002846FFF709FB404638E73046FFF7DCFEC8
:1025C000020300F00F03013302F470221A430323C5
:1025D0009EE73046FFF7D0FE024600283FF425AFC5
:1025E00010F0F0037FF421AF04212846FFF7ACFC84
:1025F00000283FF4F4AE18E700F00F020132032385
:1026000042F4202284E73046FFF7B6FE00F0F002E5
:1026100000F00F031032013343EA023297E7002340
:102620000DF10C090D221946CDF800902846FFF750
:10263000A5FA3046FFF7A0FE02064FF002040CD5C3
:10264000039B00F07F00A040184403903046FFF742
:1026500093FE030604F10704F2D4039BCDF8009027
:1026600000F07F02A24003F501731A440023039295
:1026700019460D222846FFF7A7FAB0E610B5C26C3E
:10268000536884B04FF0030C08321C0208461B0E3E
:1026900001A9019402928DF80CC08DF80D30FFF75E
:1026A00097FE04B010BD00BF08B5FFF78FFE806C29
:1026B00008BD00BF08B5FFF789FEC06CC3790233BF
:1026C00000EB830008BD00BF024B58221A604FF098
:1026D000FF30704794000020024B58221A604FF0E0
:1026E000FF30704794000020044A05491368002B0E
:1026F00008BF0B4618441060184670479800002029
:1027000068010020FEE700BF034AD2F8883043F496
:102710007003C2F88830704700ED00E0164A9368F5
:1027200003F00C03042B0CD0082B0CD0134B124AD3
:10273000134892681349C2F30312825CD3400B60C2
:102740007047114BF3E75368516813F4800F01F0A1
:102750003F01536814BF0C4A084AB2FBF1F1064A24
:102760005268C2F30142C3F38813013201FB03F341
:102770005200B3FBF2F3DAE7003802400024F40021
:10278000645800086400002000127A00234B9A6805
:1027900042F4A05210B59A609A6842F400429A60DE
:1027A0001A6822F4A02242F4803282B01A601A68B9
:1027B0009203FCD55A681A4C42F480025A605A6857
:1027C00022F03F025A605A6842F004025A605A6886
:1027D00022F4FF4222F040025A605A6842EA811114
:1027E000596059680D4A21F440315960216841F41B
:1027F000827141F001012160196841F08071196016
:1028000013689B01FCD59368019043F00203936029
:10281000FFF784FF019802B010BD00BF00380240EE
:10282000003C0240704700BF0A6802604A6842608C
:102830008A89D1F808C082818A7BC0F808C0827377
:10284000704700BF704700BF0379413B2DE9F0435B
:10285000032B57D8DFE803F078685802424A136B1D
:1028600043F00803136300250C2402214023057064
:102870004470A2F530528170C370D0F80570002307
:1028800003260F2503F0070127FA03F44FEA430E4E
:102890008900E40706FA0EF805FA01F92DD5146847
:1028A00024EA080414609468072BCCBF4FF0040C92
:1028B0004FF0000C944424EA08049460DCF8208073
:1028C000847A28EA0908CCF82080D2F8008004FA3B
:1028D0000EF444EA08041460447AD2F8088004FA3A
:1028E0000EFE4EEA08049460D0F80BE0DCF82040BD
:1028F0000EFA01F12143CCF820100133102BC1D185
:1029000000235361BDE8F083174A136B43F00403BF
:102910001363002508240221402305704470A2F5AA
:1029200040528170C370A8E70F4A136B43F0020353
:102930001363002504240221402305704470A2F58E
:1029400050528170C37098E7074A136B43F001033C
:102950001363002102244023A2F5605201704170EC
:102960008470C37089E700BF0038024030B5416809
:102970004B1E052B4BD8DFE803F04B5C6C7D8F03BF
:10298000514A536C142143F0200353640025012461
:10299000402241704D4B057002218470C27080242A
:1029A0000D46026A1AB15A6942F080025A61C26940
:1029B0001AB15A6942F040025A61454A1268012D23
:1029C0004FEAC2027AD0D0F808C04FEA8C1CB2FBA2
:1029D000FCF29A60D0F818C0D0F814E0DD684FEA35
:1029E000CC1242EA4E122A43DA605EEA0C021CBFA5
:1029F000384A42F821400269C068D968D20042EAE8
:102A000080020A43DA60DA6842F40052DA6030BDCC
:102A10002D4A536C43F01003536400251023012406
:102A200040220570437084702B4BC2702024022515
:102A3000B7E725490B6C43F400330B6400224425AF
:102A4000402401214570254B02708270C4700D46F0
:102A5000A7E71D490B6C43F480230B640022482533
:102A6000402401214570C4701D4B02708270802487
:102A70000D4696E714490B6C43F400230B640022C7
:102A80004C25402401214570C470164B02708270A1
:102A90004FF480140D4684E70B490B6C43F480130C
:102AA0000B6400225025402401214570C4700E4B58
:102AB000027082704FF400140D4672E785686D0154
:102AC000B2FBF5F29A6085E700380240001401403D
:102AD0006400002000E100E00010014000440040DC
:102AE00000480040004C0040005000402049214A6E
:102AF0000B6C43F0805310B40B64136843F4807381
:102B000013601368D905FCD5194A1B4B916841F431
:102B100000219160116F41F480311167116F21F430
:102B200080311167116F41F440711167116FCA2430
:102B3000532041F4004111675C625862DA6842F048
:102B40008002DA60DA685206FCD541F63F721A61FB
:102B50001A690A495DF8044B42F4F8021A611960D7
:102B6000DA68002122F08002DA605962704700BF03
:102B7000003802400070004000280040000520009E
:102B8000114B1A68C2F3015230320A701A68C2F34C
:102B900003423A2030324A7088701A68C2F3023217
:102BA0003032CA701A684871C2F3032230320A7197
:102BB0001A68C2F3021230328A711B6803F00F03E5
:102BC0003033CB71704700BF00280040D0F804C0FC
:102BD000BCF1010F30B573D0BCF1020F6FD1AB4A1D
:102BE000136B43F4800313638268072A67D8DFE816
:102BF00012F0330119012601E500F30001010D0176
:102C000041016FF0470260230221027043704022AD
:102C10009F4B8170C2704FF4004400221A601A6802
:102C2000002AFCD11968C56841EA4561196001694B
:102C3000D9604169196181699960C169596090F8E9
:102C4000211090F82250490341EAC5211D6829430B
:102C50001960196841F440311960D0F82310D0F898
:102C60002750890241EA45211D68294319605A61AC
:102C70001A6890F8331042EA81121A601A68D0F884
:102C80002F1042EA01221A601A68D0F82B1042EA8B
:102C900081421A601D68D0F838E0416B0A0142EAAF
:102CA000CE022A431A605EEA01021CBF794A42F84A
:102CB0002C40C26B1AB11A6842F001021A6030BD92
:102CC000724A136B43F4001313638268072AF6D821
:102CD00001A353F822F000BFF92C0008132D0008BF
:102CE0002F2D0008492D0008652D0008812D0008B2
:102CF0009F2D0008032C000810216023022401707E
:102D0000402143708470644BC17094464FF400645A
:102D100083E72824602302214022047043708170DD
:102D20005E4BC2704FF480544FF0000C75E74022A8
:102D30000223602183700270594B4170C2704FF4BE
:102D400000544FF0000C68E7582460230221402211
:102D5000047043708170534BC2704FF480444FF045
:102D6000000C5AE770246023022140220470437053
:102D700081704D4BC2704FF400444FF0000C4CE793
:102D80006FF0770460230221402204704370817049
:102D9000464BC2704FF480344FF0000C3DE76FF0AB
:102DA0005F04602302214022047043708170404B15
:102DB000C2704FF400344FF0000C2EE75824642307
:102DC000022140220470437081703A4BC2704FF070
:102DD00000644FF0010C20E770246423022140229C
:102DE000047043708170344BC2704FF080544FF0C8
:102DF000010C12E76FF07702642302210270402277
:102E0000437081702D4BC270102406E76FF05F0293
:102E1000642302210270402243708170284BC270EB
:102E20002024FAE628216423022401704021437003
:102E30008470244BC17094464FF00074EDE640223C
:102E400002236421837002701F4B4170C2704FF0E7
:102E500080644FF0010CE0E610246423022140223C
:102E6000047043708170194BC2704FF080744FF042
:102E7000010CD2E66FF04702642340240270022264
:102E800043708270124BC470C7E600BF0038024026
:102E9000B860024000E100E010600240286002409B
:102EA000406002405860024070600240886002400A
:102EB000A06002405864024070640240886402408E
:102EC000A064024028640240406402401064024052
:102ED000B864024010B5124B04460FCB88B0EC46E4
:102EE000ACE807002CF8023B1A0C694604A88CF8E1
:102EF0000020FFF799FC04AB07CB616019889B7831
:102F00002060A181A260A37304A8FFF79BFC204668
:102F100008B010BD2046FFF795FC01F013FE00BF7E
:102F2000F4570008FFF790BC0268D0F805305169EB
:102F30000B435361704700BF0368D3E901214FEA97
:102F4000620C01EB6200D20745BF51F80C201B68F0
:102F50001B68D358184700BF38B5044662B1012A30
:102F60000ED0022A10D0032A04D1006810B10C211F
:102F700001F0E6FD002038BD094B0360002038BD9C
:102F80000B680360002038BD0C200D6802F0DAF9F0
:102F9000034695E80700236083E80700EAE700BFDF
:102FA000F85B0008C36B10B5044623B100F134018F
:102FB000032208469847E06904F12403984203D0AD
:102FC000616A013101F0BCFD234653F8080B9842B9
:102FD00003D0A168013101F0B3FD204610BD00BF50
:102FE0000EB410B5134A83B004461368002BFCD10D
:102FF000012106AB11601048059A01938021FDF76D
:103000006DFFD4F83120136823F0010313601368B7
:10301000DB07FCD4084BD360D4F80D300433936045
:103020005060136843F00103136003B0BDE8104023
:1030300003B0704744010020A000002010B584B008
:103040000023044601A90C308DF80C30FFF798FDE1
:10305000034901AA2046FFF7C3FF04B010BD00BF1B
:10306000305A00080149FFF7BBBF00BF385A0008BB
:10307000F8B51A490546FFF7B3FF19492846FFF787
:10308000AFFF18492846FFF7ABFF17492846FFF75F
:10309000A7FF16492846FFF7A3FF15492846FFF763
:1030A0009FFF14492846FFF79BFF13492846FFF767
:1030B00097FFD5E91E46B44209D0104FE36954F892
:1030C000442B39462846FFF78BFFA642F6D1284607
:1030D0000949BDE8F840FFF783BF00BF74580008F6
:1030E000AC5800080459000854590008B0590008A9
:1030F000EC590008285A0008405A00086C5A000889
:10310000F8B505460C30FFF7F1FCD5E90046B442AE
:1031100005D020460F34FFF797FBA642F9D105F101
:103120003100FFF753FD05F10D00FFF71FFC1C49AF
:103130002846FFF755FF1B492846FFF751FF1A495C
:103140002846FFF74DFF19492846FFF749FF184960
:103150002846FFF745FF17492846FFF741FF164964
:103160002846FFF73DFF15492846FFF739FF144968
:103170002846FFF735FFD5E91E46B44209D0114F66
:10318000E36954F8442B39462846FFF729FFA64245
:10319000F6D128460A49BDE8F840FFF721BF00BF35
:1031A000385A000874580008AC5800080459000840
:1031B00054590008B0590008EC590008285A000872
:1031C000405A00086C5A0008054B5A68920205D50F
:1031D000044A4FF400100021D8601160704700BF0E
:1031E00000600240440100201C4B1A68920611D571
:1031F0005B68DBB20D2B10B40DD0082B1CD07F2BDD
:103200001AD01749174C0A68501C1F28A3541DDCFC
:10321000086009E07047124B124C186812490022EE
:10322000225401201A6008600C4A5DF8044B1368B0
:1032300023F0200313607047094A1368013B48BF1D
:1032400000231360074A0021D154EDE7064B00200C
:103250004FF0FF3208601A60E6E700BF004400400C
:103260009C0000202401002020010020F8B5D0E9B6
:103270000056B54207460FD005F1080454F8080C73
:10328000844211D0A9681835013101F059FCAE42D1
:1032900004F11804F2D13E6826B1B9683046891BA2
:1032A00001F04EFC3846F8BD1835AE4204F1180462
:1032B000E4D13E68F0E700BF2DE9F04FD0E900749B
:1032C0008C4BE51BED1003FB05F58B4B9D4285B048
:1032D00000F0F380012D92462A4638BF0122AD1836
:1032E00080460E4680F0C380CA1B002D40F08480CB
:1032F000A946DAF80030019309EB020B0BF1080143
:10330000DAF804A049F802100091002B00F0C68002
:10331000BAF10F0FCDF80CA000F2AC80BAF1010F9A
:1033200040F0C5801B788BF80830009ACBF804A0D9
:103330000023BE4202F80A3000F0B78009F108030A
:1033400007F108013A4643F8083C1068884274D0F7
:1033500043F8080C90681860506843F8040C183261
:10336000B24201F1180103F11803ECD1A6F11803E0
:10337000624ADB1BDB0802FB03F323F060430133EB
:1033800003EB430309EBC303A64203F1180A24D05D
:10339000203306F108003246116843F8083C8142A8
:1033A00037D043F8081C91681960183252F8141C81
:1033B00043F8041CA24200F1180003F11803EBD1FA
:1033C000A31B4E4A183BDB0802FB03F323F06043C8
:1033D000013303EB43030AEBC30A2FB1D8F80810FB
:1033E0003846C91B01F0ACFB4D44C8E9009AC8F847
:1033F000085005B0BDE8F08F9D4228BF1D4605EB83
:103400004505ED002846009201F09CFF009A814698
:103410006FE7016819604168596081689960C16807
:10342000D960183252F8141C43F8041CA24200F16F
:10343000180003F11803AFD1C2E78868D1F800E0A3
:10344000D1F804C0D1F80CA0C3F80CA0C3F800E078
:10345000C3F804C09860506843F8040C1832B242B4
:1034600001F1180103F118037FF46DAF7EE7244DDD
:10347000CA1BC7E7002203A9584602F023F8039BA2
:10348000CBF80000CBF8083052460199FCF7BAFFA0
:10349000DBF80030DDF80CA0009346E7BAF1000F2E
:1034A0003FF443AF174801F0FAFF4B466CE7BAF11F
:1034B000000F3FF43AAF0098E6E7134801F0F2FF3F
:1034C00001F015FCB9F1000F05D02946484601F07E
:1034D00037FB01F000FFDBF80000009B8342F8D0CF
:1034E000DBF80810013101F02BFBF2E701F028FCBA
:1034F00001F028FBABAAAAAA55555505ABAAAA0A02
:10350000F8FFFF7F945A0008785A00082DE9F04F21
:103510008BB0002406AA4B6FDFF844818460C0E9B9
:103520000044CDE9042406460F468DF81840A24613
:1035300005E07B6F1A5D611C002A37D00C461D5DCB
:10354000092D02D015F0DF0F3CD1414604A802F04E
:10355000CDF80028EDD0D6E901539D4246D005F1C3
:1035600008002860DDE904B9BBF1000F54D0B9F1BF
:103570000F0FCDF80C903FD8B9F1010F5CD19BF83B
:1035800000302B72C5F8049000F809A07368183356
:103590007360059ACDF800A04346002104A802F00C
:1035A00027F87B6F1A5D611C002AC7D1049806AB0F
:1035B000984203D00699013101F0C2FA30460BB0AF
:1035C000BDE8F08FDDE9043B06AA934218BF069AD6
:1035D0000BF1010908BF0F22914523D803F80B50C6
:1035E000049BCDF8149003F809A0A2E7294604AA89
:1035F0003046FFF761FECCE7002203A9284601F020
:1036000061FF039B2860AB604A465946FCF7FAFE0F
:10361000DDF80C902868B5E7B9F1000FB2D00F487B
:1036200001F03DFF0123009300231A46594604A8E8
:1036300001F0A2FF049BD1E7B9F1000FA2D0E3E7AC
:10364000049806AB984203D00699013101F078FA4C
:103650003046FFF70BFE01F075FA00BF945A0008E0
:10366000345A00082DE9F047464C84B007462368D9
:10367000002BFCD0236801336DD04FF0000A39468F
:1036800001A8C4F800A0FFF741FFDDE901563E4A5A
:10369000731BDB1002FB03F313F0FF032ED0D7E9FB
:1036A0001E48444561D0DFF8EC9044345E1E03E0D0
:1036B00044451ED0019D443454F8402C6B689A4216
:1036C000F6D12D6832B154F8440C2946FCF768FE57
:1036D0000028EDD154F82C3CB3422AD0013328D035
:1036E0002A4649463846FFF77BFC44454FF0010A1D
:1036F000E0D1BAF1000F38D0DDE90156B5420FD064
:1037000005F1080454F8080CA0421DD0A96818352A
:10371000013101F015FAB54204F11804F2D1019E0D
:1037200026B103993046891B01F00AFA04B0BDE8BE
:10373000F08754F8083CF3B154F8043CA4F11000AD
:1037400098474FF0010AB3E71835B54204F1180461
:10375000D8D1019EE4E70D4900232022384623609A
:1037600004B0BDE8F047FFF73BBC7A6F0849384624
:10377000FFF736FCC0E701F098FE01A8FFF776FDE1
:1037800001F0E0F920010020ABAAAAAAC05A000863
:10379000005B0008DC5A0008F0B585B0014605461C
:1037A00001A8FFF7B3FEDDE90146B4421CD0164F75
:1037B00054F8182B39462846FFF712FCA642F7D1D9
:1037C000DDE90156B5420FD005F1080454F8080CA4
:1037D000844211D0A9681835013101F0B1F9AE4227
:1037E00004F11804F2D1019E26B103993046891BD9
:1037F00001F0A6F905B0F0BD1835AE4204F1180489
:10380000E4D1019EF0E700BF305A00082DE9F04FE7
:10381000D0E900A6494B0D46A6EB0A07484907FB2D
:1038200003F38B4283B000F08680012B1F4638BF24
:103830000127FF1881467AD2A5EB0A04002F66D132
:1038400000974FF00F0BB84608EB0403116848F8D7
:103850000410516859609168996055459189927B2F
:1038600099819A7322D008F10F07D346DBF8001034
:10387000DBF80420DBF8080047F8070C47F80F1CBA
:1038800047F80B2CBBF80C209BF80E1007F8011C16
:1038900027F8032C58460BF10F0BFEF7D3FF5D45BD
:1038A00007F10F07E2D10F3408EB040BB5421CD02F
:1038B0000BF10F072C4622686068A168B4F80CC0B1
:1038C00047F80F2CA27B47F80B0C27F803CC47F8DE
:1038D000071C07F8012C20460F34FEF7B3FFA64261
:1038E00007F10F07E7D1751BAB44BAF1000F06D003
:1038F000D9F808105046A1EB0A0101F021F9009B0C
:10390000C9F80830C9E9008B03B0BDE8F08F8F42D9
:1039100028BF0F46C7EB07173846019201F012FD8A
:10392000C319019A0093804600F10F0B8CE7054FF5
:10393000A5EB0A04F0E7044801F0B4FDEFEEEEEE6B
:1039400088888808F8FFFF7F785A00082DE9F04F33
:10395000034687B0D3F804B002900068CD4E0190C2
:103960001446ABEB0003CC4A9B1002FB03F3B342BB
:1039700000F09A81012B1A4638BF01229B18894614
:1039800080F08E810D1A002B40F0628103934FF07E
:10399000440A00931E462246731952F8081B03F18D
:1039A00008009142705100F06C817151A1689960DA
:1039B000226062685A600022E16962602272A26934
:1039C0009A6104F1240203F124009142D86100F0CD
:1039D0004F81D961616A59620027E26104F13405BF
:1039E000226A84F82470276295E803001A6204AE04
:1039F00003F1340286E8030092E8030085E803003F
:103A000096E8030082E80300D4F83CC0256C1A6CE9
:103A1000C3F83CC01D64019BE7639945226476D0DE
:103A2000009A03F1080802F1440503F12404A5F10A
:103A30003C0245F8442C54F8243C4345AA4600F087
:103A4000C98045F8443C54F81C3C45F83C3C54F8CB
:103A5000203C45F8403CA5F1200254F80C3C04F809
:103A60001C7C44E9098745F8282C45F82C3C54F87F
:103A7000083CA34200F0BF8045F8283C236845F885
:103A8000203C54F8043C45F8243CA44644E9024751
:103A90000CF8107B45F8087C9CE80300A5F11003A6
:103AA00086E8030093E803008CE8030096E803002F
:103AB00083E80300A369A76145F8083CD4E906320E
:103AC00055F8041CE16145F8042C1BB10322614642
:103AD0006046984754F8080CA04203D02168013191
:103AE00001F02EF854F8240C404505F1440508F186
:103AF00044085AD054F81C1C013101F021F804F19B
:103B00002003994504F1440491D10AF1440AD945AE
:103B100000F08D800AF1080209F124034C460027C9
:103B200032E042F8080C53F81C0C106043F8241CD7
:103B300053F80C1C116153F8081C53F8200C03F8BF
:103B40001C7C02F11C058B42556142F8040C43F8C1
:103B5000207C32D051611968D16153F8041C916105
:103B600003F1100103C9D3E906EC443402F12C053A
:103B70005C4502F1440285E8030086E8030042E95F
:103B800004EC03F1440344D053F8240C42F8082C0D
:103B900004F108018842C4D1A068106048685060F0
:103BA00088689060C868D060C0E704F12003994538
:103BB00004F144047FF43BAFA7E7D3F800E0D3F867
:103BC00004C09868D9689162C2F81CE0C2F820C0AD
:103BD0005062C2E7D8F800C0D8F80400D8F808103E
:103BE000D8F80C3045F8303C45F83CCC45F8380C5A
:103BF00045F8341C2BE7D4F800C06068A168E3687E
:103C000045F8143C45F820CC45F81C0C45F8181C28
:103C100037E7A4EB0903214A443B9B0802FB03F36B
:103C200023F04043013303EB03130AEB830A019BA8
:103C30002BB1029A91681846C91A00F081FF029BC5
:103C4000009AC3E9002A039A9A6007B0BDE8F08F92
:103C5000B34228BF334603EB03139E00304601F006
:103C600071FB82190090039200F1440A064692E625
:103C7000616A5962516899629168D962D168196321
:103C8000AAE6A16899605168D96091681961D16804
:103C900059618DE6E1E1E101F1F0F0F0F1F0F03091
:103CA000019B034ECD1AD9E7024801F0FBFB00BF90
:103CB000C4FFFF7F785A000870B5D0E90134A342F1
:103CC00082B00A4644D003F108041C60844651F8CF
:103CD000080B88424CD01860906898605068586013
:103CE0000020C2E900109169107203F12404C3E9B5
:103CF0000614D06902F1240188422ED0D861506A9E
:103D000058620024106A1862C2E9071482F824403D
:103D100002F13406DC6396E803006D4603F1340ECD
:103D200085E803009EE8030086E8030095E80300A9
:103D30008EE80300D16BD963DCF80410106CD463F7
:103D40001C6C146444311864CCF8041002B070BDCB
:103D50001946FFF7FBFD02B070BDD2F824E04E68B3
:103D60008D68C8681863C3F824E09E62DD62C8E706
:103D7000D2F808E04E688D68C8685861C3F808E05A
:103D8000DE601D61AAE700BF2DE9F04FA3B0B34B81
:103D9000079304230022804607AF06930DAE152338
:103DA00011A90BA805978DF820200B96119301F00F
:103DB00089FBAB4D119B0B900D9304460FCD2060FA
:103DC000E36028682B7920616160A2602375119BF4
:103DD0000B9A0C934FF0000C02F803C00C20CDF8A6
:103DE0000CC001F0AFFA9F4B0360DDF814909E4BBE
:103DF000049300229D4B069D019013AC08F1780AB4
:103E0000C0F80880039342601194B9F1000F00F0EC
:103E100003830F2D009500F27582012D40F03A8347
:103E200099F800308DF84C302346002212955A55EF
:103E3000DDF82CB0DDF8309017921AAD1895BBF173
:103E4000000F00F0E482B9F10F0FCDF8009000F2FE
:103E50007682B9F1010F40F021839BF800308DF894
:103E600068302A460023CDF8649002F80930209388
:103E7000039B4BB10DF17809022201A948469847EE
:103E8000049B2193039B209311A95046FFF714FF35
:103E9000209B1BB11EA90322084698471898A842E8
:103EA00003D01A99013100F04BFE1198A04203D0C3
:103EB0001399013100F044FE039B1BB101A90322B9
:103EC000084698470B98B04203D00D99013100F095
:103ED00037FE0598B84203D00799013100F030FE53
:103EE000634B05971B68ADF81C301B0C8DF81E301A
:103EF00003230022069311A912230BA80B968DF819
:103F00001F20119301F0DEFADFF86CE1119B0B909A
:103F10000D938446BEE80F00CCF80C30BEF800309C
:103F2000CCF80000CCF80410CCF80820ACF8103025
:103F3000119B0B9A0C934FF0000902F803900C2090
:103F4000CDF80C9001F0FEF9474B0493DDF814B066
:103F5000464B0393474BC0F804904A460190DDF866
:103F60001890C0F8088011940360BBF1000F00F0B6
:103F70005682B9F10F0FCDF8009000F2D181B9F15E
:103F8000010F40F090829BF800308DF84C302346B2
:103F90000022CDF8489003F80920DDE90BB9CDE9FE
:103FA0001725BBF1000F00F04482B9F10F0FCDF8D7
:103FB000009000F2FF81B9F1010F40F079829BF887
:103FC00000308DF868302A460023CDF8649002F85E
:103FD00009302093039B4BB10DF17809022201A90E
:103FE00048469847049B2193039B209311A9504670
:103FF000FFF762FE209B1BB11EA9032208469847CB
:104000001898A84203D01A99013100F099FD11982F
:10401000A04203D01399013100F092FD039B1BB124
:1040200001A90322084698470B98B04203D00D9986
:10403000013100F085FD0598B84203D007990131A0
:1040400000F07EFDDFF834C005970423CDE9063C7F
:10405000002210230BA811A90B9611E068656C7063
:10406000185B000871300008392F0008592F00082C
:10407000305B000865300008345B000874696D65CA
:104080008DF82020119301F01DFADFF824E3119B35
:104090000B900D938446BEE80F00CCF80000CCF8DE
:1040A0000410CCF80820CCF80C30119B0B9A0C9320
:1040B0004FF0000902F803900C20CDF80C9001F0AD
:1040C00041F9B54B0493DDF814B0B44B0393B44BF2
:1040D000C0F804904A460190DDF81890C0F80880B6
:1040E00011940360BBF1000F00F09E81B9F10F0F36
:1040F000CDF8009000F24181B9F1010F40F0C58187
:104100009BF800308DF84C3023460022CDF84890C3
:1041100003F80920DDE90BB9CDE91725BBF1000F44
:1041200000F08C81B9F10F0FCDF8009000F21681EC
:10413000B9F1010F40F0C1819BF800308DF8683073
:104140002A460023CDF8649002F809302093039B9F
:104150004BB10DF17809022201A948469847049B0A
:104160002193039B209311A95046FFF7A5FD209BA7
:104170001BB11EA90322084698471898A84203D0ED
:104180001A99013100F0DCFC1198A04203D0139978
:10419000013100F0D5FC039B1BB101A903220846A5
:1041A00098470B98B04203D00D99013100F0C8FC3C
:1041B0000598B84203D00799013100F0C1FC794954
:1041C000794B0B960422CDE906210FCBB446ACE81F
:1041D00007002CF8023B1B0C4FF0000E8CF800304F
:1041E0004FF00F090C2005978DF820E0CDF80CE07A
:1041F000CDF830908DF843E001F0A4F8664B0493BD
:10420000DDF81490654B03930022684BC0F80880DA
:104210000190DDF81880119403604260B9F1000F3D
:1042200000F01181B8F10F0FCDF8008000F2E080AE
:10423000B8F1010F40F0468199F800308DF84C300C
:1042400023460022CDF8488003F80820DDF82C90A2
:10425000DDF8308018954FF0FF331793B9F1000F58
:1042600000F0F680B8F10F0FCDF8008000F2B180B9
:10427000B8F1010F40F02B8199F800308DF86830CB
:104280002A460023CDF8648002F808302093039B6F
:104290004BB10DF17809022201A948469847049BC9
:1042A0002193039B2093504611A9FFF705FD209B06
:1042B0001BB11EA90322084698471898A84203D0AC
:1042C0001A99013100F03CFC1198A04203D01399D7
:1042D000013100F035FC039B1BB101A90322084604
:1042E00098470B98B04203D00D99013100F028FC9B
:1042F0000598B84203D00799013100F021FC23B0A2
:10430000BDE8F08F694611A801F0DCF8009B119020
:1043100013932A464946FCF775F8009D119B84E5E6
:10432000694611A801F0CEF8009B119013934A46FC
:104330005946FCF767F8DDF80090119B28E66946BE
:1043400018A801F0BFF8009B18901A934A465946E6
:10435000FCF758F8DDF80090189A83E5694618A82C
:1043600001F0B0F8009B18901A934A465946FCF7A2
:1043700049F8DDF80090189AE3E6694611A801F0C3
:10438000A1F8009B119013934A465946FCF73AF85E
:10439000DDF80090119BB8E6392F0008592F00086E
:1043A0003D3000086563686F5C5B00089937000862
:1043B000485B0008694618A801F084F8009B189033
:1043C0001A934A465946FCF71DF8DDF80090189AF2
:1043D000FAE5694618A801F075F8009B18901A9341
:1043E00042464946FCF70EF8DDF80080189A48E787
:1043F000694611A801F066F8009B1190139342469C
:104400004946FBF7FFFFDDF80080119B19E7B9F182
:10441000000F25D12A4625E52DBB234605E5B9F138
:10442000000F23D12346B3E5B9F1000F21D1234674
:104430006BE6B9F1000F1FD12A46C5E5B9F1000FAF
:104440001DD12A467DE6B8F1000F1BD12346F8E6C0
:10445000B8F1000F01D12A4613E77D4801F01FF89B
:104460007B4801F01CF87A4801F019F8784801F00F
:1044700016F8774801F013F8754801F010F8744801
:1044800001F00DF8724801F00AF8B9F1000FCED032
:10449000204679E7002DC0D020463AE7B9F1000F59
:1044A000B8D0284652E7B9F1000FBBD020463EE70E
:1044B000B9F1000FC0D0284683E7B9F1000FC0D092
:1044C000284652E7B8F1000FC0D0204697E7B8F170
:1044D000000FC0D0284683E7039B1BB101A903222C
:1044E000084698470B98B04203D00D99013100F06F
:1044F00027FB0598B84203D00799013100F020FB53
:1045000000F020FB209B1BB10322494648469847F8
:104510001898A84203D01A99013100F011FB1198A4
:10452000A04207D01399013100F00AFB02E011A864
:10453000FEF738FD039B002BD4D001A903220846C7
:104540009847CFE7D5E7039B002BCBD001A90322E7
:1045500008469847C6E7039B002BC3D001A9032256
:1045600008469847BEE7DAE71198A04203D01399AE
:10457000013100F0E5FA039B002BB3D001A903221F
:1045800008469847AEE7F6E711A8FEF70BFDA3E74C
:10459000D0E7039B002BA5D001A90322084698472A
:1045A000A0E7A6E7209B1BB103224946484698474F
:1045B0001898A842D8D01A99013100F0C1FAD3E76F
:1045C00011A8FEF7EFFCD6E7039B002B8AD001A9C8
:1045D00003220846984785E7209B1BB103224946E2
:1045E000484698471898A84203D01A99013100F01C
:1045F000A7FA1198A0423FF46FAF1399013100F070
:104600009FFA69E7209B1BB1032249464846984719
:104610001898A84203D01A99013100F091FA119824
:10462000A04298D01399013100F08AFA93E711A8BB
:10463000FEF7B8FC8FE7F2E7DBE75AE7039B002BB6
:104640003FF450AF01A90322084698474AE700BF4C
:10465000945A00082DE9F04F0023C3B07C4A8360D0
:104660000127C0E90033C0E91E3388464267C0F81D
:1046700080300646202219464FF0020B09A8FBF7AE
:10468000D7FFCDE90D77CDE90AB811970C9709ACA2
:104690000FCC32ADA946AE460FC50FCC0FC52F606B
:1046A000CDE933B8CDE9357706F10D0C0DF1E80A07
:1046B000379774460FCC54450CF1100C0EF1100EC8
:1046C0004CF8100C4CF80C1C4CF8082C4CF8043C22
:1046D000EFD1604BDEF80000CCF8000003F11007CA
:1046E0000FCB01AD07C525F8023B1B0C2B7097E8DB
:1046F0000F0005AC07C424F8023B01A91B0C484677
:104700002370FEF791F8D6E9013293426DD04C4602
:1047100007CC186059609A602288A178997303F1D8
:104720000F059A8175604846FEF78CF805A9484642
:10473000FEF77AF8D6E9013293425CD04C4607CCBA
:10474000186059609A602288A178997303F10F0567
:104750009A817560404D4846FEF774F80FCD0DF113
:10476000480EF046AEE80F000FCDAEE80F000FCDBB
:10477000AEE80F0095E80F008EE80F00B8E80F00D4
:10478000CC46ACE80F00B8E80F00ACE80F00B8E882
:104790000F00ACE80F009EE80F008CE80F004F46BA
:1047A0000FCF22ACA3460FC40FCF0FC40FCF0FC43F
:1047B0009CE80F0084E80F0006F1310A5C460FCC3C
:1047C0004C450AF1100A0BF1100B4AF8100C4AF88C
:1047D0000C1C4AF8082C4AF8043CEFD13046FFF78D
:1047E000D3FA304643B0BDE8F08F4A46194630460A
:1047F000FFF70CF897E74A4619463046FFF706F8E8
:10480000A8E74846FEF71EF8D6E91E45A54214D192
:10481000B06FD6F88010091A08B100F091F9D6E906
:104820000045A5420ED13068B168091A08B100F000
:1048300087F900F087F9E7E7E3E72046FEF7B2FBE8
:104840004434E3E72046FDF7FDFF0F34E9E700BFFE
:10485000240100200458000824580008F8B5D0E9C5
:104860002257BD42064624D005F13404A3681BB18B
:10487000032221462046984754F8180C05F12403DA
:10488000984204D054F8101C013100F059F954F842
:10489000340C05F1080398422BD054F82C1C4435F5
:1048A000013100F04DF9AF4204F14404DED1D6F8F5
:1048B00088702FB1D6F890103846C91B00F040F927
:1048C000D6E90445AC4206D020460F34FDF7BAFFC6
:1048D000A542F9D1356925B1B1692846491B00F0D7
:1048E0002FF9701CFDF7AEFF3046FDF79BFF3046F9
:1048F000F8BD4435AF4204F14404B7D1D6F888700E
:10490000D7E700BFF8B5D0E90056B542074623D037
:1049100005F13404A3681BB10322214620469847C1
:1049200054F8180C05F12403984204D054F8101CD4
:10493000013100F005F954F8340C05F108039842F0
:1049400012D054F82C1C4435013100F0F9F8AE4275
:1049500004F14404DED13E6826B1B9683046891BB3
:1049600000F0EEF83846F8BD4435AE4204F1440498
:10497000D0D13E68F0E700BFF8B5B421451C04462D
:10498000FDF704FF2846FEF7A5FA04F110064FF4E0
:10499000E1313046FFF75EFE2846FEF7C3FA3046A7
:1049A000FEF7AEFB2046F8BD2046FDF73BFF00F0CA
:1049B000C9F804F18800FFF7A5FFD4E90467B742FE
:1049C0000AD12069A169091A08B100F0B9F828468E
:1049D000FDF738FFE8E7FAE73046FDF733FF0F361B
:1049E000EDE700BF00B5A7B001A8FFF7C5FF0DF1C7
:1049F0000500FEF799FA05A8FEF734FEFBE701A8CB
:104A0000FFF72CFF00F09EF8DFF834D00D480E4978
:104A10000E4A002302E0D458C4500433C4188C4218
:104A2000F9D30B4A0B4C002301E013600432A2427D
:104A3000FBD3FDF769FEFBF72FFCFFF7D3FF7047B1
:104A40000000022000000020700000201461000817
:104A50007000002068010020FEE77FB500241023CD
:104A6000CDE90234036815469E6912686B46CDE9AC
:104A70000044B0479DF8043003F00603062B03BF43
:104A8000009B2B600120204604B070BD009890422E
:104A900014BF01200620704710B5034B0360044685
:104AA00000F0E1FC204610BD3C5C000810B5044657
:104AB000FFF7F2FF2046082100F042F8204610BD23
:104AC0002DE9F0411F46DDE90834DDF818809845EE
:104AD0000646154607D1079900F0C8FC18B1657164
:104AE0000020BDE8F0813946304600F0BFFC0028C8
:104AF000F6D00123C4F800802571A371F0E738B522
:104B000015461C4600F0B2FC20B10823E3600623E2
:104B10002560237138BD73B505460C4601921E46CB
:104B200000F0A4FC50B9032E08D82368019A5B69F1
:104B30002946204602B0BDE87040184702B070BD5B
:104B400000F0E8BD1EB400F09CF81EBCFDF7CCFBE5
:104B50000378472B17D143784E2B14D18378552BEC
:104B600011D1C378432B0ED10379432B0BD1437959
:104B70002B2B08D183792B2B05D1C07901288CBF31
:104B80000020012070470020704700002DE9F3410C
:104B90001D460378472B0E460246C17913D1437850
:104BA0004E2B10D18378552B0DD1C378432B0AD1CE
:104BB0000379462B07D143794F2B04D18379522BAC
:104BC00001D1002931D01046FFF7C2FF80F001006B
:104BD000C4B200230020019053BB5CBB01290ABF73
:104BE00052F8203CA2F12003783B012908BF52F87B
:104BF000202C1C6818BF58320192236820469B68FD
:104C00009847C8B1019B1B6801930227336801AA2A
:104C1000D3F81080214601233046C04770B1019B74
:104C20002B60384602B0BDE8F08101230C46D1E785
:104C3000034CE2E7034CE0E70127E7E70746F0E72C
:104C4000605C0008685C000810B5044600F0A0F83D
:104C500002462046A4F12001FFF77AFF60B154F824
:104C6000043C0133012B44F8043C03D1936844F81D
:104C7000083C9160012010BD9368002BF9D000F032
:104C800013FB10B500F084F8826801460AB900F001
:104C90000BFB02F120042046FFF75AFF40B1D36915
:104CA000013BD36113B9906988609361204610BDC0
:104CB0008860FBE70378472B17D143784E2B14D13C
:104CC0008378552B11D1C378432B0ED10379432B15
:104CD0000BD143792B2B08D183792B2B05D1C079AC
:104CE00001288CBF0020012070470020704738B594
:104CF000044600F04DF8056802462046A4F1200164
:104D0000FFF7D8FF28B90DB100F0CEFA11602846A0
:104D100038BD54F80C3C002BB4BFC3F10103013380
:104D200044F80C3C53688D4203F1FF335360204636
:104D30001CBF44F8105C1160656AFCF717FFE6E7DA
:104D400010B500F021F8026801469AB102F1200482
:104D50002046FFF7AFFF28B908602046BDE81040A5
:104D6000FCF706BF5369002B05DA013301D1106946
:104D70000860536110BD013B02D113690B60ECE781
:104D8000591CF6D100F090FA004870474801002005
:104D9000004870474801002030B500231A4610F83B
:104DA000015B05F07F04944023432C0602F10702C7
:104DB000F5D40B6030BD30B500231A4610F8014B16
:104DC00004F07F0595402B43250602F10702F5D438
:104DD0001F2A06D8640642BF4FF0FF3404FA02F2DD
:104DE00013430B6030BD50282DE9F3410646884639
:104DF00015461F4608D1033222F0030050F8044B39
:104E00003C6002B0BDE8F08100F00F030C2B2ED8FF
:104E1000DFE803F025071D25292D2D2D2D1821252F
:104E2000290001A92846FFF7B7FF019C002CE7D015
:104E300006F07003102B08BFA8464444330648BF51
:104E40002468DDE701A92846FFF7B5FFEDE728460E
:104E500030F8024BEAE7284630F9024BE6E72846ED
:104E600050F8044BE2E7284650F8084BDEE7FBF722
:104E70000BFA08B50346FF2B084610D003F070026A
:104E8000302A12D007D8202A0BD002D813F0600F96
:104E900005D0FBF7F9F9402A0BD0502AF9D10020B0
:104EA00008BDBDE8084000F096BCBDE8084000F031
:104EB0008FBCBDE80840FDF7F7BB13B50C460146B3
:104EC0002046CDE90032FFF7D4FFDDE9003201468C
:104ED000204602B0BDE81040FFF785BF73B50C4611
:104EE0001546064628B3FDF7DFFB034620462B6038
:104EF00010F8011BFF291ED002462B1D3046FFF77C
:104F0000DCFF10F8013B2B75FF2B16D010232B75FF
:104F100001A9FFF741FF019B0344EB6010F8013B3F
:104F20006B7501A9FFF738FF019B03442B6102B0A9
:104F300070BD0346DAE76B60E3E70023EDE71FB5DA
:104F400003AB009300230A461946FCF717FE0398AB
:104F500005B05DF804FB00002DE9F04F91B000238F
:104F6000059300F00303012B06460C4617460ED0AE
:104F7000022B03D0002B3BD101073BD539462046FD
:104F8000FDF77CFB90B3092011B0BDE8F08F02075C
:104F900006D40D6A38460D21FFF7D1FF85422BD08C
:104FA0000220002306F008060DF1280A0643CDF87A
:104FB00000A00C22194638460A94FCF705FE062E7E
:104FC0001CD1D4F83080D4E90A59B8F1000F0CBFD5
:104FD0004FF0010B4FF0030B16F0080600F00781AD
:104FE000BBF1010F40F0FF8000F05EF90820CBE735
:104FF000FBF74AF90120D4E70620D2E73846FDF74F
:1050000059FB81460028B9D0524601463846FFF781
:1050100065FF394605469DF83C00FFF72AFF0F2142
:105020000C903846FFF78BFF20F0010808F1FF389D
:105030000E9BAB4240F2BF802A469DF83D1006AB66
:105040000020FFF73AFF9DF83D10024607AB002015
:10505000FFF733FF08AB02469DF83D100020FFF735
:105060002CFF09A9FFF798FE0A9B069A13444345B3
:10507000054601D90E9DDBE7079A13444345D7D96E
:10508000DDF82080B8F1000F01D00B9B9844099DFA
:1050900015B10E98013D0544B8F1000F3FF46EAF15
:1050A000002D00F0F28016F00803029334D047235D
:1050B00023704E2363705523A3704323E37046236C
:1050C00023714F2363715223A3710023E3714FF0C7
:1050D000000B07A92846FFF76EFE08A90390FFF70B
:1050E0006AFE0799002963D03ADD9DF83C00FF284D
:1050F00032D000F00703042B3FF67AAF01A252F83A
:1051000023F000BF5D510008F14F00082B5100084B
:105110005D51000855510008E379012B0CBF54F88C
:10512000203C04F158030593D1E702250D9A09AB01
:1051300005FB11220C99FFF756FE099931B15CB3BA
:1051400005AB00222046FFF721FD28B3079D4FF055
:10515000030B34E00825E9E70025E7E70425E5E748
:10516000C1F17F5101F57F110D9B01F57F513F3159
:1051700003EB8105BCB1029AAAB9059B0993043DD2
:1051800055F8041F0029E1D009AB0022294420462C
:10519000FFF7FCFC0028F3D0089D002D71D0039B85
:1051A0002B441D4695E753F82130002BF4D1CDE771
:1051B0004FF0010BF0E70025A8464FF0010BF30775
:1051C0007FF50AAFBBF1020F3FF4D8AE0D21384690
:1051D000059EFFF7B4FEC4E90A59C4E90806C4F8FD
:1051E00030800620D0E6002D22DA00F06FF8BBF107
:1051F000010F02D1204600F0C0FA002D18DA524605
:1052000049463846FFF76AFE9DF83C003946FFF7ED
:1052100030FE0D9A0C90EB4302EB830353F82620EB
:105220000AB10136FAE70422C4E90A60C4E90C2392
:10523000002309AE1A461946009638460994FCF731
:10524000C3FC002319460122009638460995FCF755
:10525000BBFC0F213846FFF772FE00F0010040EA68
:1052600008000023099000960F2219463846FCF7E3
:10527000ABFCBBF1020F02D12046FFF7E5FC072093
:1052800082E6BBF1000F3FF479AE4FF0020B96E7D8
:1052900008B58047FAF7F8FF024B1868BFF35B8F39
:1052A000704700BF6C00002008B5FFF7F5FFFFF75F
:1052B000EFFF08B58047FFF7F7FF0000024B1868C3
:1052C000BFF35B8F704700BF6800002008B5FFF791
:1052D000F5FFFFF7EEFF08B5FFF75AFDD0E90042F2
:1052E000013242604CB394F82020472A27D194F829
:1052F00021204E2A23D194F82220552A1FD194F838
:105300002320432A1BD194F82420432A17D194F850
:1053100025202B2A13D194F826202B2A0FD194F87C
:105320002720012A0BD8626952426261203420464C
:10533000FCF7ECFF2046FFF7DAFCFFF7B5FF002291
:105340000260F3E7012838BF012010B5044620466B
:10535000FAF7C6FF30B900F033FA08B9FAF794FF4C
:105360008047F4E710BD000010B5034B036004460E
:10537000FFF792FB204610BDF05C000810B5044614
:10538000FFF7F2FF20460C21FFF7DAFB204610BDA5
:10539000F7B5089F974205460E4614460AD0A868FE
:1053A00002680897156A31462246AC4603B0BDE84C
:1053B000F04060471946019300F058F8019B00281F
:1053C000EDD0062003B0F0BD2DE9F14F0D46194692
:1053D000DDE90A4BDDE90CA681461746984600F048
:1053E00045F890B1002D3460377109DB61198A45A9
:1053F0000CBF06210121B171002001B0BDE8F08F82
:105400000235F9D10123B371F6E7544506D1594667
:10541000484600F02BF808B17771EDE7D9F808009D
:105420000368CDE90CA6CDE90A4BDC693A46434650
:105430002946A44601B0BDE8F04F60472DE9F04190
:1054400007460C4615461E46FFF759FB48B9B86893
:1054500003689F692A4633462146BC46BDE8F041B1
:105460006047BDE8F081704700207047814208B571
:105470000ED0406803782A2B0CD049680B782A2B71
:1054800008BF0131FBF750FBB0FA80F0400908BDBE
:105490000120FCE70020FAE708B5FAF7F5FE08B5A9
:1054A000FAF7F2FE08B5FAF7EFFE08B5FAF7ECFEE8
:1054B0000AB1FAF7A7BF70470AB1FAF771BF1046F1
:1054C0007047000008B50B68B3F1804F02D30D4858
:1054D000FFF7E8FF93420BD9B3EB420F4FEA4200CC
:1054E00006D2B0F1804F2ABF6FF0404308600B60D6
:1054F0000868013001D5FFF7CFFFBDE80840FFF78E
:1055000021BF00BF295D000850F8083B834202D04C
:10551000184600F0FFB87047406801F1804101393A
:10552000091A914208B502D21846FFF7BBFF08BD21
:1055300003688B4206D840681844814294BF00201B
:105540000120704701207047012A10B404D10A7865
:105550005DF8044B027070475DF8044BFFF7A8BF7D
:10556000012A30B403D10B78037030BC7047002A95
:10557000FBD030BCFAF7E0BF2DE9F3470A9E1F4687
:10558000436801EB0208B21A1A44A3EB0809034668
:10559000019253F8082B9A4218BF82680D4608BF43
:1055A0000F2201A90446FFF78DFF82461DB1216835
:1055B0002A46FFF7C9FF37B12EB1324639460AEB0A
:1055C0000500FFF7C1FFB9F1000F07D0216835448E
:1055D0004A4641440AEB0500FFF7B6FF2046FFF7B5
:1055E00093FF019BC4F800A0A36002B0BDE8F08760
:1055F0002DE9F74F0C9D144680462A4689461F46E2
:105600002146394BFFF788FF4246D8F8043052F85C
:10561000086B964218BFD8F80820A5EB040B03EBE3
:105620000B0A08BF0F22524551D34E443946A144BC
:105630004046A3EB0909FFF77BFF80B1B9F1000FEA
:1056400006D0AC4204D04A4631197019FFF788FFE2
:1056500015B32A4639463046FFF776FF1CE035B1D0
:10566000AC423CD32A4639463046FFF779FFB9F1C0
:10567000000F11D0AC420FD04A4631197019FFF714
:105680006FFFAC4208D234447B199C420FD32A46A8
:1056900039463046FFF764FFD8F80030C8F804A058
:1056A0000022404603F80A2003B0BDE8F08FBC4258
:1056B00003D82A4607EB0B01CDE7E41B2246394607
:1056C0003046FFF74DFF2A1B71193019C4E70095CA
:1056D0003B46224649464046FFF74EFFDCE7B9F11C
:1056E000000FD0D0C8E700BF415D000873B5466821
:1056F000019105460846FBF783FB86420446324685
:10570000019928BF02462868FFF7D6FE00B9301B72
:1057100002B070BDFAF7ECBD38B5084C4FF41E6509
:105720002846E560FAF7DCFDA06010B9E060606033
:1057300038BD0023606005604360F9E75401002034
:105740000378472B17D143784E2B14D18378552BF0
:1057500011D1C378432B0ED10379432B0BD143795D
:105760002B2B08D183792B2B05D1C07901288CBF35
:105770000020012070470020704710B5044648B152
:10578000FFF7B5FA2046FFF7DBFF18B154F8140C09
:10579000FFF77EFDFFF788FD38B50246FFF7D0FF23
:1057A000044640B152F8184C00251046FFF79FFA06
:1057B0001DB1FFF78BFD0125F7E72046FFF779FDC7
:1057C000024B1868BFF35B8F704700BF6401002075
:1057D00008B5FAF759FD08B5FFF7FAFFF8B500BFAD
:1057E000F8BC08BC9E467047F8B500BFF8BC08BCC2
:0457F0009E4670471A
:1057F4000000000041200000000001000000000043
:105804000000000041040000000002070000000046
:105814000000000041080000000002070000000032
:105824000000000001000000060000000400000069
:1058340000000000000000000444004000000000DC
:105844000000000100000000000000000000000053
:105854000000000101000000000000000000000042
:10586400000000000000000001020304060708090C
:10587400201B5B33316D20202020202020205C5C05
:105884002020202020202020202020202020202014
:105894002020202020202020202F2F2020202020E6
:1058A40020202020200D0A00201B5B33316D5C5C1E
:1058B400202020202020281B5B33376D6F1B5B3397
:1058C400316D3E202020202020201B5B33346D537B
:1058D400544D3332463434361B5B33316D20202033
:1058E400202020203C1B5B33376D6F1B5B33316DF5
:1058F40029202020202020202F2F200D0A00000006
:10590400201B5B33316D281B5B33376D6F1B5B339F
:10591400316D3E20202020202F2F5C2020202020AD
:105924002020202020202020202020202020202073
:1059340020202F5C5C2020202020203C1B5B333760
:105944006D6F1B5B33316D292020200D0A00000090
:105954001B5B306D5F1B5B33316D2828291B5B306B
:105964006D5F5F5F5F5F1B5B33316D565F2F1B5B4A
:10597400306D5F5F5F5F5F5F5F5F5F5F5F5F5F5F54
:105984005F5F5F5F5F5F5F5F201B5B33316D5C5FF9
:10599400561B5B306D205F5F5F5F5F1B5B33316D58
:1059A4002829291B5B306D5F200D0A00201B5B3307
:1059B400316D7C7C2020202020207C7C2020202015
:1059C40020202020202020202020202020202020D3
:1059D40020202020207C7C202020202020207C7C53
:1059E4002020200D0A000000201B5B33316D202095
:1059F4002020202020207C7C2020202020202020EB
:105A04002020202020202020202020202020202092
:105A1400207C7C2020202020202020202020200DDD
:105A24000A0000001B5B306D200D0A0025730D0A6F
:105A3400000000001B5B324A000000002D2D2D2DBC
:105A44002D2D2D2D2D2D2D2D2D2D2D2D2D2D2D2D82
:105A54002D2D2D2D2D2D2D2D2D2D2D2D2D2D2D2D72
:105A64002D2D2D2D2D0D0A002573092D2025730DA7
:105A74000A000000766563746F723A3A5F4D5F7294
:105A840065616C6C6F635F696E73657274000000AE
:105A940062617369635F737472696E673A3A5F4DEA
:105AA4005F636F6E737472756374206E756C6C20B3
:105AB4006E6F742076616C69640000000D0A436F98
:105AC4006D6D616E64206578636565647320256916
:105AD40020636861720D0A0057726F6E67206E75DD
:105AE4006D626572206F6620617267756D656E7494
:105AF4007320666F722025730D0A0000496E76616B
:105B04006C696420636F6D6D616E643A2025730D5A
