:020000040800F2
:10000000003000208D520008DD520008DD5200084B
:10001000DD520008DD520008DD520008000000003B
:10002000000000000000000000000000DD52000899
:10003000DD52000800000000DD520008DD5200081B
:10004000DD520008DD520008DD520008DD520008D4
:10005000DD520008DD520008DD520008DD520008C4
:10006000DD520008DD520008DD520008DD520008B4
:10007000094D0008254D0008DD520008DD5200083A
:10008000DD5200085D310008DD520008DD52000835
:10009000DD520008DD520008DD520008DD52000884
:1000A000DD520008DD520008DD520008DD52000874
:1000B000DD520008DD52000800000000DD5200089B
:1000C000DD5200080000000000000000DD520008C2
:1000D00000000000DD5200087D310008DD520008FC
:1000E000DD520008DD5200080000000000000000A2
:1000F0000000000000000000000000000000000000
:1001000000000000000000000000000000000000EF
:100110000000000000000000DD520008DD52000871
:1001200000000000000000000000000000000000CF
:1001300000000000000000000000000000000000BF
:10014000DD520008DD520008000000000000000041
:10015000000000000000000000000000000000009F
:10016000000000000000000000000000000000008F
:10017000000000000000000000000000000000007F
:0801800000000000DD52000840
:1001C0000348044B834202D0034B03B118477047E6
:1001D0007000002070000020000000000548064963
:1001E0000B1AD90F01EBA301491002D0034B03B145
:1001F00018477047700000207000002000000000C9
:1002000010B5064C237843B9FFF7DAFF044B13B15E
:100210000448AFF300800123237010BD700000205C
:10022000000000006060000808B5044B1BB10449E1
:100230000448AFF30080BDE80840CFE700000000AD
:10024000740000206060000808B5062000F084FB00
:10025000012002F037FA00BF70B50D4E0D4D761B30
:10026000B61006D0002455F8043B01349847A64246
:10027000F9D1094E094D761B05F0F2FEB61006D0F5
:10028000002455F8043B01349847A642F9D170BDCB
:10029000FC6A0008FC6A0008046B0008FC6A00089D
:1002A000024B0146186800F057BA00BF000000205A
:1002B000024B0146186800F0EDB900BF00000020B5
:1002C00001F0FF01102A2BDB10F0070F08D010F807
:1002D000013B013A8B422DD010F0070F42B3F6D10B
:1002E000F0B441EA012141EA014122F007047FF024
:1002F00000070023F0E80256083C85EA010586EA7B
:10030000010685FA47F5A3FA87F586FA47F6A5FAB6
:1003100087F68EB9EED1F0BC01F0FF0102F00702C2
:1003200032B110F8013B013A83EA010313B1F8D16D
:100330000020704701387047002D06BF354603384E
:10034000073815F0010F07D1013015F4807F02BF87
:10035000013015F4C03F0130F0BC0138704700BFD8
:10036000032A70B515D940EA010C1CF0030F0446AE
:100370000B4621D1194620460E680568B54204F1A6
:10038000040403F1040317D1043A032A2046194652
:10039000F0D8541EA2B100F1FF3C013901E0C318AE
:1003A0000CD01CF801EF11F8012F9645A4EB0C03BB
:1003B000F5D0AEEB020070BD541EECE7184670BDE0
:1003C000104670BD844641EA000313F003036DD16B
:1003D000403A41D351F8043B40F8043B51F8043B08
:1003E00040F8043B51F8043B40F8043B51F8043B0F
:1003F00040F8043B51F8043B40F8043B51F8043BFF
:1004000040F8043B51F8043B40F8043B51F8043BEE
:1004100040F8043B51F8043B40F8043B51F8043BDE
:1004200040F8043B51F8043B40F8043B51F8043BCE
:1004300040F8043B51F8043B40F8043B51F8043BBE
:1004400040F8043B51F8043B40F8043B51F8043BAE
:1004500040F8043B403ABDD2303211D351F8043B4E
:1004600040F8043B51F8043B40F8043B51F8043B8E
:1004700040F8043B51F8043B40F8043B103AEDD2FD
:100480000C3205D351F8043B40F8043B043AF9D24E
:10049000043208D0D2071CBF11F8013B00F8013B21
:1004A00001D30B8803806046704700BF082A13D32E
:1004B0008B078DD010F003038AD0C3F10403D21A46
:1004C000DB071CBF11F8013B00F8013B80D331F87A
:1004D000023B20F8023B7BE7043AD9D3013A11F8FA
:1004E000013B00F8013BF9D20B7803704B78437065
:1004F0008B7883706046704788420DD98B18834291
:100500000AD900EB020CBAB1624613F801CD02F829
:1005100001CD9942F9D170470F2A0ED8034602F156
:10052000FF3C4AB10CF1010C013B8C4411F8012B4A
:1005300003F8012F6145F9D1704740EA01039B0799
:1005400050D1A2F1100370B501F1200C23F00F057A
:1005500001F1100E00F11004AC441B095EF8105CB0
:1005600044F8105C5EF80C5C44F80C5C5EF8085CC7
:1005700044F8085C5EF8045C44F8045C0EF1100E6C
:10058000E64504F11004E9D1013312F00C0F01EB40
:10059000031102F00F0400EB031327D0043C24F0F6
:1005A00003064FEA940C1E441C1F8E465EF8045B43
:1005B00044F8045FB442F9D10CF1010402F00302E3
:1005C00003EB840301EB840102F1FF3C4AB10CF11F
:1005D000010C013B8C4411F8012B03F8012F6145FC
:1005E000F9D170BD02F1FF3C03469BE72246EBE7E1
:1005F000830730B548D0541E002A3FD0CAB2034604
:1006000001E0013C3AD303F8012B9D07F9D1032CFB
:100610002DD9CDB245EA05250F2C45EA054536D939
:10062000A4F1100222F00F0C03F1200EE6444FEA71
:10063000121C03F1100242E9045542E9025510323E
:100640007245F8D10CF1010214F00C0F03EB021209
:1006500004F00F0C13D0ACF1040323F003030433B4
:10066000134442F8045B9342FBD10CF003042CB119
:10067000CAB21C4403F8012B9C42FBD130BD644636
:100680001346002CF4D1F9E703461446BFE71A4697
:10069000A446E0E7002958D030B551F8043C83B0B7
:1006A000002BA1F10404B8BFE418019000F066FC2F
:1006B000284A0198136833B1A3420DD9216804EB8D
:1006C000010C63452FD06360146003B0BDE8304077
:1006D00000F056BCA34210D81A465B68002BF9D133
:1006E000116802EB010C644519D02FD3636054608C
:1006F00003B0BDE8304000F043BC116802EB010CD0
:10070000A44516D022D8216804EB010C6345EDD135
:100710001D685B682944C4E900135460D5E7236869
:1007200019441160D1E71D685B682944C4E90013CE
:10073000CAE7246821445418A3421160C5D1D3E903
:1007400000432144C2E90013BFE770470C23036054
:10075000BBE700BF8C000020F8B5CD1C25F00305D9
:1007600008350C2D38BF0C25002D064623DBA94289
:1007700021D8254F00F002FC3A6822B3144603E06A
:1007800063682246FBB11C4623685B1BF8D40B2B25
:1007900015D8636894420CBF3B605360304600F04C
:1007A000EFFB04F10B00231D20F00700C21A01D05B
:1007B0001B1AA350F8BD0C2333600020F8BD236042
:1007C0001C442560EAE77968C9B12946304600F043
:1007D0001DF8431C0CD0C41C24F00304A04205D017
:1007E000211A304600F012F8013001D02560D5E71B
:1007F0000C233046336000F0C3FB0020F8BD3046C8
:1008000000F004F87860E0E78C00002038B5074D70
:100810000022044608462A6001F046FF431C00D02F
:1008200038BD2B68002BFBD0236038BD940000201E
:1008300038B5446C0CB1002038BD80210546FFF767
:100840008BFF0246686430B1031F7C3243F8044FCB
:100850009342FBD1EFE74FF0FF3038BD1F29F8B5C9
:10086000054608D8466C0C4617464EB156F824008B
:1008700046F82470F8BD162303604FF0FF30F8BD32
:100880008021FFF769FF0646686440B1031F00F14D
:100890007C05002143F8041F9D42FBD1E6E74FF0A1
:1008A000FF30F8BD1F2938B5054620D8426C0C46EC
:1008B0006AB152F8213053B1012B16D0591C10D017
:1008C0000025204642F824509847284638BD28463F
:1008D00000F0F8F8224601462846BDE8384000F00E
:1008E000DBB816230360012038BD002038BD162375
:1008F00003604FF0FF3038BD1F292AD8426C38B54D
:100900000C46054682B152F8243002EB84024BB10A
:10091000591C19D0012B15D0002520461560984789
:10092000284638BD012038BD8021FFF715FF02465B
:10093000686458B1031F00217C3043F8041F9842BB
:10094000FBD1E0E7032038BD022038BD4FF0FF3077
:1009500038BD4FF0FF30704738B5144B1F281D6865
:100960001FD86A6C044662B152F820304BB1012B9B
:1009700015D0591C0FD0002542F820509847284622
:1009800038BD284600F09EF8224601462846BDE8BC
:10099000384000F081B816232B60012038BD0020BC
:1009A00038BD16232B604FF0FF3038BD000000200B
:1009B000124B1F2870B51E6808D80D46716C04468E
:1009C00049B151F8240041F8245070BD162333601A
:1009D0004FF0FF3070BD80213046FFF7BDFE01466D
:1009E000706440B1031F00F17C0C002243F8042F17
:1009F0006345FBD1E5E74FF0FF3070BD00000020FC
:100A000038B50B4B1D686C6C0CB1002038BD8021D3
:100A10002846FFF7A1FE686438B1031F00F17C028D
:100A200043F8044F9342FBD1EFE74FF0FF3038BD5E
:100A30000000002038B5174B1F281D6826D86A6CA7
:100A4000044682B152F8243002EB84024BB1591CA7
:100A50001AD0012B16D0002520461560984728464D
:100A600038BD012038BD80212846FFF775FE0246BB
:100A7000686458B1031F00217C3043F8041F83428F
:100A8000FBD1DFE7032038BD022038BD4FF0FF3037
:100A900038BD00BF0000002070B50C46084D03466D
:100AA0000026204611461C462E6001F0F5FD431C31
:100AB00000D070BD2B68002BFBD0236070BD00BF41
:100AC0009400002001F0E0BD0000000000000000E4
:100AD0000000000000000000000000000000000016
:100AE000A2EB0300704700BF02780B78012A28BFF1
:100AF0009A42F5D16DE9044540EA0104CDE9026767
:100B00006FF0000C4FEA447212B380EA010414F053
:100B1000070F6AD100F0070420F0070004F0030576
:100B200021F007014FEAC505F0E8042314F0040F93
:100B3000F1E804670CFA05F462EA040266EA0406C6
:100B40000AD063EA0403624667EA0407664603E0E4
:100B5000F0E80423F1E8046782FA4CF582EA06041F
:100B6000A4FA8CF46CBB83FA4CF583EA0705A5FA6A
:100B70008CF595B950E9022351E9026782FA4CF5E8
:100B800082EA0604A4FA8CF483FA4CF583EA07059A
:100B9000A5FA8CF52543DBD09CB92DBAB5FA85F4BE
:100BA00024F0070427FA04F1DDE9026723FA04F3CD
:100BB00003F0FF0001F0FF01FDE80445A0EB010098
:100BC000704724BAB4FA84F424F0070426FA04F136
:100BD000DDE9026722FA04F202F0FF0001F0FF01F2
:100BE000FDE80445A0EB0100704714F0030F3CD171
:100BF00010F0030428D150F8082B51F8083B82FA72
:100C00004CF582EA0305A5FA8CF55DB950F8042C81
:100C100051F8043C82FA4CF582EA0305A5FA8CF5FA
:100C2000002DE8D02DBAB5FA85F424F0070423FA94
:100C300004F122FA04F202F0FF0001F0FF01FDE8E6
:100C40000445A0EB010070474FEAC40420F0030004
:100C500050F8082B21F0030151F8083B0CFA04F47A
:100C600062EA040263EA0403C9E710F003041AD03D
:100C7000A1EB040120F00300E40750F8042B06D098
:100C80000FD28B785FFAA2F4E41A06D12BB1CB789D
:100C90005FFAB2F4E41A00D11BB920465DF8104B9C
:100CA000704701F1040150F8042BCC0721F0030137
:100CB00051F8043B48D824D222F07F4482FA4CF504
:100CC00094EA1325A5FA8CF50AD165B951F8043BCD
:100CD00084EA0204B4EB036F0ED150F8042BEBE767
:100CE0004FEA132355E035F07F454DD10878FDE8F4
:100CF0000445C0F1000070474FEA126203F0FF03A1
:100D000047E002EA1C4482FA4CF594EA1345A5FA3E
:100D10008CF50AD165B951F8043B84EA0204B4EBBE
:100D2000034F0CD150F8042BEBE74FEA134330E0AC
:100D300015EA1C4528D10B884FEA124229E04FEAF8
:100D4000124203EA1C4324E002F0FF0482FA4CF54D
:100D500094EA1365A5FA8CF50AD165B951F8043BFC
:100D600084EA0204B4EB032F09D150F8042BEBE71B
:100D70004FEA13630DE015F0FF0F05D10B684FEA42
:100D8000122223F07F4304E04FF00000FDE8044509
:100D9000704712BA1BBA82FA4CF482EA0304A4FA2E
:100DA0008CF5B5FA85F402FA04F203FA04F34FEA7B
:100DB0001260FDE80445A0EB1360704700000000DE
:100DC00090F800F06DE9024520F007016FF0000C8B
:100DD00010F0070491F820F040F049804FF0000433
:100DE0006FF00700D1E9002391F840F000F108000E
:100DF00082FA4CF2A4FA8CF283FA4CF3A2FA8CF346
:100E00004BBBD1E9022382FA4CF200F10800A4FAAC
:100E10008CF283FA4CF3A2FA8CF3E3B9D1E9042300
:100E200082FA4CF200F10800A4FA8CF283FA4CF337
:100E3000A2FA8CF37BB9D1E9062301F1200182FAF1
:100E40004CF200F10800A4FA8CF283FA4CF3A2FAF7
:100E50008CF3002BC6D0002A04BF04301A4612BA05
:100E6000B2FA82F2FDE8024500EBD2007047D1E908
:100E7000002304F00305C4F100004FEAC50514F097
:100E8000040F91F840F00CFA05F562EA05021CBF68
:100E900063EA050362464FF00004A9E710B51A4C57
:100EA000002924689AB02ADB009004904FF4027065
:100EB000ADF80C0013D001394FF6FF700291059187
:100EC000ADF80E006946204600F03AF9421C01DAFE
:100ED0008B232360009B00221A701AB010BD4FF6BE
:100EE000FF7002910591ADF80E006946204600F0B2
:100EF00027F9431C01DA8B2323601AB010BD8B2322
:100F000023604FF0FF30F8E70000002030B5141EDA
:100F10009BB005462CDB4FF4027200910491ADF8B2
:100F20000C2014D04FF6FF711A46013CADF80E109C
:100F30001E9B02946946059400F002F9421C01DAF6
:100F40008B232B60009B00221A701BB030BD4FF624
:100F5000FF711A46ADF80E101E9B02946946059467
:100F600000F0EEF8431C01DA8B232B601BB030BD80
:100F70008B2303604FF0FF30F8E700BF704700BFDE
:100F8000704700BF2DE9F0478F689F420C461D4611
:100F9000164638D88246888910F4906F0ED10868BA
:100FA0003D462A463146FFF7A7FAA2682368D21BBE
:100FB0002B44A26023600020BDE8F0874B690969DB
:100FC00003EB4308236808EBD878A3EB01096B1CFB
:100FD0004FEA68084B444345424684BF9846424620
:100FE000430513D511465046FFF7B6FB074608B335
:100FF00021694A46FFF7E6F9A38923F4906343F099
:101000008003A38107E008681F46CAE7504600F046
:101010009FFB074650B107EB0900A8EB09032761C6
:10102000C4F81480A36020602F46BAE721695046B7
:10103000FFF730FB0C23CAF80030A38943F04003CC
:101040004FF0FF30A381B7E72DE9F04F936883B0ED
:101050009146002B6ED017688D6880460C46086854
:10106000083744E0A38913F4906F2ED0D4E9041517
:10107000A0EB010A05EB450505EBD5750AEB06006B
:101080006D100130A8422A4684BF05462A465B05FA
:1010900037D511464046FFF75FFB00283BD052464C
:1010A00021690190FFF78EF9A289019B22F49062D9
:1010B00042F08002A281A5EB0A0203EB0A006561FF
:1010C000A260236120603546B24659465246FFF77A
:1010D00013FAA068D9F808102368451B8E1B03EB90
:1010E0000A00A5602060C9F808601EB3083757E9F8
:1010F00002B6002EFAD0B542AA46B3D93546B2465A
:10110000E3E7404600F024FB03460028D3D12169E1
:101110004046FFF7BFFA0C23C8F80030A38900222D
:1011200043F040034FF0FF30A381C9E9012203B02F
:10113000BDE8F08F0020C9F8040003B0BDE8F08FCF
:101140002DE9F04F92468A8915069DB08846814662
:101150001C4603D50A69002A00F0EF80002209929C
:101160009AF800307E4D039420228DF829203022F9
:101170008DF82A200126002B72D0544603E014F883
:10118000013F002B76D0252BF9D1B4EB0A0B74D19B
:101190002278002A64D000234FF0FF32CDE90523E6
:1011A000049307938DF853301A93013404E0049AA2
:1011B00006FA03F313430493A246052214F8011B15
:1011C0002846FFF77DF8431B0028F0D1049BD80682
:1011D00044BF20228DF8532019079AF8001044BF0D
:1011E0002B228DF853202A2954D1039A11680432F6
:1011F000002903927CDB07919AF801100AF1010A99
:101200002E2959D0574C03222046FFF759F840B1F8
:10121000049B001B402404FA00F0034304930AF1EA
:10122000010A1AF8011B50488DF828100622FFF712
:1012300047F8002862D04D4B002B52D003AA0092F1
:101240004B4B424604A94846AFF3008007467A1C40
:1012500006D0099B3B4409939AF80030002B8CD1AF
:10126000B8F80C305B0654BF09984FF0FF301DB042
:10127000BDE8F08FB4EB0A0BF2D05B465246414614
:101280004846FFF77FFE0130EAD0099B22785B4495
:1012900009937EE7A1F13002092AB1D8079B1AF819
:1012A000011F03EB830302EB4303A1F13002092A80
:1012B000F5D92E290793A5D19AF801102A2927D10B
:1012C000039B9AF802101A6805920433002A0AF167
:1012D00002000393B8BF4FF0FF338246B8BF0593B7
:1012E00090E7039B073323F0070308330393B0E72A
:1012F000494243F00203079104937DE703AA009259
:101300001B4B424604A9484600F0CAF807469EE730
:10131000A1F130020023092A05930AF1010A3FF6E0
:1013200071AF1AF8011F03EB830302EB4303A1F132
:101330003002092AF5D9059364E74021FFF70CFA3A
:10134000C8F80000C8F8100018B14022C8F81420EE
:1013500004E70C23C9F800304FF0FF3087E700BFE7
:10136000E0660008E8660008EC660008000000007F
:10137000850F00082DE9F84F92461F460A698B68D1
:10138000DDF828909A42B8BF1A46CAF8002091F8B2
:1013900043300C46064613B10132CAF800202268D9
:1013A00091065DD5DAF800300233CAF800302268C1
:1013B00012F0060F11461ED1E168CB1A002BD8BFE0
:1013C000114618DD04F1190B4FF0000805E0E5683F
:1013D000DAF80030ED1A45450CDD01235A4639464E
:1013E0003046C847013008F10108F0D14FF0FF3016
:1013F000BDE8F88F216894F84330003B18BF012303
:101400008A060AD5E1185A1C302081F8430022448C
:1014100094F8451082F84310023304F14302394630
:101420003046C8470130E1D0236803F00603042B9F
:101430001DD0A3682269934225DD4FF000089B1A56
:1014400098441A34002501E045451CDA0123224660
:1014500039463046C847013005F10105F4D1C5E7EA
:1014600012F0060F12D0003B18BF0123D5E7DAF8BF
:101470000030E1682269C91AA368934221EAE17841
:10148000DDDC0029DDDC0020BDE8F88FE168DAF85A
:101490000030CB1A002BD8BF114693DCABE700BF5E
:1014A0002DE9F0470C4684B09046227E0C99074601
:1014B000994604F14300002A33D0A2F15803DDB26B
:1014C000202D67D8202B65D8DFE813F0DE006400FC
:1014D00064006400640064006400640064006400EC
:1014E0006400A3006E0064006400640064006E0089
:1014F000640064006400640021007F00C000640098
:101500006400AE0064007F0064006400E5002368AE
:101510001A0640F104810B6862691D1D0D601B688D
:101520001A60002382462361CDF80090434603AA47
:1015300021463846FFF71EFF013020D0236952466E
:1015400041463846C847013019D02368E068039EF9
:101550009B0719D5831B002B16DD04F1190A002502
:1015600004E0E068039E831BAB420DDD012352467D
:1015700041463846C847013005F10105F1D14FF029
:10158000FF3004B0BDE8F087B042B8BF304604B0C9
:10159000BDE8F087012384F84220236104F1420A68
:1015A000002384F84330BFE723681A0602D45E069E
:1015B00000F1C1800D682A6804350D601546002AC7
:1015C0006BDBDFF884C10A2610E023681D0640F1BA
:1015D0009C800B681D1D0D601D68DFF86CC16F2AB3
:1015E0000CBF08260A26002384F843306268A260F4
:1015F000002A7FDB236823F004032360002D5BD1E6
:10160000002A79D18246082E65D0A0EB0A0020611D
:101610008AE70B680122186804330B6004F1420A60
:1016200084F842002261BBE70B686268181D0860FD
:10163000D3F800A000215046FEF742FE002800F03B
:101640008180A0EB0A0060602061A9E7236843F075
:10165000200323607822DFF8F4C084F845200A686C
:10166000151D0D601D0643D4590641D51588DE07AA
:1016700044BF43F020032360002D44D1236823F0AE
:10168000200323601026AEE7582384F84530DFF8A6
:10169000B8C02368E3E72368DCE76268A2602D2115
:1016A000002AC5F1000584F8431002DB23F004038F
:1016B0002360DFF894C00A268246B5FBF6F306FBEA
:1016C00013512A461CF801100AF8011DB2421D46AA
:1016D000F3D2082E99D12368D90796D56268236979
:1016E0009A4292DC30230AF8013C0AF1FF3A8CE777
:1016F0001568BCE7002DDFD19CF8003084F842303B
:1017000004F1420A7FE710266DE713F0400F0B68E3
:1017100003F104050D600CBF1D681D885DE713F023
:10172000400F0B68626903F104050D601B6814BF6C
:101730001A801A60F5E60A68B2F9005004320A60AD
:101740002A463CE760687FE7F466000808670008FF
:10175000F8B51446F9B1CAB106460D4600F020F8B6
:10176000A04202D32F463846F8BD21463046FEF748
:10177000F3FF07460028F6D022462946FEF722FE50
:1017800030462946FEF786FF3846F8BD2746FEF765
:1017900081FF3846F8BDBDE8F8401146FEF7DCBFD2
:1017A00051F8040C0028A0F10400BCBF0B58C0186D
:1017B000704700BF03685A004CBF43F0004323F05A
:1017C00000431844704700BF2DE9F84329B34F1E6A
:1017D000044615463E464FF0000808EB060101EBB3
:1017E000D171491004EBC1094846FFF7E3FF0346F6
:1017F000C80008308F42204409D0AB4209D8FFF717
:10180000D9FF0138A8420AD201F10108E5E7AB424D
:1018100005D9884501D04E1EDFE74FF00009484644
:10182000BDE8F883012807D0022807D0044B002820
:101830000CBF1846002070470248704702487047A6
:10184000FD1E0008011F0008051F000830B5234BCE
:1018500083B004468D1E3BB301A92846AFF3008038
:10186000E8B101992A46FFF7AFFF0146B8B1FFF78B
:10187000A1FF4B68A064012B2CD0002B01F10400C8
:1018800024DBFFF797FF0023C4E913030368002B51
:1018900011DBFFF78FFF2061002003B030BD002374
:1018A0000920236103B030BD0D4B0E49C91AC91080
:1018B00018460191D6E7C3F30360FFF7B3FF002892
:1018C000206114BF0020092003B030BD0123C4E90A
:1018D0001303DBE7002323610520DEE7000000009F
:1018E00064690008FC6A00080368DA0710B504465A
:1018F00006D49B0700F1480009D500F05BFC236883
:10190000590709D51A070ED5DB0613D510BD00F00F
:1019100049FC23685907F5D404F1D00000F052FCCB
:1019200023681A07F0D404F5A87000F053FC23686C
:10193000DB06EBD404F5E870BDE8104000F08EBC87
:10194000092070470346006800B11844704700BF83
:10195000704700BF70B504460E46316C2046FFF755
:1019600075FF054688B9326C6261236932462146AB
:10197000012098470828F0D0072806D12846316C66
:10198000FFF7E6FF301D00F001FCFEF75DFC00BF35
:101990002DE9F0470D1DD0F80C80D0F818900746BF
:1019A00014460FCDADF5727D0DF10C0CACE80F00B7
:1019B0000FCDACE80F000FCDACE80F0095E80F009D
:1019C00002AE4FF0000E8CE80F00C6F800E020E0F9
:1019D000336C7B614FF4F07231467AA8FEF7F2FC6B
:1019E0003B697AAA394650469847889B73642146DA
:1019F000CDE9006905463B463A460120C04704460A
:101A0000E0B94FF4F0727AA93046FEF7DBFC082DFE
:101A10001AD1316C3846FFF719FF09345FFA84FA9E
:101A200005460028D4D0B36B73643A46CDE900690B
:101A30003B464AF010010120C04700B10925284665
:101A40000DF5727DBDE8F087072DF7D12046316C8A
:101A5000FFF77EFF03A800F099FB00BF406C7047C2
:101A6000F0B5CB6B0B6401F1040C0E460546BCE8E7
:101A70000F00F9B001AC0FC4BCE80F000FC4BCE804
:101A80000F000FC49CE80F004FF0FF3784E80F00F1
:101A9000009706E02B696A462946984708280446BD
:101AA00008D110992846FFF7D1FE0028F2D009206E
:101AB00079B0F0BD6846FFF717FF062CF7D1314625
:101AC0002846FFF747FF00BFC160D96B82611964E8
:101AD000002219465CE700BF70B5C66843690B6415
:101AE000AEB903690A4604460D46014602209847EE
:101AF000072805D008280FD129462046FFF72AFFDE
:101B00003046296CFFF724FF281D00F03FFB01221F
:101B1000FFF73EFFFEF798FBFEF796FBC2681AB18F
:101B2000CA6B0A64002233E79AE700BF704700BF20
:101B3000836801460BB1012018477047012912D074
:101B400009D873B90F2A0CD800EB820218465368E3
:101B5000009A136070470339012994BF01200220C5
:101B60007047022070470846704700BF00B585B037
:101B70000A46002303A900911946FFF7DFFF0398E7
:101B800005B05DF804FB00BF012912D009D873B974
:101B90000F2A0CD800EB8200009A126842601846A7
:101BA00070470339012994BF0120022070470220A9
:101BB00070470846704700BF10B584B0002303ACDF
:101BC000039200940A461946FFF7DEFF04B010BDE9
:101BD00070B5D36B136402F1040C05460C46BCE8E7
:101BE0000F00ADF50E7D0DF15C0EAEE80F00BCE808
:101BF0000F00AEE80F00BCE80F00AEE80F009CE855
:101C00000F004FF0FF368EE80F00169610E0FFF73A
:101C1000D3FF214616A8A847034616AA69460820FE
:101C200083B9049B9847052806460CD0092809D09B
:101C300026996846FFF70AFE03466A460C2116A855
:101C4000002BE4D0092616A8FFF74EFE30460DF50E
:101C50000E7D70BD2DE9F04FCC6C89B01E4654F856
:101C6000043B06940D46174600F00308002E79D079
:101C70001A0C1B0405938DF81D200223D2B204EB2D
:101C800082048DF81C302B6DB8F1020F08BFAC6BCD
:101C900013F001030CD005A9384600F079FB18B900
:101CA000082009B0BDE8F08F092009B0BDE8F08F29
:101CB000D4F800A0BAF1000FEDD0019300F00803B2
:101CC0000293022E4AD0B4F800A0B4F80290043473
:101CD000AB6C29F0010B0F2138469B44FFF746FF00
:101CE000834539D82AF001039B44834594BF0020E3
:101CF00001204FEA490303F002030AF0010A43EA14
:101D00000A03012B49D0022B32D0002BCCD1B8F1E1
:101D1000000F02D0002840F0CD800434D4F800A099
:101D2000BAF1000FCDD105A9384600F031FB0028EB
:101D3000BAD1019B002BB3D00F213846FFF716FF15
:101D40000E2102463846FFF737FF38466A4A0F2110
:101D5000FFF732FF0720A8E70020CAE7D4F8049075
:101D60000834B5E71B0205930323ADF81C308AE75E
:101D7000236823F0004BB8F1000F45D128B1029A37
:101D8000002A5CD0BBF1000F74D0002B00DA0434C1
:101D90000BF1010B04EB8B04C0E7B8F1000F19D174
:101DA000B0B163682268991C4FEAD2723FF47CAFED
:101DB00005F158010133049100F09080201DFFF7D8
:101DC000C1FD04AB0146284603F022FB00285BD18D
:101DD0000834A3E70D213846D5F82090FFF7C6FE5A
:101DE0008145F5D1AB6A9C42F2D12046FFF7E2FC77
:101DF0000F2102463846FFF7DFFE38462A4600210B
:101E0000FFF7DAFE072050E70D213846D5F820907D
:101E1000FFF7ACFE814501D02368B6E7AB6A9C4270
:101E2000FAD104230022C5E90B23E318C5F828B032
:101E30006B632368002B59DB01230193A8E705F1AD
:101E40005803CDF80C8004F1040AB04691461E46B2
:101E50000EE050460496FFF775FD0022014604ABE4
:101E6000284609F101090AF1040A03F0D1FAE0B9A0
:101E7000D945EED10D213846FFF778FE049BAC62C0
:101E8000C5E90803062010E781460D213846FFF713
:101E90006DFEB9F1020F286225D12B46049A43F852
:101EA0002C2F6B62AC620620FFE646462368DDF805
:101EB0000C806AE72046FFF77DFC04340246AC63E1
:101EC0002846144603F002FB00283FF4EDAE3846E6
:101ED00022460F21FFF770FE0720E6E60D21384667
:101EE000FFF744FE2862049B6B62DBE70BF1010005
:101EF00004EB80007AE700BF1D6000080023A9E61C
:101F00000123A7E60223A5E62DE9F0430646C3B068
:101F100015461C46042900F2BF80DFE801F09E57F9
:101F2000BD2D0300002C40F0B780102A00F2B480D1
:101F30000368D80600F1F98020AF384600F098F920
:101F4000B46B394600234FF0010C0CFA03F22A421D
:101F5000204603F1010303D050F8042B0A60044625
:101F6000042B01F10401F0D13846B46300F076F996
:101F7000002043B0BDE8F083032C40F08D8094B284
:101F800004EB1243102B4FEA124500F285800368E0
:101F90001F0700F1D28020AF384600F03DF9B26B48
:101FA00007EBC50154B10B46D01A01EBC401E400A4
:101FB0001D5843F8045B8B42FAD122443846B26381
:101FC00000F008F9002043B0BDE8F083012C4FEA8F
:101FD000124895B25CD0052C5ED108EB0509B9F129
:101FE000200F59D8B8F10F0F79D9A946002D40F02C
:101FF0008A80B36B6DB320AF4FF0000907EBC807C1
:10200000043F03EBC50553F8041B47F8041FAB421C
:10201000F9D1B9F1000F0FD06F464146102938BFF2
:10202000102107EBC101843903EBC90553F8040BF8
:1020300041F8040FAB42F9D1012C00F08680B8F1D1
:102040000F0FB56347D9B9F1000F02D0684600F011
:10205000B9F8002043B0BDE8F083ECB9806B2346AB
:102060001FFA82FC0124371D04FA03F212EA0C0F56
:10207000014604D051F8042B47F8232008460133C9
:10208000102BF1D115F40055E3D1B063284604E0DC
:1020900008EB0503102B03D9022043B0BDE8F08301
:1020A000B8F10F0FF8D83368DA0706D5304623F0B9
:1020B000030340F8483B00F079F820AF384600F0C1
:1020C00075F8B36B002D97D11D460435B5633846BE
:1020D00000F068F8BDE720A800F06CF8B3E7B9F1AC
:1020E000100F40D9A9F110093368D90708D523F09A
:1020F0000103304643F0020340F8483B00F05EF82D
:10210000B9F1000F32D033685A0720D4B8F10F0F5D
:1021100025D96F463846C8F1100500F057F8002D54
:10212000B36B7FF77AAF20AF68E723F0100333601B
:1021300006F5E87000F09CF8FEE623F00803036063
:1021400000F5A87000F068F825E720AFBDE730463D
:1021500023F0040340F8D03B00F038F8D6E720A87D
:1021600000F02CF8D5E74FF00009BDE7B8F10F0FEC
:102170003FF63FAF20AF384600F020F8B36B002D9C
:102180007FF43AAF384600F015F862E700F1340109
:1021900091E838009C46A6464CF8045D90E8FF0F95
:1021A000E54600BD90EC210B704700BF80EC210B91
:1021B000704700BF90EC200B704700BF80EC200BF5
:1021C000704700BFD0EC200B704700BFC0EC200B65
:1021D000704700BFF0EC0201F0EC0211F0EC0221BC
:1021E000F0EC0231F0EC0241F0EC0251F0EC026153
:1021F000F0EC0271F0EC0281F0EC0291F0EC02A143
:10220000F0EC02B1F0EC02C1F0EC02D1F0EC02E132
:10221000F0EC02F1704700BFE0EC0201E0EC0211CB
:10222000E0EC0221E0EC0231E0EC0241E0EC025192
:10223000E0EC0261E0EC0271E0EC0281E0EC029182
:10224000E0EC02A1E0EC02B1E0EC02C1E0EC02D172
:10225000E0EC02E1E0EC02F1704700BFB0FC01816C
:10226000B0FC0191B0FC01A1B0FC01B1704700BF0E
:10227000A0FC0181A0FC0191A0FC01A1A0FC01B186
:10228000704700BFEC4600B52DE900502DE9FF1F57
:102290004FF000032DE90C0001A9FFF7E1FBDDF889
:1022A00040E012B0704700BFEC4600B52DE9005089
:1022B0002DE9FF1F4FF000032DE90C0001A9FFF7E6
:1022C0000BFCDDF840E012B0704700BFEC4600B5F3
:1022D0002DE900502DE9FF1F4FF000032DE90C0000
:1022E00001A9FFF71BFCDDF840E012B0704700BF0A
:1022F000EC4600B52DE900502DE9FF1F4FF000031B
:102300002DE90C0001ABFFF7DFFBDDF840E012B078
:10231000704700BFEC4600B52DE900502DE9FF1FC6
:102320004FF000032DE90C0001AAFFF751FCDDF886
:1023300040E012B0704700BF027A03467AB9427A91
:10234000A2B14168013A10B44272086803220C1D20
:102350001A7202025C60000E10BC1A6070470068BE
:10236000013A1A7202021A60000E7047B0207047DC
:1023700000B585B0002303AA009219460C22FFF78E
:10238000DDFB039805B05DF804FB00BFF0E700BF7C
:102390002DE9F043054685B00E464FF00008304663
:1023A000FFF7CAFFB028044600F0BA80070620D520
:1023B00000F0F003802B4DD0902B36D0A02B60D0B6
:1023C000B02B74D0C02B00F08B8000F0F803D02B22
:1023D0000BD100F007020132052342F40022012153
:1023E0002846FFF791FD0028D9D0092005B0BDE8A7
:1023F000F0838300DBB21F1D0DF10C090023194689
:10240000CDF800900D222846FFF798FB039BCDF8EE
:10241000009060064CBFDF1BFF1800230D221946F9
:1024200028460397FFF7B0FBB9E700F00D030D2B2B
:10243000DBD003AF002300F00F02194600972846B7
:10244000FFF77CFB002300970D2219462846FFF773
:102450009BFBA4E73046FFF76FFF24022043B0F553
:10246000004FC2D004010023A2B219462846FFF74C
:102470004BFD0028B9D114F4004F18BF4FF00108EC
:102480008DE7C24302F007034FF47F621A41010750
:1024900002F47F624FF0000348BF42F480421946C5
:1024A0002846FFF731FD00283FF479AF9DE7B128BA
:1024B0003BD0B22800F09380B32841D000F0FC0359
:1024C000B42B92D000F007020132012342F4002223
:1024D00019462846FFF718FD00283FF460AF84E74F
:1024E000C6284AD0C72854D000F0F803C02B63D0C8
:1024F000C82868D0C9287FF478AF3046FFF71CFFA2
:10250000020300F00F0002F47022013002430121A7
:1025100005232846FFF7F8FC00283FF440AF64E7A6
:10252000B8F1000F18D0002060E73046FFF704FF35
:10253000024600283FF459AF10F0F003C8D054E72A
:102540003046FFF7F9FE020300F00F03013302F4F7
:1025500070221A430123BBE703AC43460E224146D7
:1025600000942846FFF7EAFA009443460F224146BA
:102570002846FFF709FB404638E73046FFF7DCFE08
:10258000020300F00F03013302F470221A43032305
:102590009EE73046FFF7D0FE024600283FF425AF05
:1025A00010F0F0037FF421AF04212846FFF7ACFCC4
:1025B00000283FF4F4AE18E700F00F0201320323C5
:1025C00042F4202284E73046FFF7B6FE00F0F00226
:1025D00000F00F031032013343EA023297E7002381
:1025E0000DF10C090D221946CDF800902846FFF791
:1025F000A5FA3046FFF7A0FE02064FF002040CD504
:10260000039B00F07F00A040184403903046FFF782
:1026100093FE030604F10704F2D4039BCDF8009067
:1026200000F07F02A24003F501731A4400230392D5
:1026300019460D222846FFF7A7FAB0E610B5C26C7E
:10264000536884B04FF0030C08321C0208461B0E7E
:1026500001A9019402928DF80CC08DF80D30FFF79E
:1026600097FE04B010BD00BF08B5FFF78FFE806C69
:1026700008BD00BF08B5FFF789FEC06CC3790233FF
:1026800000EB830008BD00BF024B58221A604FF0D8
:10269000FF30704794000020024B58221A604FF020
:1026A000FF30704794000020044A05491368002B4E
:1026B00008BF0B4618441060184670479800002069
:1026C000F0010020FEE700BF034AD2F8883043F44F
:1026D0007003C2F88830704700ED00E0154A536877
:1026E00003F00C03042B0CD0082B0CD0124B114A16
:1026F000124852681249C2F30312825CD3400B6045
:102700007047104BF3E753685168C3F38343C90321
:1027100003F1020303D40C4A02FB03F3E7E7D26A96
:10272000084902F00F020132B1FBF2F202FB03F39F
:10273000DDE700BF0010024000127A009C61000833
:1027400064000020808D5B0000093D001649174B96
:102750000A6800B542F012020A601A6842F4A02228
:1027600083B01A601A689203FCD559680F4A41F485
:1027700080615960596841F420115960596841F4E9
:1027800080315960196841F08071196013689B01AC
:10279000FCD55368019043F002035360FFF79EFF9E
:1027A000019803B05DF804FB0020024000100240D5
:1027B000704700BF0A6802604A6842608A89D1F89F
:1027C00008C082818A7BC0F808C08273704700BF4E
:1027D000704700BF0379413B2DE9F043032B55D8E7
:1027E000DFE803F0726456023E4A536943F48013F3
:1027F000536100210C2448233B4A017044708170CE
:10280000C370D0F80570002303260F2503F00701DD
:1028100027FA03F44FEA430E8900E40706FA0EF89C
:1028200005FA01F92DD5146824EA080414609468A7
:10283000072BCCBF4FF0040C4FF0000C944424EA5B
:1028400008049460DCF82080847A28EA0908CCF82F
:102850002080D2F8008004FA0EF444EA08041460E0
:10286000447AD2F8088004FA0EFE4EEA0804946016
:10287000D0F80BE0DCF820400EFA01F12143CCF84F
:1028800020100133102BC1D100235361BDE8F08328
:10289000144A536943F40023536100210824482358
:1028A000124A017044708170C370AAE70D4A5369DF
:1028B00043F4802353610021042448230C4A01700F
:1028C00044708170C3709CE706494A69002342F452
:1028D000003248244A614FF0904203704370837085
:1028E000C4708EE700100240000C00480008004849
:1028F0000004004830B44268022A05D0032A54D0AC
:10290000012A42D030BC70473049CB6943F40033D0
:10291000CB610022402444252D4B0270827045700B
:10292000C4700122016A19B1996841F0800199606F
:10293000C16919B1996841F040019960012A254A9D
:10294000816812680CBF09014901D200B2FBF1F2A3
:10295000DA608169D0F814C01D68CA0142EA4C12DD
:102960002A431A605CEA01021CBF1B4A54600269D8
:10297000C0681968D20042EA80020A431A601A68E5
:1029800042F0010230BC1A60704710498B6943F471
:1029900080438B610024382340210470437082708F
:1029A0000E4BC17020240222BCE70849CB6943F4D6
:1029B0008023CB6100224824402102704470827041
:1029C000074BC17080240122ACE700BF0010024019
:1029D000004400406400002000E100E000380140B5
:1029E000004800402049214ACB6943F0805310B48D
:1029F000CB61136843F4807313601368D905FCD569
:102A0000194A1B4B116A41F4F8511162116A41F4E1
:102A100080311162116A21F480311162116A41F42E
:102A200040711162116ACA24532041F400411162BD
:102A30005C625862DA6842F08002DA60DA68520654
:102A4000FCD541F63F721A611A690A495DF8044BD8
:102A500042F4F8021A611960DA68002122F080025B
:102A6000DA605962704700BF0010024000700040F9
:102A70000028004030291100114B1A68C2F301529E
:102A800030320A701A68C2F303423A2030324A7078
:102A900088701A68C2F302323032CA701A684871FC
:102AA000C2F3032230320A711A68C2F302123032C2
:102AB0008A711B6803F00F033033CB71704700BF7E
:102AC000002800404368012B0ED1544A536943F05B
:102AD000010310B553618368072B55D8DFE803F075
:102AE000050555616D798591704700230221082401
:102AF000402243704A4B81700470C2704FF40061F1
:102B000000221A601A68002AFCD1C268DA600269E1
:102B10009A6042695A60427E90F81AC01C6892021C
:102B200042EA0C2222431A601A6842F440521A60A8
:102B3000D0F81B20D0F81FC01C68D20142EA8C12CA
:102B400022431A601A6890F82B4042EA04121A6075
:102B50001A68D0F8274042EA44121A60D0F82CC014
:102B6000D0F830E01C684FEA4C0242EA8E02224361
:102B70001A605EEA0C021CBF2A4A1160426B1AB14D
:102B80001A6842F001021A6010BD002302211C24C1
:102B9000402243708170244B0470C2704FF4805106
:102BA000AEE70023022130244022437081701F4B86
:102BB0000470C2704FF40051A2E7002302214424A4
:102BC0004022437081701A4B0470C2704FF48041F0
:102BD00096E7002302215824402243708170154B50
:102BE0000470C2704FF400418AE7002302216C2474
:102BF000402243708170104B0470C2704FF48031DA
:102C00007EE7002302216FF07F0440224370817031
:102C10000A4B0470C2704FF4003171E7001002409B
:102C20000800024000E100E01C00024030000240C9
:102C300044000240580002406C0002408000024004
:102C40004368013B30B4102B54D8DFE803F05566DD
:102C50007653538696535353535353535353090048
:102C60004E4A936943F48023936101234824002151
:102C7000402283704A4B44700170C2704FF08064F0
:102C800080221A6002691AB11A6842F004021A60BE
:102C9000C2691AB11A6842F008021A6082689A6220
:102CA000C268DA6200225A62427E90F818C01D683B
:102CB000D20042EA0C122A431A6090F81AC0C27E6F
:102CC0009D6842EA0C122A439A60426942B1DA686E
:102CD00042F4807242F00102DA60324A42F8214046
:102CE0005A6942F001025A61026A1AB11A6842F046
:102CF00001021A6030BC7047284A936943F40063AC
:102D000093612C24012300214022447083700170C0
:102D1000254BC2704FF00074B2E7204AD3690021FE
:102D200043F001034025D3614FF08054017041709E
:102D30008170C5704FF08043A2E7184AD36943F011
:102D40000203D3610021042440234470C370017046
:102D5000164B81704FF0005492E71049CB69102454
:102D60002343CB61002240214470C170104B02709C
:102D700082704FF48004012182E70849CB6943F057
:102D80002003CB610022142440214470C170094B00
:102D9000027082704FF40004012171E700100240BC
:102DA0000048014000E100E0002C01400004004028
:102DB00000100040001400404368012B00D0704711
:102DC00010B4344C017AA26942F48052A26100240A
:102DD000314A047030244470C90040248370C470A8
:102DE00011601168D0F81140437F41EA84011160FD
:102DF0001168D0F8094041EA442111601168D0F807
:102E00000D4041EA042111601468D0F819102143E3
:102E100011601168D0F815401B0341EA44011160AC
:102E200053605368817F43EA01235360D0F81F1039
:102E3000536843EAC10353605368D0F8231043EA50
:102E4000810353605368D0F8331043EA4103536061
:102E50005168D0F82F300B4353605368D0F827C027
:102E600043EA8C135360D0F82B10536843EAC11324
:102E700053605CEA010302D0084B08225A60064AFC
:102E8000D0F8371013685DF8044B43EA81131360E0
:102E9000704700BF001002400030014000E100E038
:102EA00003689A689007FCD5D9609A68D207FCD568
:102EB000D86870470368D3E901214FEA620C01EB3F
:102EC0006200D20745BF51F80C201B681B68D3581D
:102ED000184700BF38B5044662B1012A0ED0022A55
:102EE00010D0032A04D1006810B10C2102F06AFA54
:102EF000002038BD094B0360002038BD0B6803601B
:102F0000002038BD0C200D6802F05EFE034695E8F7
:102F10000700236083E80700EAE700BF7C6500083C
:102F2000C36B10B5044623B100F1340103220846F7
:102F30009847E06904F12403984203D0616A0131A3
:102F400002F040FA234653F8080B984203D0A168D8
:102F5000013102F037FA204610BD00BF0EB400B5B3
:102F6000154A82B01368002BFCD1012104AB11601B
:102F70001248039A01938021FDF790FF104AD2F87E
:102F8000803023F00103C2F88030D2F88030DB07B4
:102F9000FBD40A490B4BC2F88C10C2F88830C2F837
:102FA0008400D2F8803043F00103C2F8803002B0D0
:102FB0005DF804EB03B0704744010020A00000203E
:102FC000000002402844004010B584B000230446AD
:102FD00001A90C308DF80C30FFF74EFD034901AA12
:102FE0002046FFF7BBFF04B010BD00BF68630008B8
:102FF0000149FFF7B3BF00BF70630008F8B51A4975
:103000000546FFF7ABFF19492846FFF7A7FF184908
:103010002846FFF7A3FF17492846FFF79FFF1649E9
:103020002846FFF79BFF15492846FFF797FF1449ED
:103030002846FFF793FF13492846FFF78FFFD5E98E
:103040005646B44209D0104FE36954F8442B394630
:103050002846FFF783FFA642F6D128460949BDE876
:10306000F840FFF77BBF00BFAC610008E4610008D7
:103070003C6200088C620008E862000824630008D3
:103080006063000878630008A4630008F8B505468B
:103090000C30FFF7A7FCD5E90046B44205D0204626
:1030A0000F34FFF797FBA642F9D105F13100FFF786
:1030B00009FD05F10D00FFF71DFC05F16C0001F0A5
:1030C00041FE1C492846FFF749FF1B492846FFF7E8
:1030D00045FF1A492846FFF741FF19492846FFF7DF
:1030E0003DFF18492846FFF739FF17492846FFF7E3
:1030F00035FF16492846FFF731FF15492846FFF7E7
:103100002DFF14492846FFF729FFD5E95646B4425A
:1031100009D0114FE36954F8442B39462846FFF78C
:103120001DFFA642F6D128460A49BDE8F840FFF740
:1031300015BF00BF70630008AC610008E4610008BF
:103140003C6200088C620008E86200082463000802
:103150006063000878630008A4630008054B1A68E0
:10316000920105D5044A4FF00070002158601160AB
:10317000704700BF00000240440100201C4BDA6988
:10318000920611D59B8CDBB20D2B10B40DD0082B01
:103190001CD07F2B1AD01749174C0A68501C1F28C7
:1031A000A3541DDC086009E07047124B124C1868EC
:1031B00012490022225401201A6008600C4A5DF86E
:1031C000044BD36923F02003D3617047094A136885
:1031D000013B48BF00231360074A0021D154EDE7AB
:1031E000064B00204FF0FF3208601A60E6E700BF90
:1031F000004400409C000020240100202001002009
:1032000070B5D0E90045AC42064606D020460F34E2
:10321000FFF7DEFAA542F9D1356825B1B168284635
:10322000491B02F0CFF8304670BD00BFF8B5D0E9B9
:103230000056B54207460FD005F1080454F8080CB3
:10324000844211D0A9681835013102F0BBF8AE42B2
:1032500004F11804F2D13E6826B1B9683046891BE2
:1032600002F0B0F83846F8BD1835AE4204F1180443
:10327000E4D13E68F0E700BF2DE9F04FD0E90074DB
:103280008C4BE51BED1003FB05F58B4B9D4285B088
:1032900000F0F380012D92462A4638BF0122AD1876
:1032A00080460E4680F0C380CA1B002D40F084800B
:1032B000A946DAF80030019309EB020B0BF1080183
:1032C000DAF804A049F802100091002B00F0C68043
:1032D000BAF10F0FCDF80CA000F2AC80BAF1010FDB
:1032E00040F0C5801B788BF80830009ACBF804A01A
:1032F0000023BE4202F80A3000F0B78009F108034B
:1033000007F108013A4643F8083C1068884274D037
:1033100043F8080C90681860506843F8040C1832A1
:10332000B24201F1180103F11803ECD1A6F1180320
:10333000624ADB1BDB0802FB03F323F0604301332B
:1033400003EB430309EBC303A64203F1180A24D09D
:10335000203306F108003246116843F8083C8142E8
:1033600037D043F8081C91681960183252F8141CC1
:1033700043F8041CA24200F1180003F11803EBD13A
:10338000A31B4E4A183BDB0802FB03F323F0604308
:10339000013303EB43030AEBC30A2FB1D8F808103B
:1033A0003846C91B02F00EF84D44C8E9009AC8F827
:1033B000085005B0BDE8F08F9D4228BF1D4605EBC3
:1033C0004505ED002846009202F0FEFB009A81467A
:1033D0006FE7016819604168596081689960C16848
:1033E000D960183252F8141C43F8041CA24200F1B0
:1033F000180003F11803AFD1C2E78868D1F800E0E4
:10340000D1F804C0D1F80CA0C3F80CA0C3F800E0B8
:10341000C3F804C09860506843F8040C1832B242F4
:1034200001F1180103F118037FF46DAF7EE7244D1D
:10343000CA1BC7E7002203A9584602F085FC039B7C
:10344000CBF80000CBF8083052460199FCF7BAFFE0
:10345000DBF80030DDF80CA0009346E7BAF1000F6E
:103460003FF443AF174802F05CFC4B466CE7BAF1FF
:10347000000F3FF43AAF0098E6E7134802F054FC1F
:1034800002F077F8B9F1000F05D02946484601F05F
:1034900099FF02F062FBDBF80000009B8342F8D04A
:1034A000DBF80810013101F08DFFF2E702F08AF835
:1034B00001F08AFFABAAAAAA55555505ABAAAA0ADC
:1034C000F8FFFF7FCC630008B06300082DE9F04FE0
:1034D0008BB0002406AAD1F85431DFF8488184600B
:1034E000C0E90044CDE9042406460F468DF8184093
:1034F000A24606E0D7F854311A5D611C002A38D084
:103500000C461D5D092D02D015F0DF0F3DD141465F
:1035100004A802F02DFD0028ECD0D6E901539D420D
:1035200047D005F108002860DDE904B9BBF1000FC0
:1035300055D0B9F10F0FCDF80C9040D8B9F1010F6B
:103540005DD19BF800302B72C5F8049000F809A0FB
:10355000736818337360059ACDF800A043460021C4
:1035600004A802F087FCD7F854311A5D611C002AC8
:10357000C6D1049806AB984203D00699013101F0F8
:1035800021FF30460BB0BDE8F08FDDE9043B06AA11
:10359000934218BF069A0BF1010908BF0F2291450B
:1035A00023D803F80B50049BCDF8149003F809A01E
:1035B000A0E7294604AA3046FFF75EFECBE70022CB
:1035C00003A9284602F0C0FB039B2860AB604A4673
:1035D0005946FCF7F7FEDDF80C902868B4E7B9F11E
:1035E000000FB1D00E4802F09CFB01230093002392
:1035F0001A46594604A802F001FC049BD1E7B9F130
:10360000000FA1D0E3E7049806AB984203D00699D7
:10361000013101F0D7FE3046FFF708FE01F0D4FE7D
:10362000CC6300086C6300082DE9F047474C84B078
:1036300007462368002BFCD0236801336DD04FF080
:10364000000A394601A8C4F800A0FFF73FFFDDE9F2
:1036500001563F4A731BDB1002FB03F313F0FF0319
:103660002ED0D7E95648444561D0DFF8F090443475
:103670005E1E03E044451ED0019D443454F8402CA6
:103680006B689A42F6D12D6832B154F8440C294641
:10369000FCF766FE0028EDD114F92C3CB3422AD089
:1036A000013328D02A4649463846FFF757FC44459F
:1036B0004FF0010AE0D1BAF1000F38D0DDE9015630
:1036C000B5420FD005F1080454F8080CA0421DD0F3
:1036D000A9681835013101F075FEB54204F11804EE
:1036E000F2D1019E26B103993046891B01F06AFE92
:1036F00004B0BDE8F08754F8083CFBB154F8043C32
:10370000A4F1100098474FF0010AB3E71835B5420D
:1037100004F11804D8D1019EE4E70E4900232022C9
:103720003846236004B0BDE8F047FFF717BCD7F870
:10373000542109493846FFF711FCBFE702F0F7FAB8
:1037400001A8FFF773FD01F03FFE00BF200100203C
:10375000ABAAAAAAF8630008386400081464000839
:10376000F0B585B00146054601A8FFF7AFFEDDE9DB
:103770000146B4421CD0164F54F8182B394628463F
:10378000FFF7ECFBA642F7D1DDE90156B5420FD0B9
:1037900005F1080454F8080C844211D0A9681835C2
:1037A000013101F00FFEAE4204F11804F2D1019E86
:1037B00026B103993046891B01F004FE05B0F0BD27
:1037C0001835AE4204F11804E4D1019EF0E700BFC1
:1037D000686300082DE9F04385B00146054601A85D
:1037E000FFF774FE01985849183002F0C1FBE0B9A8
:1037F0004FF0904205F22F17536943F010035361C5
:103800000121384601F046FA05F1F4060B24FF21A8
:103810003046FFF745FB013CF9D16421384601F001
:1038200057FA4A492846FFF799FB0198484918304A
:1038300002F09EFB044600285DD1464A93681906B3
:10384000FCD44FF0904205F22F18536923F0100377
:1038500053616421404605F16C0701F039FAD5F84F
:10386000EC3040221A70D5F8EC2000235370D5F8C4
:10387000EC209370D5F8EC20D370D5F8EC201371C0
:10388000D5F8EC3095225A71384601F08BFA324E59
:1038900005F1F4090AE0384601F084FAD5F8F03071
:1038A0001B78FF2B16D101340A2C13D0E307F2D476
:1038B0000121384601F062FAFF214846FFF7F0FA8D
:1038C0003368002BFCD000233360D5F8F0301B7830
:1038D000FF2BE8D04FF090424046536943F010036D
:1038E0005361642101F0D6F9D5F8F0301B491A78FC
:1038F0002846FFF733FBDDE90156B5420FD005F14D
:10390000080454F8080CA04212D0A96818350131F7
:1039100001F058FDAE4204F11804F2D1019E26B127
:1039200003993046891B01F04DFD05B0BDE8F083D9
:103930001835AE4204F11804E3D1019EEFE701A867
:10394000FFF774FC01F040FD506400085864000863
:10395000686400080030014088010020706400089D
:103960002DE9F04FD0E900A6494B0D46A6EB0A071A
:10397000484907FB03F38B4283B000F08680012B9C
:103980001F4638BF0127FF1881467AD2A5EB0A04EB
:10399000002F66D100974FF00F0BB84608EB0403D9
:1039A000116848F80410516859609168996055454C
:1039B0009189927B99819A7322D008F10F07D3469F
:1039C000DBF80010DBF80420DBF8080047F8070CF0
:1039D00047F80F1C47F80B2CBBF80C209BF80E1077
:1039E00007F8011C27F8032C58460BF10F0BFEF7C4
:1039F000EFFE5D4507F10F07E2D10F3408EB040B32
:103A0000B5421CD00BF10F072C4622686068A168F4
:103A1000B4F80CC047F80F2CA27B47F80B0C27F822
:103A200003CC47F8071C07F8012C20460F34FEF79B
:103A3000CFFEA64207F10F07E7D1751BAB44BAF1E1
:103A4000000F06D0D9F808105046A1EB0A0101F08A
:103A5000B9FC009BC9F80830C9E9008B03B0BDE888
:103A6000F08F8F4228BF0F46C7EB071738460192E9
:103A700002F0AAF8C319019A0093804600F10F0BD7
:103A80008CE7054FA5EB0A04F0E7044802F04CF977
:103A9000EFEEEEEE88888808F8FFFF7FB06300083D
:103AA0002DE9F04F034687B0D3F804B002900068C8
:103AB000CD4E01901446ABEB0003CC4A9B1002FBA9
:103AC00003F3B34200F09A81012B1A4638BF01225A
:103AD0009B18894680F08E810D1A002B40F0628180
:103AE00003934FF0440A00931E462246731952F87E
:103AF000081B03F108009142705100F06C81715174
:103B0000A1689960226062685A600022E16962607F
:103B10002272227E1A7604F1240203F124009142DB
:103B2000D86100F04F81D961616A59620027E26172
:103B300004F13405226A84F82470276295E80300B2
:103B40001A6204AE03F1340286E8030092E803002F
:103B500085E8030096E8030082E80300D4F83CC03F
:103B6000256C1A6CC3F83CC01D64019BE763994542
:103B7000226476D0009A03F1080802F1440503F1AB
:103B80002404A5F13C0245F8442C54F8243C434558
:103B9000AA4600F0C98045F8443C54F81C3C45F85E
:103BA0003C3C54F8203C45F8403C14F90C3C04F8EB
:103BB0001C7CA5F1200244E9098705F82C3C45F856
:103BC000282C54F8083CA34200F0BF8045F8283C5C
:103BD000236845F8203C54F8043C45F8243CA446AE
:103BE00044E902470CF8107B45F8087C9CE8030088
:103BF000A5F1100386E8030093E803008CE80300B6
:103C000096E8030083E80300A369A76145F8083C30
:103C1000D4E9063255F8041CE16145F8042C1BB1C7
:103C2000032261466046984754F8080CA04203D02E
:103C30002168013101F0C6FB54F8240C404505F120
:103C4000440508F144085AD054F81C1C013101F015
:103C5000B9FB04F12003994504F1440491D10AF120
:103C6000440AD94500F08D800AF1080209F12403C5
:103C70004C46002732E042F8080C53F81C0C106048
:103C800043F8241C13F80C1C117453F8081C53F847
:103C9000200C03F81C7C02F11C058B42556142F894
:103CA000040C43F8207C32D051611968D16153F87B
:103CB000041C916103F1100103C9D3E906EC4434FB
:103CC00002F12C055C4502F1440285E8030086E818
:103CD000030042E904EC03F1440344D053F8240CFC
:103CE00042F8082C04F108018842C4D1A068106091
:103CF0004868506088689060C868D060C0E704F188
:103D00002003994504F144047FF43BAFA7E7D3F8BF
:103D100000E0D3F804C09868D9689162C2F81CE04A
:103D2000C2F820C05062C2E7D8F800C0D8F804003A
:103D3000D8F80810D8F80C3045F8303C45F83CCCA1
:103D400045F8380C45F8341C2BE7D4F800C06068FF
:103D5000A168E36845F8143C45F820CC45F81C0CF4
:103D600045F8181C37E7A4EB0903214A443B9B089C
:103D700002FB03F323F04043013303EB03130AEB8D
:103D8000830A019B2BB1029A91681846C91A01F067
:103D900019FB029B009AC3E9002A039A9A6007B0B4
:103DA000BDE8F08FB34228BF334603EB03139E00F8
:103DB000304601F009FF82190090039200F1440A95
:103DC000064692E6616A5962516899629168D962C1
:103DD000D1681963AAE6A16899605168D9609168B1
:103DE0001961D16859618DE6E1E1E101F1F0F0F08E
:103DF000F1F0F030019B034ECD1AD9E7024801F0F3
:103E000093FF00BFC4FFFF7FB063000870B5D0E927
:103E10000134A34282B00A4644D003F108041C6076
:103E2000844651F8080B88424CD01860906898601E
:103E300050685860157E002003F12404C2E9001088
:103E400010721D76DC61D06902F1240188422ED007
:103E5000D861506A58620024106A1862C2E90714D7
:103E600082F8244002F13406DC6396E803006D46D4
:103E700003F1340E85E803009EE8030086E80300A2
:103E800095E803008EE80300D16BD963DCF80410D9
:103E9000106CD4631C6C146444311864CCF80410A6
:103EA00002B070BD1946FFF7FBFD02B070BDD2F83D
:103EB00024E04E688D68C8681863C3F824E09E62E9
:103EC000DD62C8E7D2F808E04E688D68C8685861BE
:103ED000C3F808E0DE601D61AAE700BF2DE9F04FDE
:103EE000A3B0B44B079304230022804607AF069388
:103EF0000DAE152311A90BA805978DF820200B9660
:103F0000119301F021FFAC4D119B0B900D930446D2
:103F10000FCD2060E36028682B7920616160A2608A
:103F20002375119B0B9A0C934FF0000C02F803C001
:103F30000C20CDF80CC001F047FEA04B0360DDF86B
:103F400014A09F4B049300229E4B069D019013AC3E
:103F500008F5AC79C0F80880039342601194BAF177
:103F6000000F00F0D1830F2D009500F23883012D52
:103F700040F027849AF800308DF84C302346002218
:103F800012955A55DDF82CB0DDF830A08DF85C2084
:103F90001AAD1895BBF1000F00F0B983BAF10F0FFD
:103FA000CDF800A000F23883BAF1010F40F00D8483
:103FB0009BF800308DF868302A460023CDF864A0C5
:103FC00002F80A302093039B4BB10DF1780A0222CC
:103FD00001A950469847049B2193039B209311A964
:103FE0004846FFF713FF209B1BB11EA9032208467A
:103FF00098471898A84203D01A99013101F0E2F9C4
:104000001198A04203D01399013101F0DBF9039B11
:104010001BB101A90322084698470B98B04203D070
:104020000D99013101F0CEF90598B84203D00799F6
:10403000013101F0C7F9644B05971B68ADF81C30DE
:104040001B0C8DF81E3003230022069311A91223A6
:104050000BA80B968DF81F20119301F075FEDFF869
:1040600070E1119B0B900D938446BEE80F00CCF8D5
:104070000C30BEF80030CCF80000CCF80410CCF8BE
:104080000820ACF81030119B0B9A0C934FF0000AEB
:1040900002F803A00C20CDF80CA001F095FD484BD0
:1040A0000493DDF814B0474B0393484BC0F804A0C9
:1040B00052460190DDF818A0C0F808801194036002
:1040C000BBF1000F00F03283BAF10F0FCDF800A062
:1040D00000F29382BAF1010F40F069839BF800303F
:1040E0008DF84C3023460022CDF848A003F80A2072
:1040F000DDE90BBA8DF85C201895BBF1000F00F0DC
:104100001083BAF10F0FCDF800A000F2B282BAF11D
:10411000010F40F051839BF800308DF868302A463B
:104120000023CDF864A002F80A302093039B4BB122
:104130000DF1780A022201A950469847049B219369
:10414000039B209311A94846FFF760FE209B1BB1FB
:104150001EA90322084698471898A84203D01A9926
:10416000013101F02FF91198A04203D013990131C8
:1041700001F028F9039B1BB101A9032208469847C7
:104180000B98B04203D00D99013101F01BF905984D
:10419000B84203D00799013101F014F9DFF834C0B7
:1041A00005970423CDE9063C002219230BA811A989
:1041B00012E000BF68656C7084640008FD2F000881
:1041C000B52E0008D52E00089C640008F12F0008C9
:1041D000A064000874696D650B968DF8202011931A
:1041E00001F0B2FDDFF830C3119B0B900D938646B2
:1041F000BCE80F00CEF80000CEF80410BCE80300C5
:10420000CEF80C309CF80030CEF81000CEF8082024
:10421000CEF814108EF81830119B0B9A0C934FF0B7
:10422000000A02F803A00C20CDF80CA001F0CCFC91
:10423000B14B0493DDF814B0B04B0393B04BC0F80E
:1042400004A052460190DDF818A0C0F8088011942F
:104250000360BBF1000F00F05F82BAF10F0FCDF8E1
:1042600000A000F2F781BAF1010F40F09B829BF8A9
:1042700000308DF84C3023460022CDF848A003F8DA
:104280000A20DDE90BBA8DF85C201895BBF1000F10
:1042900000F05182BAF10F0FCDF800A000F2CB81EF
:1042A000BAF1010F40F09B829BF800308DF8683026
:1042B0002A460023CDF864A002F80A302093039B1D
:1042C0004BB10DF1780A022201A950469847049B90
:1042D0002193039B209311A94846FFF797FD209B4C
:1042E0001BB11EA90322084698471898A84203D07C
:1042F0001A99013101F066F81198A04203D0139980
:10430000013101F05FF8039B1BB101A903220846AC
:1043100098470B98B04203D00D99013101F052F843
:104320000598B84203D00799013101F04BF875495F
:10433000754B0B960422CDE906210FCBB446ACE8B1
:1043400007002CF8023B1B0C4FF0000E8CF80030DD
:104350004FF00F0A0C2005978DF820E0CDF80CE007
:10436000CDF830A08DF843E001F02EFC624B0493B1
:10437000DDF814B0614B03930022644BDDF818A004
:104380000190C0F80880119403604260BBF1000FF7
:1043900000F0D681BAF10F0FCDF800A000F27881BD
:1043A000BAF1010F40F020829BF800308DF84C30BC
:1043B00023460022CDF848A003F80A20DDF82CB0EF
:1043C000DDF830A01895FF238DF85C30BBF1000FAD
:1043D00000F0BB81BAF10F0FCDF800A000F26781A9
:1043E000BAF1010F40F005829BF800308DF868307B
:1043F0002A460023CDF864A002F80A302093039BDC
:104400004BB10DF1780A022201A950469847049B4E
:104410002193039B209311A94846FFF7F7FC209BAB
:104420001BB11EA90322084698471898A84203D03A
:104430001A99013100F0C6FF1198A04203D01399D8
:10444000013100F0BFFF039B1BB101A90322084605
:1044500098470B98B04203D00D99013100F0B2FF9C
:104460000598B84203D00799013100F0ABFF46F23E
:104470007342274BADF81C20022206920FCBB446A4
:104480000B96ACE807002CF8023B1B0C4FF0000E1B
:104490008CF800304FF00F0A0C2005978DF81EE0C5
:1044A000CDF80CE0CDF830A08DF843E001F08CFBA6
:1044B000114B0493DDF814A0104B03930022154B0D
:1044C000C0F808800190DDF8188011940360426004
:1044D000BAF1000F00F03E81B8F10F0FCDF8008067
:1044E00000F2F480B8F1010F40F088819AF80030B2
:1044F0008DF84C30234611E0B52E0008D52E00086B
:10450000C92F00086563686FD06400086137000830
:10451000E0640008D5370008B46400080022CDF834
:10452000488003F80820DDF82CA0DDF830801895CD
:1045300001238DF85C30BAF1000F00F01081B8F162
:104540000F0FCDF8008000F2D080B8F1010F40F0DD
:1045500041819AF800308DF868302A460023CDF862
:10456000648002F808302093039B4BB10DF1780A68
:10457000022201A950469847049B2193039B209354
:10458000484611A9FFF742FC209B1BB11EA903223C
:10459000084698471898A84203D01A99013100F0AC
:1045A00011FF1198A04203D01399013100F00AFFC6
:1045B000039B1BB101A90322084698470B98B04200
:1045C00003D00D99013100F0FDFE0598B84203D0EB
:1045D0000799013100F0F6FE23B0BDE8F08F69467F
:1045E00011A801F0B1FB009B119013932A4651468C
:1045F000FBF7E8FE009D119BC1E4694611A801F09C
:10460000A3FB009B1190139352465946FBF7DAFE29
:10461000DDF800A0119B66E5694618A801F094FB3F
:10462000009B18901A9352465946FBF7CBFEDDF8D3
:1046300000A0189AC1E4694618A801F085FB009B08
:1046400018901A9352465946FBF7BCFEDDF800A0BD
:10465000189A2EE6694611A801F076FB009B11908E
:10466000139352465946FBF7ADFEDDF800A0119BAF
:1046700002E6694618A801F067FB009B18901A93A0
:1046800052465946FBF79EFEDDF800A0189A47E512
:10469000694611A801F058FB009B119013935246F4
:1046A0005946FBF78FFEDDF800A0119B81E66946B5
:1046B00018A801F049FB009B18901A9352465946DE
:1046C000FBF780FEDDF800A0189A92E6694611A873
:1046D00001F03AFB009B1190139342465146FBF7C1
:1046E00071FEDDF80080119B18E7694618A801F0FB
:1046F0002BFB009B18901A9342465146FBF762FE33
:10470000DDF80080189A29E78DBB234637E4BAF11B
:10471000000F2FD12A4650E4BAF1000F2DD12346C5
:10472000AAE5BAF1000F2BD12A46F9E4BAF1000F3D
:1047300029D12346D7E4BAF1000F27D12A46B8E59C
:10474000BAF1000F25D1234633E6BAF1000F23D189
:104750002A464EE6B8F1000F21D12346DEE6B8F135
:10476000000F01D12A46F9E69A4801F0DAFA994891
:1047700001F0D7FA974801F0D4FA964801F0D1FA3F
:10478000944801F0CEFA934801F0CBFA914801F039
:10479000C8FA904801F0C5FA8E4801F0C2FA8D4877
:1047A00001F0BFFABAF1000FB9D0204659E7BAF1CB
:1047B000000FBED0204627E7BAF1000FB4D028463C
:1047C0005EE7002DA1D0204610E7BAF1000FA1D07E
:1047D000284628E7B8F1000FC4D028468CE7BAF184
:1047E000000FABD028462DE7BAF1000FABD0204622
:1047F00055E7BAF1000FABD028465FE7B8F1000FDC
:10480000ABD0204669E71198A04203D0139901313B
:1048100000F0D8FD039B1BB101A90322084698476D
:104820000B98B04203D00D99013100F0CBFD0598F3
:10483000B84203D00799013100F0C4FD00F0C4FD77
:10484000039B002BECD001A9032208469847E7E719
:104850001198A04203D01399013100F0B3FD039BDE
:10486000002BDDD001A9032208469847D8E7039B17
:10487000002BD5D001A9032208469847D0E711980C
:10488000A042F4D01399013100F09CFDEFE7209B8A
:104890001BB103225146504698471898A84203D0AE
:1048A0001A99013100F08EFD1198A04217D013998A
:1048B000013100F087FD12E0039B002BB0D001A96D
:1048C000032208469847ABE7039B002BA8D001A919
:1048D000032208469847A3E711A8FEF721FB039B94
:1048E000002B9DD001A903220846984798E79EE730
:1048F0009DE7209B1BB103225146504698471898CC
:10490000A842A5D01A99013100F05CFDA0E7039BF5
:10491000002B85D001A903220846984780E779E754
:1049200085E71198A0428BD01399013100F04AFD20
:1049300086E7209B1BB103225146504698471898A2
:10494000A8429CD01A99013100F03CFD97E786E718
:10495000AAE7C4E711A8FEF7E3FA80E711A8FEF77B
:10496000DFFA84E7039B002B3FF45AAF01A903222F
:104970000846984754E7209B1BB1032251465046F6
:1049800098471898A8423FF43EAF1A99013100F0B9
:1049900019FD38E711A8FEF7C3FA3BE7209B1BB1CE
:1049A00003225146504698471898A842B9D01A9900
:1049B000013100F007FDB4E711A8FEF7B1FA3FE7B7
:1049C000039B002B3FF42CAF01A903220846984714
:1049D00026E700BFCC6300082DE9F04F0023C0E9B3
:1049E000003304468360BDB06C30884600F0F6F9B1
:1049F00000217B4BC4F854310127C4E95611202211
:104A0000C4F860114FF0020909A8FBF7F1FDCDE9E8
:104A10000D77CDE90A9811970C9709AD0FCD2EAE01
:104A2000B6460FC60FCD0FC63760CDE92F98CDE93A
:104A3000317704F10D0C0DF1D80A339775460FCD7F
:104A400055450CF1100C0EF1100E4CF8100C4CF8F2
:104A50000C1C4CF8082C4CF8043CEFD1614BDEF8F0
:104A60000000CCF8000003F110070FCB01AE07C621
:104A700026F8023B1B0C337097E80F0005AD07C505
:104A800025F8023B01A91B0C2EA82B70FDF792FE06
:104A9000D4E90132934276D02EAD07CD186059602B
:104AA0009A602A88A978997303F10F069A81666043
:104AB0002EA8FDF78DFE05A92EA8FDF77BFED4E9F3
:104AC0000132934265D02EAD07CD186059609A60CF
:104AD0002A88A978997303F10F069A816660424E7D
:104AE0002EA8FDF775FE0FCE0DF1480EF046AEE88C
:104AF0000F000FCEAEE80F000FCEAEE80F0096E825
:104B000003008EE80300B8E80F000DF1B80C67460B
:104B1000ACE80F00B8E80F00ACE80F00B8E80F00F1
:104B2000ACE80F009EE803008CE803000FCF20AD37
:104B3000A9460FC50FCF0FC50FCF0FC59CE80300C7
:104B400085E8030004F1310A0DF1B00B4D460FCD9D
:104B50005D450AF1100A09F110094AF8100C4AF8EB
:104B60000C1C4AF8082C4AF8043CEFD1B9E80300C1
:104B7000CAF80000CAF804102046FFF7AFF9204633
:104B80003DB0BDE8F08F2EAA19462046FEF7E8FE9C
:104B90008EE72EAA19462046FEF7E2FE9FE72EA8D2
:104BA000FDF716FED4E95656AE4213D1D4F858019B
:104BB000D4F86011091A08B100F004FC04F1DC001B
:104BC000FEF71EFB2046FEF71BFB00F0FDFBE9E7AE
:104BD000F8E7E4E72846FEF7A3F94435E4E700BF29
:104BE0002401002078600008986000082DE9F04F4B
:104BF0009DB0894624220021804601A8FBF7F8FCDD
:104C0000214A224B1668CDF80890A3FB0636B60C55
:104C1000013E03960DF1040CBCE80F004FF0010BB0
:104C2000CDF820B013AC25460FC4BCE80F000FC46C
:104C30000FCDDCF800C0C4F800C00DF1280EF2461C
:104C4000AEE80F000FCDAEE80F00CDE90B9647465A
:104C5000CEF800C0CDF844B054460FCCFB6012AB88
:104C60009C4207F110070AF1100A47F8100C47F8A8
:104C70000C1C47F8082CEFD1DAF8000038604046E9
:104C80001DB0BDE8F08F00BF6400002083DE1B4331
:104C9000FDF7D6BF03681A6810B4002022F00102A5
:104CA0000A4C1A600139186158629C62D9625A69CB
:104CB00042F001025A611A6842F001021A601A6950
:104CC000D207FCD55DF8044B704700BF3F190100C7
:104CD00003681A6810B4002022F001024724013949
:104CE0001A60186158629C62D9625A6942F00102E6
:104CF0005A611A6842F001021A601A69D207FCD59B
:104D00005DF8044B704700BF044B1A68920604D547
:104D1000034A2020012158601160704700000240C2
:104D200088010020054B1A68920505D5044A4FF406
:104D30000070012158601160704700BF0000024000
:104D40008C01002070B50646C330FFF7A1FFD6E9FD
:104D50001C45AC4205D020460F34FDF73BFDAC426C
:104D6000F9D106F13800FDF7ADFE3046FDF7AAFE99
:104D700006F18800BDE87040FEF71EB8D0F8882024
:104D800093681B06FCD4836BD0F884001A6822F069
:104D900001021A60D86059601A6842F001021A6074
:104DA000704700BFD0F8882093681B06FCD40368C6
:104DB000D0F880001A68062122F001021A60D8603B
:104DC00059601968044A41F0010119601368002B09
:104DD000FCD00023136070478C0100202DE9F04FB8
:104DE000B149B24A002300F1C304C0E92012C0E96E
:104DF0001C33C0E91E338146E1B011212046FFF784
:104E0000F5FEAB4B03F1100C0FCB0FAE07C626F827
:104E1000023B1B0C33709CE80F0013AD07C525F84F
:104E2000023B0FA91B0C51A82B70FDF7C3FCD9E95D
:104E30001D32934209F1700700F0118151AD07CD89
:104E4000186059609A602A88A978997303F10F064F
:104E50009A81C9F8746051A8FDF7BAFC13A951A84A
:104E6000FDF7A8FCD9E91D32934200F0FE8051AD58
:104E700007CD186059609A602A88A978997303F160
:104E80000F069A81C9F8746051A8FDF7A1FC1121A1
:104E900051A8FFF7ABFE51AF59AE3D460FCDB5421D
:104EA00004F1100407F1100744F8100C44F80C1C2E
:104EB00044F8082C44F8043CEFD17E4E386820605A
:104EC00009F138020C920FCE33AD00950FC50FCE0D
:104ED0000DF5A27C42AC0DF15C0B0DF1940ACDE90D
:104EE00008CACDF810B0CDF80CC0CDF818C00594A4
:104EF0000794CDF82CC00A940D940FC50FCE0FC5A2
:104F000006F10C0106F144000191029096E80700B9
:104F100003C525F8022B120C2A70009D0FCDE04628
:104F2000ACE80F000FCDACE80F000FCDACE80F00E0
:104F300095E80700ACE803002CF8022B120C8CF863
:104F40000020B8E80F0027460FC4B8E80F000FC4D0
:104F5000B8E80F000FC498E8070003C424F8022B38
:104F6000120C22700FCF09F1880EAEE80F000FCFA0
:104F7000AEE80F000FCFAEE80F0097E80700AEE8ED
:104F80000300019D2EF8022B120C8EF800200FCD8D
:104F9000ABE80F000FCDABE80F000FCDABE80F0073
:104FA00095E80300029D8BE803000FCDAAE80F00EF
:104FB0000FCDAAE80F000FCDAAE80F0095E8030077
:104FC000049C039E8AE803000FCC0FC60FCC0FC6CB
:104FD0000FCC34460FC49BE8030088E80300069C0E
:104FE000059E0FCC0FC60FCC0FC60FCC0FC698E88E
:104FF000030087E80300079E0FCE4D460FC50FCE76
:105000000FC50FCE0FC597E8030085E80300099D83
:105010000FCD089E0FC60FCD0FC60FCD0FC69AE855
:10502000030088E803000B9E0FCE0A9D0C9C0FC561
:105030000FCE0FC50FCE0FC598E8030087E8030019
:105040000D9D0FCD0FC40FCD0FC40FCD0FC497E82A
:10505000030084E80300484661B0BDE8F08F1946BC
:1050600051AA3846FEF77CFCF5E61946384651AAA7
:10507000FEF776FC08E751A8FDF7AAFBD9E91C4525
:10508000A5420BD1D9F87000D9F87810091A08B1E7
:1050900000F098F900F098F9F0E7ECE72046FDF70A
:1050A00097FB0F34ECE700BF90010020480100207F
:1050B000D0600008F0600008F8B5D0E95657BD424E
:1050C000064624D005F13404A3681BB1032221460F
:1050D0002046984754F8180C05F12403984204D050
:1050E00054F8101C013100F06DF954F8340C05F13E
:1050F0000803984238D054F82C1C4435013100F094
:1051000061F9BD4204F14404DED1D6F858712FB1E3
:10511000D6F860113846C91B00F054F9D6E9374576
:10512000AC4207D020460F34FDF752FBA542F9D11F
:10513000D6F8DC502DB1D6F8E4102846491B00F013
:1051400041F9D6E90045AC4206D020460F34FDF7C0
:105150003FFBA542F9D1356825B1B1682846491B06
:1051600000F030F93046F8BD4435AF4204F1440454
:10517000AAD1D6F85871CAE738B5051D0446FDF71F
:10518000E5FA4FF4E1312846FFF726FC2846FDF703
:105190007DFF204638BD02E02846FFF78DFF204600
:1051A000FDF706FB00F010F9F8B5D0E95757BD42FE
:1051B000064624D005F13404A3681BB1032221461E
:1051C0002046984754F8180C05F12403984204D05F
:1051D00054F8101C013100F0F5F854F8340C05F1C6
:1051E000080398423BD054F82C1C4435013100F0A0
:1051F000E9F8BD4204F14404DED1D6F85C712FB168
:10520000D6F864113846C91B00F0DCF8D6E93845F9
:10521000AC4207D020460F34FDF7DAFAA542F9D1A7
:10522000D6F8E0502DB1D6F8E8102846491B00F01A
:10523000C9F8D6E90145AC4206D020460F34FDF747
:10524000C7FAA542F9D1756825B1F1682846491B0E
:1052500000F0B8F83046FDF7ABFA3046F8BD4435FB
:10526000AF4204F14404A7D1D6F85C71C7E700BF90
:1052700000B5DBB06846FFF77FFF01A8FEF7D4F961
:10528000FBE76846FFF790FF00F09EF8DFF834D0A8
:10529000FDF71AFA0C480D490D4A002302E0D458D4
:1052A000C4500433C4188C42F9D30A4A0A4C002370
:1052B00001E013600432A242FBD3FAF7CDFFFFF7FF
:1052C000D7FFFEE700300020000000207000002023
:1052D000086B000870000020F0010020FEE77FB599
:1052E00000241023CDE90234036815469E69126834
:1052F0006B46CDE90044B0479DF8043003F0060347
:10530000062B03BF009B2B600120204604B070BD1C
:105310000098904214BF01200620704710B5034B3F
:105320000360044600F0E1FC204610BDC0650008A3
:1053300010B50446FFF7F2FF2046082100F042F8BE
:10534000204610BD2DE9F0411F46DDE90834DDF8A7
:10535000188098450646154607D1079900F0C8FC05
:1053600018B165710020BDE8F0813946304600F083
:10537000BFFC0028F6D00123C4F800802571A3717A
:10538000F0E738B515461C4600F0B2FC20B1082302
:10539000E36006232560237138BD73B505460C46CE
:1053A00001921E4600F0A4FC50B9032E08D82368D1
:1053B000019A5B692946204602B0BDE87040184753
:1053C00002B070BD00F0E8BD1EB400F09CF81EBC39
:1053D000FCF76AFF0378472B17D143784E2B14D183
:1053E0008378552B11D1C378432B0ED10379432BEE
:1053F0000BD143792B2B08D183792B2B05D1C07985
:1054000001288CBF00200120704700207047000059
:105410002DE9F3411D460378472B0E460246C1791C
:1054200013D143784E2B10D18378552B0DD1C378EF
:10543000432B0AD10379462B07D143794F2B04D153
:105440008379522B01D1002931D01046FFF7C2FFDA
:1054500080F00100C4B200230020019053BB5CBB6C
:1054600001290ABF52F8203CA2F12003783B012910
:1054700008BF52F8202C1C6818BF583201922368CC
:1054800020469B689847C8B1019B1B68019302277F
:10549000336801AAD3F81080214601233046C04763
:1054A00070B1019B2B60384602B0BDE8F08101234A
:1054B0000C46D1E7034CE2E7034CE0E70127E7E7BE
:1054C0000746F0E7E4650008EC65000810B50446FF
:1054D00000F0A0F802462046A4F12001FFF77AFF71
:1054E00060B154F8043C0133012B44F8043C03D16F
:1054F000936844F8083C9160012010BD9368002B2C
:10550000F9D000F013FB10B500F084F88268014672
:105510000AB900F00BFB02F120042046FFF75AFF06
:1055200040B1D369013BD36113B99069886093613D
:10553000204610BD8860FBE70378472B17D14378DE
:105540004E2B14D18378552B11D1C378432B0ED118
:105550000379432B0BD143792B2B08D183792B2B48
:1055600005D1C07901288CBF0020012070470020A0
:10557000704738B5044600F04DF8056802462046ED
:10558000A4F12001FFF7D8FF28B90DB100F0CEFA41
:105590001160284638BD54F80C3C002BB4BFC3F151
:1055A0000103013344F80C3C53688D4203F1FF338F
:1055B000536020461CBF44F8105C1160656AFCF71C
:1055C000B5FAE6E710B500F021F8026801469AB195
:1055D00002F120042046FFF7AFFF28B908602046FB
:1055E000BDE81040FCF7A4BA5369002B05DA01337B
:1055F00001D110690860536110BD013B02D11369EC
:105600000B60ECE7591CF6D100F090FA00487047A7
:10561000D001002000487047D001002030B50023A1
:105620001A4610F8015B05F07F04944023432C06D2
:1056300002F10702F5D40B6030BD30B500231A46E5
:1056400010F8014B04F07F0595402B43250602F12D
:105650000702F5D41F2A06D8640642BF4FF0FF3474
:1056600004FA02F213430B6030BD50282DE9F341D8
:105670000646884615461F4608D1033222F003002D
:1056800050F8044B3C6002B0BDE8F08100F00F031D
:105690000C2B2ED8DFE803F025071D25292D2D2DF5
:1056A0002D182125290001A92846FFF7B7FF019CE5
:1056B000002CE7D006F07003102B08BFA846444426
:1056C000330648BF2468DDE701A92846FFF7B5FF88
:1056D000EDE7284630F8024BEAE7284630F9024B5E
:1056E000E6E7284650F8044BE2E7284650F8084B16
:1056F000DEE7FAF7A9FD08B50346FF2B084610D0F0
:1057000003F07002302A12D007D8202A0BD002D81A
:1057100013F0600F05D0FAF797FD402A0BD0502AFE
:10572000F9D1002008BDBDE8084000F096BCBDE8F6
:10573000084000F08FBCBDE80840FCF795BF13B5EA
:105740000C4601462046CDE90032FFF7D4FFDDE9E3
:1057500000320146204602B0BDE81040FFF785BF89
:1057600073B50C461546064628B3FCF77DFF034685
:1057700020462B6010F8011BFF291ED002462B1D6E
:105780003046FFF7DCFF10F8013B2B75FF2B16D0DE
:1057900010232B7501A9FFF741FF019B0344EB6028
:1057A00010F8013B6B7501A9FFF738FF019B03441B
:1057B0002B6102B070BD0346DAE76B60E3E70023BC
:1057C000EDE71FB503AB009300230A461946FCF72B
:1057D000B5F9039805B05DF804FB00002DE9F04F22
:1057E00091B00023059300F00303012B06460C46FD
:1057F00017460ED0022B03D0002B3BD101073BD51F
:1058000039462046FCF71AFF90B3092011B0BDE8D5
:10581000F08F020706D40D6A38460D21FFF7D1FF3D
:1058200085422BD00220002306F008060DF1280A3D
:105830000643CDF800A00C22194638460A94FCF71E
:10584000A3F9062E1CD1D4F83080D4E90A59B8F156
:10585000000F0CBF4FF0010B4FF0030B16F00806C2
:1058600000F00781BBF1010F40F0FF8000F05EF90E
:105870000820CBE7FAF7E8FC0120D4E70620D2E7BE
:105880003846FCF7F7FE81460028B9D0524601465B
:105890003846FFF765FF394605469DF83C00FFF79F
:1058A0002AFF0F210C903846FFF78BFF20F00108EC
:1058B00008F1FF380E9BAB4240F2BF802A469DF8AC
:1058C0003D1006AB0020FFF73AFF9DF83D10024661
:1058D00007AB0020FFF733FF08AB02469DF83D10F1
:1058E0000020FFF72CFF09A9FFF798FE0A9B069AF4
:1058F00013444345054601D90E9DDBE7079A13443F
:105900004345D7D9DDF82080B8F1000F01D00B9BBB
:105910009844099D15B10E98013D0544B8F1000F5A
:105920003FF46EAF002D00F0F28016F008030293F2
:1059300034D0472323704E2363705523A370432331
:10594000E370462323714F2363715223A371002315
:10595000E3714FF0000B07A92846FFF76EFE08A978
:105960000390FFF76AFE0799002963D03ADD9DF89E
:105970003C00FF2832D000F00703042B3FF67AAF3B
:1059800001A252F823F000BFE15900087558000841
:10599000AF590008E1590008D9590008E379012BF3
:1059A0000CBF54F8203C04F158030593D1E70225BD
:1059B0000D9A09AB05FB11220C99FFF756FE0999C8
:1059C00031B15CB305AB00222046FFF721FD28B3BF
:1059D000079D4FF0030B34E00825E9E70025E7E7D2
:1059E0000425E5E7C1F17F5101F57F110D9B01F51C
:1059F0007F513F3103EB8105BCB1029AAAB9059BE7
:105A00000993043D55F8041F0029E1D009AB002299
:105A100029442046FFF7FCFC0028F3D0089D002D08
:105A200071D0039B2B441D4695E753F82130002B82
:105A3000F4D1CDE74FF0010BF0E70025A8464FF079
:105A4000010BF3077FF50AAFBBF1020F3FF4D8AEAD
:105A50000D213846059EFFF7B4FEC4E90A59C4E992
:105A60000806C4F830800620D0E6002D22DA00F0C7
:105A70006FF8BBF1010F02D1204600F0C0FA002DF3
:105A800018DA524649463846FFF76AFE9DF83C0050
:105A90003946FFF730FE0D9A0C90EB4302EB83037F
:105AA00053F826200AB10136FAE70422C4E90A6055
:105AB000C4E90C23002309AE1A461946009638465D
:105AC0000994FCF761F80023194601220096384634
:105AD0000995FCF759F80F213846FFF772FE00F0E0
:105AE000010040EA08000023099000960F221946A1
:105AF0003846FCF749F8BBF1020F02D12046FFF708
:105B0000E5FC072082E6BBF1000F3FF479AE4FF0D1
