:020000040800F2
:1000000000300020F12F0008413000084130000886
:100010004130000841300008413000080000000075
:100020000000000000000000000000004130000857
:100030004130000800000000413000084130000855
:1000400041300008413000084130000841300008CC
:1000500041300008413000084130000841300008BC
:1000600041300008413000084130000841300008AC
:10007000592F0008752F0008413000084130000852
:1000800041300008BD2A0008413000084130000816
:10009000413000084130000841300008413000087C
:1000A000413000084130000841300008413000086C
:1000B00041300008413000080000000041300008D5
:1000C000413000080000000000000000413000083E
:1000D0000000000041300008DD2A0008413000081F
:1000E000413000084130000800000000000000001E
:1000F0000000000000000000000000000000000000
:1001000000000000000000000000000000000000EF
:1001100000000000000000004130000841300008ED
:1001200000000000000000000000000000000000CF
:1001300000000000000000000000000000000000BF
:1001400041300008413000080000000000000000BD
:10015000000000000000000000000000000000009F
:10016000000000000000000000000000000000008F
:10017000000000000000000000000000000000007F
:080180000000000041300008FE
:1001A0000348044B834202D0034B03B11847704706
:1001B0007000002070000020000000000548064983
:1001C0000B1AD90F01EBA301491002D0034B03B165
:1001D00018477047700000207000002000000000E9
:1001E00010B5064C237843B9FFF7DAFF044B13B17F
:1001F0000448AFF300800123237010BD700000207D
:1002000000000000643A000808B5044B1BB1044923
:100210000448AFF30080BDE80840CFE700000000CD
:1002200074000020643A000808B5062000F086FA41
:10023000012002F093F900BF70B50D4E0D4D761BF5
:10024000B61006D0002455F8043B01349847A64266
:10025000F9D1094E094D761B03F004FCB61006D007
:10026000002455F8043B01349847A642F9D170BDEB
:10027000C43D0008C43D0008C83D0008C43D000856
:10028000024B0146186800F059B900BF0000002079
:10029000024B0146186800F0EFB800BF00000020D4
:1002A000844641EA000313F003036DD1403A41D381
:1002B00051F8043B40F8043B51F8043B40F8043B40
:1002C00051F8043B40F8043B51F8043B40F8043B30
:1002D00051F8043B40F8043B51F8043B40F8043B20
:1002E00051F8043B40F8043B51F8043B40F8043B10
:1002F00051F8043B40F8043B51F8043B40F8043B00
:1003000051F8043B40F8043B51F8043B40F8043BEF
:1003100051F8043B40F8043B51F8043B40F8043BDF
:1003200051F8043B40F8043B51F8043B40F8043BCF
:10033000403ABDD2303211D351F8043B40F8043B6F
:1003400051F8043B40F8043B51F8043B40F8043BAF
:1003500051F8043B40F8043B103AEDD20C3205D37F
:1003600051F8043B40F8043B043AF9D2043208D077
:10037000D2071CBF11F8013B00F8013B01D30B88E9
:1003800003806046704700BF082A13D38B078DD0C7
:1003900010F003038AD0C3F10403D21ADB071CBF99
:1003A00011F8013B00F8013B80D331F8023B20F803
:1003B000023B7BE7043AD9D3013A11F8013B00F83C
:1003C000013BF9D20B7803704B7843708B788370C4
:1003D00060467047830730B548D0541E002A3FD08E
:1003E000CAB2034601E0013C3AD303F8012B9D0752
:1003F000F9D1032C2DD9CDB245EA05250F2C45EABC
:10040000054536D9A4F1100222F00F0C03F1200E9D
:10041000E6444FEA121C03F1100242E9045542E996
:10042000025510327245F8D10CF1010214F00C0F94
:1004300003EB021204F00F0C13D0ACF1040323F011
:1004400003030433134442F8045B9342FBD10CF0E2
:1004500003042CB1CAB21C4403F8012B9C42FBD10B
:1004600030BD64461346002CF4D1F9E70346144628
:10047000BFE71A46A446E0E7002958D030B551F846
:10048000043C83B0002BA1F10404B8BFE418019030
:1004900000F0F4FB284A0198136833B1A3420DD948
:1004A000216804EB010C63452FD06360146003B036
:1004B000BDE8304000F0E4BBA34210D81A465B68A8
:1004C000002BF9D1116802EB010C644519D02FD330
:1004D0006360546003B0BDE8304000F0D1BB1168E8
:1004E00002EB010CA44516D022D8216804EB010CC4
:1004F0006345EDD11D685B682944C4E9001354606D
:10050000D5E7236819441160D1E71D685B68294469
:10051000C4E90013CAE7246821445418A3421160B7
:10052000C5D1D3E900432144C2E90013BFE77047B6
:100530000C230360BBE700BF8C000020F8B5CD1C86
:1005400025F0030508350C2D38BF0C25002D064677
:1005500023DBA94221D8254F00F090FB3A6822B353
:10056000144603E063682246FBB11C4623685B1B0C
:10057000F8D40B2B15D8636894420CBF3B605360D2
:10058000304600F07DFB04F10B00231D20F0070036
:10059000C21A01D01B1AA350F8BD0C2333600020EF
:1005A000F8BD23601C442560EAE77968C9B1294693
:1005B000304600F01DF8431C0CD0C41C24F003048A
:1005C000A04205D0211A304600F012F8013001D0C7
:1005D0002560D5E70C233046336000F051FB002046
:1005E000F8BD304600F004F87860E0E78C000020A9
:1005F00038B5074D0022044608462A6001F0A0FFE6
:10060000431C00D038BD2B68002BFBD0236038BDC5
:100610009400002038B5446C0CB1002038BD802116
:100620000546FFF78BFF0246686430B1031F7C323A
:1006300043F8044F9342FBD1EFE74FF0FF3038BD52
:100640001F29F8B5054608D8466C0C4617464EB12A
:1006500056F8240046F82470F8BD162303604FF0C6
:10066000FF30F8BD8021FFF769FF0646686440B19E
:10067000031F00F17C05002143F8041F9D42FBD1BC
:10068000E6E74FF0FF30F8BD1F2938B5054620D802
:10069000426C0C466AB152F8213053B1012B16D08E
:1006A000591C10D00025204642F82450984728466F
:1006B00038BD284600F0F8F8224601462846BDE835
:1006C000384000F0DBB816230360012038BD00205D
:1006D00038BD162303604FF0FF3038BD1F292AD8DC
:1006E000426C38B50C46054682B152F8243002EB14
:1006F00084024BB1591C19D0012B15D0002520467E
:1007000015609847284638BD012038BD8021FFF785
:1007100015FF0246686458B1031F00217C3043F87E
:10072000041F9842FBD1E0E7032038BD022038BD0A
:100730004FF0FF3038BD4FF0FF30704738B5144BE5
:100740001F281D681FD86A6C044662B152F8203019
:100750004BB1012B15D0591C0FD0002542F8205069
:100760009847284638BD284600F09EF822460146A4
:100770002846BDE8384000F081B816232B600120E0
:1007800038BD002038BD16232B604FF0FF3038BD38
:1007900000000020124B1F2870B51E6808D80D46B7
:1007A000716C044649B151F8240041F8245070BDE1
:1007B000162333604FF0FF3070BD80213046FFF7C5
:1007C000BDFE0146706440B1031F00F17C0C0022A5
:1007D00043F8042F6345FBD1E5E74FF0FF3070BDD0
:1007E0000000002038B50B4B1D686C6C0CB100206C
:1007F00038BD80212846FFF7A1FE686438B1031F89
:1008000000F17C0243F8044F9342FBD1EFE74FF035
:10081000FF3038BD0000002038B5174B1F281D6879
:1008200026D86A6C044682B152F8243002EB840266
:100830004BB1591C1AD0012B16D00025204615604B
:100840009847284638BD012038BD80212846FFF74B
:1008500075FE0246686458B1031F00217C3043F8DE
:10086000041F8342FBD1DFE7032038BD022038BDDF
:100870004FF0FF3038BD00BF0000002070B50C46BF
:10088000084D03460026204611461C462E6001F006
:100890004FFE431C00D070BD2B68002BFBD02360A3
:1008A00070BD00BF9400002001F03ABE00000000BF
:1008B0000000000000000000000000000000000038
:1008C000A2EB0300704700BF02780B78012A28BF13
:1008D0009A42F5D16DE9044540EA0104CDE9026789
:1008E0006FF0000C4FEA447212B380EA010414F076
:1008F000070F6AD100F0070420F0070004F0030599
:1009000021F007014FEAC505F0E8042314F0040FB5
:10091000F1E804670CFA05F462EA040266EA0406E8
:100920000AD063EA0403624667EA0407664603E006
:10093000F0E80423F1E8046782FA4CF582EA060441
:10094000A4FA8CF46CBB83FA4CF583EA0705A5FA8C
:100950008CF595B950E9022351E9026782FA4CF50A
:1009600082EA0604A4FA8CF483FA4CF583EA0705BC
:10097000A5FA8CF52543DBD09CB92DBAB5FA85F4E0
:1009800024F0070427FA04F1DDE9026723FA04F3EF
:1009900003F0FF0001F0FF01FDE80445A0EB0100BA
:1009A000704724BAB4FA84F424F0070426FA04F158
:1009B000DDE9026722FA04F202F0FF0001F0FF0114
:1009C000FDE80445A0EB0100704714F0030F3CD193
:1009D00010F0030428D150F8082B51F8083B82FA94
:1009E0004CF582EA0305A5FA8CF55DB950F8042CA4
:1009F00051F8043C82FA4CF582EA0305A5FA8CF51D
:100A0000002DE8D02DBAB5FA85F424F0070423FAB6
:100A100004F122FA04F202F0FF0001F0FF01FDE808
:100A20000445A0EB010070474FEAC40420F0030026
:100A300050F8082B21F0030151F8083B0CFA04F49C
:100A400062EA040263EA0403C9E710F003041AD05F
:100A5000A1EB040120F00300E40750F8042B06D0BA
:100A60000FD28B785FFAA2F4E41A06D12BB1CB78BF
:100A70005FFAB2F4E41A00D11BB920465DF8104BBE
:100A8000704701F1040150F8042BCC0721F0030159
:100A900051F8043B48D824D222F07F4482FA4CF526
:100AA00094EA1325A5FA8CF50AD165B951F8043BEF
:100AB00084EA0204B4EB036F0ED150F8042BEBE789
:100AC0004FEA132355E035F07F454DD10878FDE816
:100AD0000445C0F1000070474FEA126203F0FF03C3
:100AE00047E002EA1C4482FA4CF594EA1345A5FA61
:100AF0008CF50AD165B951F8043B84EA0204B4EBE1
:100B0000034F0CD150F8042BEBE74FEA134330E0CE
:100B100015EA1C4528D10B884FEA124229E04FEA1A
:100B2000124203EA1C4324E002F0FF0482FA4CF56F
:100B300094EA1365A5FA8CF50AD165B951F8043B1E
:100B400084EA0204B4EB032F09D150F8042BEBE73D
:100B50004FEA13630DE015F0FF0F05D10B684FEA64
:100B6000122223F07F4304E04FF00000FDE804452B
:100B7000704712BA1BBA82FA4CF482EA0304A4FA50
:100B80008CF5B5FA85F402FA04F203FA04F34FEA9D
:100B90001260FDE80445A0EB1360704710B51A4CD5
:100BA000002924689AB02ADB009004904FF4027068
:100BB000ADF80C0013D001394FF6FF70029105918A
:100BC000ADF80E006946204600F03AF9421C01DA01
:100BD0008B232360009B00221A701AB010BD4FF6C1
:100BE000FF7002910591ADF80E006946204600F0B5
:100BF00027F9431C01DA8B2323601AB010BD8B2325
:100C000023604FF0FF30F8E70000002030B5141EDD
:100C10009BB005462CDB4FF4027200910491ADF8B5
:100C20000C2014D04FF6FF711A46013CADF80E109F
:100C30001E9B02946946059400F002F9421C01DAF9
:100C40008B232B60009B00221A701BB030BD4FF627
:100C5000FF711A46ADF80E101E9B0294694605946A
:100C600000F0EEF8431C01DA8B232B601BB030BD83
:100C70008B2303604FF0FF30F8E700BF704700BFE1
:100C8000704700BF2DE9F0478F689F420C461D4614
:100C9000164638D88246888910F4906F0ED10868BD
:100CA0003D462A46314600F023FCA2682368D21B49
:100CB0002B44A26023600020BDE8F0874B690969DE
:100CC00003EB4308236808EBD878A3EB01096B1CFE
:100CD0004FEA68084B444345424684BF9846424623
:100CE000430513D511465046FFF728FC074608B3C5
:100CF00021694A46FFF7D4FAA38923F4906343F0AD
:100D00008003A38107E008681F46CAE7504600F049
:100D10006BFC074650B107EB0900A8EB09032761FC
:100D2000C4F81480A36020602F46BAE721695046BA
:100D3000FFF7A2FB0C23CAF80030A38943F040035D
:100D40004FF0FF30A381B7E72DE9F04F936883B0F0
:100D50009146002B6ED017688D6880460C46086857
:100D6000083744E0A38913F4906F2ED0D4E904151A
:100D7000A0EB010A05EB450505EBD5750AEB06006E
:100D80006D100130A8422A4684BF05462A465B05FD
:100D900037D511464046FFF7D1FB00283BD05246DD
:100DA00021690190FFF77CFAA289019B22F49062ED
:100DB00042F08002A281A5EB0A0203EB0A00656102
:100DC000A260236120603546B2465946524600F083
:100DD0008FFBA068D9F808102368451B8E1B03EB16
:100DE0000A00A5602060C9F808601EB3083757E9FB
:100DF00002B6002EFAD0B542AA46B3D93546B2465D
:100E0000E3E7404600F0F0FB03460028D3D1216918
:100E10004046FFF731FB0C23C8F80030A3890022BD
:100E200043F040034FF0FF30A381C9E9012203B032
:100E3000BDE8F08F0020C9F8040003B0BDE8F08FD2
:100E40002DE9F04F92468A8915069DB08846814665
:100E50001C4603D50A69002A00F0EF80002209929F
:100E60009AF800307E4D039420228DF829203022FC
:100E70008DF82A200126002B72D0544603E014F886
:100E8000013F002B76D0252BF9D1B4EB0A0B74D19E
:100E90002278002A64D000234FF0FF32CDE90523E9
:100EA000049307938DF853301A93013404E0049AA5
:100EB00006FA03F313430493A246052214F8011B18
:100EC000284600F0C5FA431B0028F0D1049BD80641
:100ED00044BF20228DF8532019079AF8001044BF10
:100EE0002B228DF853202A2954D1039A11680432F9
:100EF000002903927CDB07919AF801100AF1010A9C
:100F00002E2959D0574C0322204600F0A1FA40B1B7
:100F1000049B001B402404FA00F0034304930AF1ED
:100F2000010A1AF8011B50488DF82810062200F01B
:100F30008FFA002862D04D4B002B52D003AA0092AA
:100F40004B4B424604A94846AFF3008007467A1C43
:100F500006D0099B3B4409939AF80030002B8CD1B2
:100F6000B8F80C305B0654BF09984FF0FF301DB045
:100F7000BDE8F08FB4EB0A0BF2D05B465246414617
:100F80004846FFF77FFE0130EAD0099B22785B4498
:100F900009937EE7A1F13002092AB1D8079B1AF81C
:100FA000011F03EB830302EB4303A1F13002092A83
:100FB000F5D92E290793A5D19AF801102A2927D10E
:100FC000039B9AF802101A6805920433002A0AF16A
:100FD00002000393B8BF4FF0FF338246B8BF0593BA
:100FE00090E7039B073323F0070308330393B0E72D
:100FF000494243F00203079104937DE703AA00925C
:101000001B4B424604A9484600F0CAF807469EE733
:10101000A1F130020023092A05930AF1010A3FF6E3
:1010200071AF1AF8011F03EB830302EB4303A1F135
:101030003002092AF5D9059364E74021FFF77EFACB
:10104000C8F80000C8F8100018B14022C8F81420F1
:1010500004E70C23C9F800304FF0FF3087E700BFEA
:10106000303C0008383C00083C3C00080000000010
:10107000850C00082DE9F84F92461F460A698B68D7
:10108000DDF828909A42B8BF1A46CAF8002091F8B5
:1010900043300C46064613B10132CAF800202268DC
:1010A00091065DD5DAF800300233CAF800302268C4
:1010B00012F0060F11461ED1E168CB1A002BD8BFE3
:1010C000114618DD04F1190B4FF0000805E0E56842
:1010D000DAF80030ED1A45450CDD01235A46394651
:1010E0003046C847013008F10108F0D14FF0FF3019
:1010F000BDE8F88F216894F84330003B18BF012306
:101100008A060AD5E1185A1C302081F8430022448F
:1011100094F8451082F84310023304F14302394633
:101120003046C8470130E1D0236803F00603042BA2
:101130001DD0A3682269934225DD4FF000089B1A59
:1011400098441A34002501E045451CDA0123224663
:1011500039463046C847013005F10105F4D1C5E7ED
:1011600012F0060F12D0003B18BF0123D5E7DAF8C2
:101170000030E1682269C91AA368934221EAE17844
:10118000DDDC0029DDDC0020BDE8F88FE168DAF85D
:101190000030CB1A002BD8BF114693DCABE700BF61
:1011A0002DE9F0470C4684B09046227E0C99074604
:1011B000994604F14300002A33D0A2F15803DDB26E
:1011C000202D67D8202B65D8DFE813F0DE006400FF
:1011D00064006400640064006400640064006400EF
:1011E0006400A3006E0064006400640064006E008C
:1011F000640064006400640021007F00C00064009B
:101200006400AE0064007F0064006400E5002368B1
:101210001A0640F104810B6862691D1D0D601B6890
:101220001A60002382462361CDF80090434603AA4A
:1012300021463846FFF71EFF013020D02369524671
:1012400041463846C847013019D02368E068039EFC
:101250009B0719D5831B002B16DD04F1190A002505
:1012600004E0E068039E831BAB420DDD0123524680
:1012700041463846C847013005F10105F1D14FF02C
:10128000FF3004B0BDE8F087B042B8BF304604B0CC
:10129000BDE8F087012384F84220236104F1420A6B
:1012A000002384F84330BFE723681A0602D45E06A1
:1012B00000F1C1800D682A6804350D601546002ACA
:1012C0006BDBDFF884C10A2610E023681D0640F1BD
:1012D0009C800B681D1D0D601D68DFF86CC16F2AB6
:1012E0000CBF08260A26002384F843306268A260F7
:1012F000002A7FDB236823F004032360002D5BD1E9
:10130000002A79D18246082E65D0A0EB0A00206120
:101310008AE70B680122186804330B6004F1420A63
:1013200084F842002261BBE70B686268181D086000
:10133000D3F800A00021504600F08AF8002800F001
:101340008180A0EB0A0060602061A9E7236843F078
:10135000200323607822DFF8F4C084F845200A686F
:10136000151D0D601D0643D4590641D51588DE07AD
:1013700044BF43F020032360002D44D1236823F0B1
:10138000200323601026AEE7582384F84530DFF8A9
:10139000B8C02368E3E72368DCE76268A2602D2118
:1013A000002AC5F1000584F8431002DB23F0040392
:1013B0002360DFF894C00A268246B5FBF6F306FBED
:1013C00013512A461CF801100AF8011DB2421D46AD
:1013D000F3D2082E99D12368D90796D5626823697C
:1013E0009A4292DC30230AF8013C0AF1FF3A8CE77A
:1013F0001568BCE7002DDFD19CF8003084F842303E
:1014000004F1420A7FE710266DE713F0400F0B68E6
:1014100003F104050D600CBF1D681D885DE713F026
:10142000400F0B68626903F104050D601B6814BF6F
:101430001A801A60F5E60A68B2F9005004320A60B0
:101440002A463CE760687FE7443C0008583C0008B7
:1014500001F0FF01102A2BDB10F0070F08D010F865
:10146000013B013A8B422DD010F0070F42B3F6D169
:10147000F0B441EA012141EA014122F007047FF082
:1014800000070023F0E80256083C85EA010586EAD9
:10149000010685FA47F5A3FA87F586FA47F6A5FA15
:1014A00087F68EB9EED1F0BC01F0FF0102F0070221
:1014B00032B110F8013B013A83EA010313B1F8D1CC
:1014C0000020704701387047002D06BF35460338AD
:1014D000073815F0010F07D1013015F4807F02BFE6
:1014E000013015F4C03F0130F0BC0138704700BF37
:1014F00088420DD98B1883420AD900EB020CBAB18D
:10150000624613F801CD02F801CD9942F9D1704736
:101510000F2A0ED8034602F1FF3C4AB10CF1010C30
:10152000013B8C4411F8012B03F8012F6145F9D1DF
:10153000704740EA01039B0750D1A2F1100370B538
:1015400001F1200C23F00F0501F1100E00F1100441
:10155000AC441B095EF8105C44F8105C5EF80C5C4F
:1015600044F80C5C5EF8085C44F8085C5EF8045CC7
:1015700044F8045C0EF1100EE64504F11004E9D1C4
:10158000013312F00C0F01EB031102F00F0400EB1A
:10159000031327D0043C24F003064FEA940C1E44A6
:1015A0001C1F8E465EF8045B44F8045FB442F9D118
:1015B0000CF1010402F0030203EB840301EB84014C
:1015C00002F1FF3C4AB10CF1010C013B8C4411F8D3
:1015D000012B03F8012F6145F9D170BD02F1FF3CE9
:1015E00003469BE72246EBE7F8B51446F9B1CAB1CA
:1015F00006460D4600F020F8A04202D32F4638469A
:10160000F8BD21463046FEF799FF07460028F6D080
:1016100022462946FEF744FE30462946FEF72CFFB7
:101620003846F8BD2746FEF727FF3846F8BDBDE827
:10163000F8401146FEF782BF51F8040C0028A0F1D3
:101640000400BCBF0B58C018704700BF03685A00A5
:101650004CBF43F0004323F000431844704700BFE1
:101660002DE9F84329B34F1E044615463E464FF078
:10167000000808EB060101EBD171491004EBC10928
:101680004846FFF7E3FF0346C80008308F42204476
:1016900009D0AB4209D8FFF7D9FF0138A8420AD2D6
:1016A00001F10108E5E7AB4205D9884501D04E1E9E
:1016B000DFE74FF000094846BDE8F883012807D06E
:1016C000022807D0044B00280CBF184600207047A2
:1016D0000248704702487047951D0008991D000890
:1016E0009D1D000830B5234B83B004468D1E3BB3CF
:1016F00001A92846AFF30080E8B101992A46FFF717
:10170000AFFF0146B8B1FFF7A1FF4B68A064012B02
:101710002CD0002B01F1040024DBFFF797FF0023FE
:10172000C4E913030368002B11DBFFF78FFF20616F
:10173000002003B030BD00230920236103B030BD79
:101740000D4B0E49C91AC91018460191D6E7C3F3CB
:101750000360FFF7B3FF0028206114BF00200920B9
:1017600003B030BD0123C4E91303DBE70023236189
:101770000520DEE700000000C43C0008C43D00086E
:101780000368DA0710B5044606D49B0700F1480049
:1017900009D500F05BFC2368590709D51A070ED557
:1017A000DB0613D510BD00F049FC23685907F5D4BA
:1017B00004F1D00000F052FC23681A07F0D404F5BD
:1017C000A87000F053FC2368DB06EBD404F5E87046
:1017D000BDE8104000F08EBC092070470346006849
:1017E00000B11844704700BF704700BF70B5044691
:1017F0000E46316C2046FFF775FF054688B9326CFE
:101800006261236932462146012098470828F0D0BA
:10181000072806D12846316CFFF7E6FF301D00F09F
:1018200001FCFEF701FD00BF2DE9F0470D1DD0F8CA
:101830000C80D0F81890074614460FCDADF5727D98
:101840000DF10C0CACE80F000FCDACE80F000FCD84
:10185000ACE80F0095E80F0002AE4FF0000E8CE8E8
:101860000F00C6F800E020E0336C7B614FF4F072AB
:1018700031467AA8FEF714FD3B697AAA39465046EC
:101880009847889B73642146CDE9006905463B462D
:101890003A460120C0470446E0B94FF4F0727AA9F5
:1018A0003046FEF7FDFC082D1AD1316C3846FFF7A3
:1018B00019FF09345FFA84FA05460028D4D0B36BC7
:1018C00073643A46CDE900693B464AF010010120B5
:1018D000C04700B1092528460DF5727DBDE8F087A7
:1018E000072DF7D12046316CFFF77EFF03A800F0EB
:1018F00099FB00BF406C7047F0B5CB6B0B6401F1F6
:10190000040C0E460546BCE80F00F9B001AC0FC44C
:10191000BCE80F000FC4BCE80F000FC49CE80F0028
:101920004FF0FF3784E80F00009706E02B696A4606
:10193000294698470828044608D110992846FFF7F9
:10194000D1FE0028F2D0092079B0F0BD6846FFF73B
:1019500017FF062CF7D131462846FFF747FF00BF97
:10196000C160D96B82611964002219465CE700BF2F
:1019700070B5C66843690B64AEB903690A4604468C
:101980000D46014602209847072805D008280FD1A8
:1019900029462046FFF72AFF3046296CFFF724FF2F
:1019A000281D00F03FFB0122FFF73EFFFEF73CFC45
:1019B000FEF73AFCC2681AB1CA6B0A64002233E728
:1019C0009AE700BF704700BF836801460BB1012052
:1019D00018477047012912D009D873B90F2A0CD8BB
:1019E00000EB820218465368009A1360704703396F
:1019F000012994BF01200220704702207047084649
:101A0000704700BF00B585B00A46002303A90091C6
:101A10001946FFF7DFFF039805B05DF804FB00BF30
:101A2000012912D009D873B90F2A0CD800EB820013
:101A3000009A12684260184670470339012994BF22
:101A4000012002207047022070470846704700BFFF
:101A500010B584B0002303AC039200940A461946E3
:101A6000FFF7DEFF04B010BD70B5D36B136402F155
:101A7000040C05460C46BCE80F00ADF50E7D0DF1DB
:101A80005C0EAEE80F00BCE80F00AEE80F00BCE84B
:101A90000F00AEE80F009CE80F004FF0FF368EE815
:101AA0000F00169610E0FFF7D3FF214616A8A847AF
:101AB000034616AA6946082083B9049B984705285F
:101AC00006460CD0092809D026996846FFF70AFE79
:101AD00003466A460C2116A8002BE4D0092616A856
:101AE000FFF74EFE30460DF50E7D70BD2DE9F04F2F
:101AF000CC6C89B01E4654F8043B06940D4617463C
:101B000000F00308002E79D01A0C1B0405938DF801
:101B10001D200223D2B204EB82048DF81C302B6D01
:101B2000B8F1020F08BFAC6B13F001030CD005A98C
:101B3000384600F079FB18B9082009B0BDE8F08FED
:101B4000092009B0BDE8F08FD4F800A0BAF1000F69
:101B5000EDD0019300F008030293022E4AD0B4F8AE
:101B600000A0B4F802900434AB6C29F0010B0F21F3
:101B700038469B44FFF746FF834539D82AF00103D6
:101B80009B44834594BF002001204FEA490303F0A2
:101B900002030AF0010A43EA0A03012B49D0022B8F
:101BA00032D0002BCCD1B8F1000F02D0002840F089
:101BB000CD800434D4F800A0BAF1000FCDD105A92E
:101BC000384600F031FB0028BAD1019B002BB3D07E
:101BD0000F213846FFF716FF0E2102463846FFF761
:101BE00037FF38466A4A0F21FFF732FF0720A8E780
:101BF0000020CAE7D4F804900834B5E71B02059327
:101C00000323ADF81C308AE7236823F0004BB8F1BA
:101C1000000F45D128B1029A002A5CD0BBF1000F19
:101C200074D0002B00DA04340BF1010B04EB8B04AD
:101C3000C0E7B8F1000F19D1B0B163682268991CF0
:101C40004FEAD2723FF47CAF05F1580101330491A1
:101C500000F09080201DFFF7C1FD04AB014628462F
:101C600001F014FA00285BD10834A3E70D213846AF
:101C7000D5F82090FFF7C6FE8145F5D1AB6A9C42AE
:101C8000F2D12046FFF7E2FC0F2102463846FFF76B
:101C9000DFFE38462A460021FFF7DAFE072050E72C
:101CA0000D213846D5F82090FFF7ACFE814501D0D4
:101CB0002368B6E7AB6A9C42FAD104230022C5E947
:101CC0000B23E318C5F828B06B632368002B59DB9E
:101CD00001230193A8E705F15803CDF80C8004F126
:101CE000040AB04691461E460EE050460496FFF7A1
:101CF00075FD0022014604AB284609F101090AF1ED
:101D0000040A01F0C3F9E0B9D945EED10D213846F6
:101D1000FFF778FE049BAC62C5E90803062010E7D4
:101D200081460D213846FFF76DFEB9F1020F28629A
:101D300025D12B46049A43F82C2F6B62AC62062007
:101D4000FFE646462368DDF80C806AE72046FFF789
:101D50007DFC04340246AC632846144601F0F4F9D5
:101D600000283FF4EDAE384622460F21FFF770FE03
:101D70000720E6E60D213846FFF744FE2862049B63
:101D80006B62DBE70BF1010004EB80007AE700BF38
:101D9000953900080023A9E60123A7E60223A5E65A
:101DA0002DE9F0430646C3B015461C46042900F24F
:101DB000BF80DFE801F09E57BD2D0300002C40F0EE
:101DC000B780102A00F2B4800368D80600F1F980C9
:101DD00020AF384600F098F9B46B394600234FF035
:101DE000010C0CFA03F22A42204603F1010303D04E
:101DF00050F8042B0A600446042B01F10401F0D1D1
:101E00003846B46300F076F9002043B0BDE8F083B3
:101E1000032C40F08D8094B204EB1243102B4FEA58
:101E2000124500F2858003681F0700F1D28020AFC1
:101E3000384600F03DF9B26B07EBC50154B10B46D3
:101E4000D01A01EBC401E4001D5843F8045B8B4237
:101E5000FAD122443846B26300F008F9002043B0BA
:101E6000BDE8F083012C4FEA124895B25CD0052CF6
:101E70005ED108EB0509B9F1200F59D8B8F10F0F61
:101E800079D9A946002D40F08A80B36B6DB320AF9D
:101E90004FF0000907EBC807043F03EBC50553F8F3
:101EA000041B47F8041FAB42F9D1B9F1000F0FD062
:101EB0006F464146102938BF102107EBC101843914
:101EC00003EBC90553F8040B41F8040FAB42F9D1F9
:101ED000012C00F08680B8F10F0FB56347D9B9F136
:101EE000000F02D0684600F0B9F8002043B0BDE80A
:101EF000F083ECB9806B23461FFA82FC0124371D66
:101F000004FA03F212EA0C0F014604D051F8042B34
:101F100047F8232008460133102BF1D115F4005562
:101F2000E3D1B063284604E008EB0503102B03D986
:101F3000022043B0BDE8F083B8F10F0FF8D8336842
:101F4000DA0706D5304623F0030340F8483B00F09B
:101F500079F820AF384600F075F8B36B002D97D1B3
:101F60001D460435B563384600F068F8BDE720A883
:101F700000F06CF8B3E7B9F1100F40D9A9F11009DE
:101F80003368D90708D523F00103304643F0020334
:101F900040F8483B00F05EF8B9F1000F32D03368EA
:101FA0005A0720D4B8F10F0F25D96F463846C8F12B
:101FB000100500F057F8002DB36B7FF77AAF20AF14
:101FC00068E723F01003336006F5E87000F09CF832
:101FD000FEE623F00803036000F5A87000F068F83F
:101FE00025E720AFBDE7304623F0040340F8D03B9F
:101FF00000F038F8D6E720A800F02CF8D5E74FF02D
:102000000009BDE7B8F10F0F3FF63FAF20AF3846EC
:1020100000F020F8B36B002D7FF43AAF384600F0A3
:1020200015F862E700F1340191E838009C46A646B5
:102030004CF8045D90E8FF0FE54600BD90EC210BE5
:10204000704700BF80EC210B704700BF90EC200B65
:10205000704700BF80EC200B704700BFD0EC200B16
:10206000704700BFC0EC200B704700BFF0EC0201CE
:10207000F0EC0211F0EC0221F0EC0231F0EC024144
:10208000F0EC0251F0EC0261F0EC0271F0EC028134
:10209000F0EC0291F0EC02A1F0EC02B1F0EC02C124
:1020A000F0EC02D1F0EC02E1F0EC02F1704700BF7D
:1020B000E0EC0201E0EC0211E0EC0221E0EC023184
:1020C000E0EC0241E0EC0251E0EC0261E0EC027174
:1020D000E0EC0281E0EC0291E0EC02A1E0EC02B164
:1020E000E0EC02C1E0EC02D1E0EC02E1E0EC02F154
:1020F000704700BFB0FC0181B0FC0191B0FC01A1B0
:10210000B0FC01B1704700BFA0FC0181A0FC0191AF
:10211000A0FC01A1A0FC01B1704700BFEC4600B5D6
:102120002DE900502DE9FF1F4FF000032DE90C00B1
:1021300001A9FFF7E1FBDDF840E012B0704700BFF6
:10214000EC4600B52DE900502DE9FF1F4FF00003CC
:102150002DE90C0001A9FFF70BFCDDF840E012B0FF
:10216000704700BFEC4600B52DE900502DE9FF1F78
:102170004FF000032DE90C0001A9FFF71BFCDDF86F
:1021800040E012B0704700BFEC4600B52DE90050AA
:102190002DE9FF1F4FF000032DE90C0001ABFFF705
:1021A000DFFBDDF840E012B0704700BFEC4600B541
:1021B0002DE900502DE9FF1F4FF000032DE90C0021
:1021C00001AAFFF751FCDDF840E012B0704700BFF4
:1021D000027A03467AB9427AA2B14168013A10B450
:1021E0004272086803220C1D1A7202025C60000E23
:1021F00010BC1A6070470068013A1A7202021A6035
:10220000000E7047B020704700B585B0002303AAC8
:10221000009219460C22FFF7DDFB039805B05DF82C
:1022200004FB00BFF0E700BF2DE9F043054685B091
:102230000E464FF000083046FFF7CAFFB0280446AC
:1022400000F0BA80070620D500F0F003802B4DD0B7
:10225000902B36D0A02B60D0B02B74D0C02B00F0C8
:102260008B8000F0F803D02B0BD100F00702013275
:10227000052342F4002201212846FFF791FD0028A2
:10228000D9D0092005B0BDE8F0838300DBB21F1D63
:102290000DF10C0900231946CDF800900D222846B7
:1022A000FFF798FB039BCDF8009060064CBFDF1B47
:1022B000FF1800230D22194628460397FFF7B0FBAD
:1022C000B9E700F00D030D2BDBD003AF002300F0C6
:1022D0000F02194600972846FFF77CFB0023009762
:1022E0000D2219462846FFF79BFBA4E73046FFF76F
:1022F0006FFF24022043B0F5004FC2D00401002339
:10230000A2B219462846FFF74BFD0028B9D114F4B4
:10231000004F18BF4FF001088DE7C24302F00703DA
:102320004FF47F621A41010702F47F624FF000030D
:1023300048BF42F4804219462846FFF731FD002885
:102340003FF479AF9DE7B1283BD0B22800F09380ED
:10235000B32841D000F0FC03B42B92D000F0070268
:102360000132012342F4002219462846FFF718FDE6
:1023700000283FF460AF84E7C6284AD0C72854D06D
:1023800000F0F803C02B63D0C82868D0C9287FF4B8
:1023900078AF3046FFF71CFF020300F00F0002F495
:1023A000702201300243012105232846FFF7F8FC83
:1023B00000283FF440AF64E7B8F1000F18D00020C8
:1023C00060E73046FFF704FF024600283FF459AFAC
:1023D00010F0F003C8D054E73046FFF7F9FE0203CF
:1023E00000F00F03013302F470221A430123BBE70C
:1023F00003AC43460E22414600942846FFF7EAFA12
:10240000009443460F2241462846FFF709FB404609
:1024100038E73046FFF7DCFE020300F00F0301331C
:1024200002F470221A4303239EE73046FFF7D0FEE2
:10243000024600283FF425AF10F0F0037FF421AFEF
:1024400004212846FFF7ACFC00283FF4F4AE18E75F
:1024500000F00F020132032342F4202284E73046C9
:10246000FFF7B6FE00F0F00200F00F031032013368
:1024700043EA023297E700230DF10C090D221946B9
:10248000CDF800902846FFF7A5FA3046FFF7A0FEEA
:1024900002064FF002040CD5039B00F07F00A04021
:1024A000184403903046FFF793FE030604F1070437
:1024B000F2D4039BCDF8009000F07F02A24003F518
:1024C00001731A440023039219460D222846FFF790
:1024D000A7FAB0E610B5C26C536884B04FF0030C95
:1024E00008321C0208461B0E01A9019402928DF8C5
:1024F0000CC08DF80D30FFF797FE04B010BD00BF83
:1025000008B5FFF78FFE806C08BD00BF08B5FFF768
:1025100089FEC06CC379023300EB830008BD00BFA5
:10252000024B58221A604FF0FF3070479400002091
:10253000024B58221A604FF0FF3070479400002081
:10254000044A05491368002B08BF0B461844106065
:102550001846704798000020A0010020FEE700BF49
:10256000034AD2F8883043F47003C2F888307047C9
:1025700000ED00E0154A536803F00C03042B0CD067
:10258000082B0CD0124B114A124852681249C2F360
:102590000312825CD3400B607047104BF3E7536823
:1025A0005168C3F38343C90303F1020303D40C4A04
:1025B00002FB03F3E7E7D26A084902F00F02013297
:1025C000B1FBF2F202FB03F3DDE700BF00100240B3
:1025D00000127A00D43A000864000020808D5B006D
:1025E00000093D001649174B0A6800B542F0120277
:1025F0000A601A6842F4A02283B01A601A68920333
:10260000FCD559680F4A41F480615960596841F41A
:1026100020115960596841F480315960196841F0BE
:102620008071196013689B01FCD55368019043F0D9
:1026300002035360FFF79EFF019803B05DF804FBAF
:102640000020024000100240704700BF0A6802608C
:102650004A6842608A89D1F808C082818A7BC0F8C2
:1026600008C08273704700BF704700BF0379413BC9
:102670002DE9F043032B55D8DFE803F072645602CE
:102680003E4A536943F48013536100210C244823CC
:102690003B4A017044708170C370D0F8057000230C
:1026A00003260F2503F0070127FA03F44FEA430E30
:1026B0008900E40706FA0EF805FA01F92DD5146829
:1026C00024EA080414609468072BCCBF4FF0040C74
:1026D0004FF0000C944424EA08049460DCF8208055
:1026E000847A28EA0908CCF82080D2F8008004FA1D
:1026F0000EF444EA08041460447AD2F8088004FA1C
:102700000EFE4EEA08049460D0F80BE0DCF820409E
:102710000EFA01F12143CCF820100133102BC1D166
:1027200000235361BDE8F083144A536943F4002346
:102730005361002108244823124A017044708170BB
:10274000C370AAE70D4A536943F480235361002103
:10275000042448230C4A017044708170C3709CE7C4
:1027600006494A69002342F4003248244A614FF086
:102770009042037043708370C4708EE70010024073
:10278000000C0048000800480004004830B44268CB
:10279000022A05D0032A54D0012A42D030BC704707
:1027A0003049CB6943F40033CB61002240244425F7
:1027B0002D4B027082704570C4700122016A19B1FC
:1027C000996841F080019960C16919B1996841F037
:1027D00040019960012A254A816812680CBF0901ED
:1027E0004901D200B2FBF1F2DA608169D0F814C07D
:1027F0001D68CA0142EA4C122A431A605CEA0102CF
:102800001CBF1B4A54600269C0681968D20042EAC2
:1028100080020A431A601A6842F0010230BC1A6052
:10282000704710498B6943F480438B61002438233F
:1028300040210470437082700E4BC170202402222C
:10284000BCE70849CB6943F48023CB6100224824CC
:102850004021027044708270074BC17080240122B5
:10286000ACE700BF001002400044004064000020BC
:1028700000E100E000380140004800404368012BBF
:102880000ED1544A536943F0010310B55361836874
:10289000072B55D8DFE803F0050555616D79859163
:1028A0007047002302210824402243704A4B817064
:1028B0000470C2704FF4006100221A601A68002A86
:1028C000FCD1C268DA6002699A6042695A60427E4D
:1028D00090F81AC01C68920242EA0C2222431A6045
:1028E0001A6842F440521A60D0F81B20D0F81FC07A
:1028F0001C68D20142EA8C1222431A601A6890F8CE
:102900002B4042EA04121A601A68D0F8274042EAC3
:1029100044121A60D0F82CC0D0F830E01C684FEA9E
:102920004C0242EA8E0222431A605EEA0C021CBF8D
:102930002A4A1160426B1AB11A6842F001021A6009
:1029400010BD002302211C24402243708170244BBF
:102950000470C2704FF48051AEE70023022130248E
:102960004022437081701F4B0470C2704FF40051BD
:10297000A2E70023022144244022437081701A4BB5
:102980000470C2704FF4804196E70023022158245E
:10299000402243708170154B0470C2704FF40041A7
:1029A0008AE7002302216C24402243708170104B7F
:1029B0000470C2704FF480317EE7002302216FF073
:1029C0007F044022437081700A4B0470C2704FF440
:1029D000003171E7001002400800024000E100E011
:1029E0001C000240300002404400024058000240F7
:1029F0006C0002408000024070B5D0E90045AC4256
:102A0000064605D020460F34FFF730FEAC42F9D120
:102A100006F13000FFF732FF06F10C00BDE8704010
:102A2000FFF7B4BE70B5D0E90045AC42064606D00B
:102A300020460F34FFF718FEA542F9D1356825B1BD
:102A4000B1682846491B00F0FCFA304670BD00BF53
:102A50000EB400B5154A82B01368002BFCD10121D9
:102A600004AB11601248039A01938021FEF796F897
:102A7000104AD2F8803023F00103C2F88030D2F837
:102A80008030DB07FBD40A490B4BC2F88C10C2F82C
:102A90008830C2F88400D2F8803043F00103C2F8D5
:102AA000803002B05DF804EB03B070478401002071
:102AB000A00000200000024028440040054B1A6896
:102AC000920105D5044A4FF0007000215860116052
:102AD000704700BF00000240840100201C4BDA69EF
:102AE000920611D59B8CDBB20D2B10B40DD0082BA8
:102AF0001CD07F2B1AD01749174C0A68501C1F286E
:102B0000A3541DDC086009E07047124B124C186892
:102B100012490022225401201A6008600C4A5DF814
:102B2000044BD36923F02003D3617047094A13682B
:102B3000013B48BF00231360074A0021D154EDE751
:102B4000064B00204FF0FF3208601A60E6E700BF36
:102B5000004400409C0000202401002020010020AF
:102B60002DE9F04FD0E900A6494B0D46A6EB0A0728
:102B7000484907FB03F38B4283B000F08680012BAA
:102B80001F4638BF0127FF1881467AD2A5EB0A04F9
:102B9000002F66D100974FF00F0BB84608EB0403E7
:102BA000116848F80410516859609168996055455A
:102BB0009189927B99819A7322D008F10F07D346AD
:102BC000DBF80010DBF80420DBF8080047F8070CFE
:102BD00047F80F1C47F80B2CBBF80C209BF80E1085
:102BE00007F8011C27F8032C58460BF10F0BFFF7D1
:102BF0003BFD5D4507F10F07E2D10F3408EB040BF5
:102C0000B5421CD00BF10F072C4622686068A16802
:102C1000B4F80CC047F80F2CA27B47F80B0C27F830
:102C200003CC47F8071C07F8012C20460F34FFF7A8
:102C30001BFDA64207F10F07E7D1751BAB44BAF1A4
:102C4000000F06D0D9F808105046A1EB0A0100F099
:102C5000F8F9009BC9F80830C9E9008B03B0BDE85A
:102C6000F08F8F4228BF0F46C7EB071738460192F7
:102C700000F043FDC319019A0093804600F10F0B49
:102C80008CE7054FA5EB0A04F0E7044800F0DEFDF1
:102C9000EFEEEEEE88888808F8FFFF7FE43A000840
:102CA0002DE9F04F0023BDB0C0E9003389468360B1
:102CB00019466D4A6D4B8266C3660446202209A8F8
:102CC000FDF788FB01270223CDE90D77CDE90A390D
:102CD00011970C970DF1240CBCE80F000DF1B80E04
:102CE0007646AEE80F00BCE80F00AEE80F00022306
:102CF000CEF80070CDE92F39CDE9317733970FCE7B
:102D000004F10C050FC50FCEDFF864B10FC59BE8C9
:102D10000F000DF1040AAAE807002AF8023B1B0C79
:102D20008AF800300BF110030FCB0DF11408A8E85E
:102D3000070028F8023B2F601B0C01A92EA888F879
:102D40000030FFF783FCD4E9013293426AD02EAD04
:102D500007CD186059609A602A88A978997303F1A1
:102D60000F069A8166602EA8FFF77EFC05A92EA8A3
:102D7000FFF76CFCD4E90132934259D02EAD07CD58
:102D8000186059609A602A88A978997303F10F0630
:102D90009A8166602EA8FFF767FCDFF8D8E0BEE8EE
:102DA0000F0012AFBA460FC7BEE80F000FC7BEE84C
:102DB0000F000FC79EE8030087E80300BAE80F0082
:102DC0002EADA9460FC5BAE80F000FC5BAE80F002F
:102DD0000FC597E8030085E80300B9E80F0020AEAF
:102DE000B0460FC6B9E80F000FC6B9E80F000FC60E
:102DF00095E8030086E80300B8E80F0004F1300C02
:102E0000ACE80F00B8E80F00ACE80F00B8E80F001E
:102E1000ACE80F0096E803008CE8030020463DB0C4
:102E2000BDE8F08F2EAA19462046FFF799FE9AE7D3
:102E30002EAA19462046FFF793FEABE72EA8FFF710
:102E400013FCD4E90056AE4209D12068A168091AE2
:102E500008B100F0F6F800F0F6F8F2E7EEE72846E1
:102E6000FFF702FC0F35EEE72401002044010020AB
:102E70007C3A00089C3A00082DE9F04F9DB0894645
:102E800024220021804601A8FDF7A4FA214A224B02
:102E90001668CDF80890A3FB0636B60C013E0396E3
:102EA0000DF1040CBCE80F004FF0010BCDF820B081
:102EB00013AC25460FC4BCE80F000FC40FCDDCF8DF
:102EC00000C0C4F800C00DF1280EF246AEE80F00B5
:102ED0000FCDAEE80F00CDE90B964746CEF800C007
:102EE000CDF844B054460FCCFB6012AB9C4207F1C6
:102EF00010070AF1100A47F8100C47F80C1C47F8A5
:102F0000082CEFD1DAF80000386040461DB0BDE86B
:102F1000F08F00BF6400002083DE1B4303681A6843
:102F200010B4002022F001020A4C1A600139186125
:102F300058629C62D9625A6942F001025A611A6869
:102F400042F001021A601A69D207FCD55DF8044B01
:102F5000704700BF3F190100044B1A68920604D560
:102F6000034A202001215860116070470000024090
:102F700088010020054B1A68920505D5044A4FF4D4
:102F80000070012158601160704700BF00000240CE
:102F90008C01002000B5A7B06846FFF723FB4FF473
:102FA000E1310AA8FFF77CFE112101A8FFF764FFB9
:102FB0000AA8FFF721FD4FF47A7101A8FFF7AEFFD1
:102FC0000A490AA8FFF744FD08490AA8FFF740FD8F
:102FD00006490AA8FFF73CFDFEE702E00AA8FFF752
:102FE00021FD6846FFF730FB00F02DF8003B00089C
:102FF000DFF834D0FFF7B4FA0C480D490D4A00232E
:1030000002E0D458C4500433C4188C42F9D30A4A9D
:103010000A4C002301E013600432A242FBD3FDF707
:103020000BF9FFF7B7FFFEE700300020000000209B
:1030300070000020CC3D000870000020A00100209E
:10304000FEE700F079BC1EB400F09BF81EBCFFF751
:1030500077F80378472B17D143784E2B14D1837818
:10306000552B11D1C378432B0ED10379432B0BD1B0
:1030700043792B2B08D183792B2B05D1C0790128DB
:103080008CBF002001207047002070472DE9F341DC
:103090001D460378472B0E460246C17913D143786B
:1030A0004E2B10D18378552B0DD1C378432B0AD1E9
:1030B0000379462B07D143794F2B04D18379522BC7
:1030C00001D1002931D01046FFF7C3FF80F0010085
:1030D000C4B200230020019053BB5CBB01290ABF8E
:1030E00052F8203CA2F12003783B012908BF52F896
:1030F000202C1C6818BF58320192236820469B6818
:103100009847C8B1019B1B6801930227336801AA45
:10311000D3F81080214601233046C04770B1019B8F
:103120002B60384602B0BDE8F08101230C46D1E7A0
:10313000034CE2E7034CE0E70127E7E70746F0E747
:10314000083B0008103B000810B5044600F032F8B8
:1031500002462046A4F12001FFF77BFF60B154F83E
:10316000043C0133012B44F8043C03D1936844F838
:10317000083C9160012010BD9368002BF9D000F04D
:10318000A5FA10B500F016F8826801460AB900F0F9
:103190009DFA02F120042046FFF75BFF40B1D3699E
:1031A000013BD36113B9906988609361204610BDDB
:1031B0008860FBE7004870479001002030B500238D
:1031C0001A4610F8015B05F07F04944023432C0657
:1031D00002F10702F5D40B6030BD30B500231A466A
:1031E00010F8014B04F07F0595402B43250602F1B2
:1031F0000702F5D41F2A06D8640642BF4FF0FF34F9
:1032000004FA02F213430B6030BD50282DE9F3415C
:103210000646884615461F4608D1033222F00300B1
:1032200050F8044B3C6002B0BDE8F08100F00F03A1
:103230000C2B2ED8DFE803F025071D25292D2D2D79
:103240002D182125290001A92846FFF7B7FF019C69
:10325000002CE7D006F07003102B08BFA8464444AA
:10326000330648BF2468DDE701A92846FFF7B5FF0C
:10327000EDE7284630F8024BEAE7284630F9024BE2
:10328000E6E7284650F8044BE2E7284650F8084B9A
:10329000DEE7FCF7C9FF08B50346FF2B084610D050
:1032A00003F07002302A12D007D8202A0BD002D89F
:1032B00013F0600F05D0FCF7B7FF402A0BD0502A5F
:1032C000F9D1002008BDBDE8084000F0C8BBBDE84A
:1032D000084000F0C1BBBDE80840FFF711B913B5C5
:1032E0000C4601462046CDE90032FFF7D4FFDDE968
:1032F00000320146204602B0BDE81040FFF785BF0E
:1033000073B50C461546064628B3FFF7F9F8034691
:1033100020462B6010F8011BFF291ED002462B1DF2
:103320003046FFF7DCFF10F8013B2B75FF2B16D062
:1033300010232B7501A9FFF741FF019B0344EB60AC
:1033400010F8013B6B7501A9FFF738FF019B03449F
:103350002B6102B070BD0346DAE76B60E3E7002340
:10336000EDE71FB503AB009300230A461946FEF7AD
:1033700031FB039805B05DF804FB00002DE9F04F28
:1033800091B00023059300F00303012B06460C4681
:1033900017460ED0022B03D0002B3BD101073BD5A3
:1033A00039462046FFF796F890B3092011B0BDE8E2
:1033B000F08F020706D40D6A38460D21FFF7D1FFC2
:1033C00085422BD00220002306F008060DF1280AC2
:1033D0000643CDF800A00C22194638460A94FEF7A1
:1033E0001FFB062E1CD1D4F83080D4E90A59B8F15D
:1033F000000F0CBF4FF0010B4FF0030B16F0080647
:1034000000F00781BBF1010F40F0FF8000F05EF992
:103410000820CBE7FCF708FF0120D4E70620D2E71D
:103420003846FFF773F881460028B9D05246014666
:103430003846FFF765FF394605469DF83C00FFF723
:103440002AFF0F210C903846FFF78BFF20F0010870
:1034500008F1FF380E9BAB4240F2BF802A469DF830
:103460003D1006AB0020FFF73AFF9DF83D100246E5
:1034700007AB0020FFF733FF08AB02469DF83D1075
:103480000020FFF72CFF09A9FFF798FE0A9B069A78
:1034900013444345054601D90E9DDBE7079A1344C3
:1034A0004345D7D9DDF82080B8F1000F01D00B9B40
:1034B0009844099D15B10E98013D0544B8F1000FDF
:1034C0003FF46EAF002D00F0F28016F00803029377
:1034D00034D0472323704E2363705523A3704323B6
:1034E000E370462323714F2363715223A37100239A
:1034F000E3714FF0000B07A92846FFF76EFE08A9FD
:103500000390FFF76AFE0799002963D03ADD9DF822
:103510003C00FF2832D000F00703042B3FF67AAFBF
:1035200001A252F823F000BF8135000815340008CD
:103530004F3500088135000879350008E379012B03
:103540000CBF54F8203C04F158030593D1E7022541
:103550000D9A09AB05FB11220C99FFF756FE09994C
:1035600031B15CB305AB00222046FFF78FFD28B3D5
:10357000079D4FF0030B34E00825E9E70025E7E756
:103580000425E5E7C1F17F5101F57F110D9B01F5A0
:103590007F513F3103EB8105BCB1029AAAB9059B6B
:1035A0000993043D55F8041F0029E1D009AB00221E
:1035B00029442046FFF76AFD0028F3D0089D002D1E
:1035C00071D0039B2B441D4695E753F82130002B07
:1035D000F4D1CDE74FF0010BF0E70025A8464FF0FE
:1035E000010BF3077FF50AAFBBF1020F3FF4D8AE32
:1035F0000D213846059EFFF7B4FEC4E90A59C4E917
:103600000806C4F830800620D0E6002D22DA00F04B
:103610006FF8BBF1010F02D1204600F0ACF9002D8C
:1036200018DA524649463846FFF76AFE9DF83C00D4
:103630003946FFF730FE0D9A0C90EB4302EB830303
:1036400053F826200AB10136FAE70422C4E90A60D9
:10365000C4E90C23002309AE1A46194600963846E1
:103660000994FEF7DDF90023194601220096384639
:103670000995FEF7D5F90F213846FFF772FE00F0E5
:10368000010040EA08000023099000960F22194625
:103690003846FEF7C5F9BBF1020F02D12046FFF70D
:1036A00053FD072082E6BBF1000F3FF479AE4FF0E7
:1036B000020B96E708B58047FCF7B6FD024B186889
:1036C000BFF35B8F704700BF6C00002008B5FFF7A9
:1036D000F5FFFFF7EFFF08B58047FFF7F7FF0000A2
:1036E000024B1868BFF35B8F704700BF6800002073
:1036F00008B5FFF7F5FFFFF7EEFF012838BF0120FF
:1037000010B504462046FCF7BBFD30B900F09CF92B
:1037100008B9FCF789FD8047F4E710BD10B5034BED
:103720000360044600F0B4F8204610BD983B000842
:1037300010B50446FFF7F2FF20460C21FFF781FC8D
:10374000204610BDF7B5089F974205460E46144621
:103750000AD0A86802680897156A31462246AC4626
:1037600003B0BDE8F04060471946019300F058F8F7
:10377000019B0028EDD0062003B0F0BD2DE9F14FEC
:103780000D461946DDE90A4BDDE90CA681461746D0
:10379000984600F045F890B1002D3460377109DB90
:1037A00061198A450CBF06210121B171002001B0C9
:1037B000BDE8F08F0235F9D10123B371F6E7544526
:1037C00006D15946484600F02BF808B17771EDE76D
:1037D000D9F808000368CDE90CA6CDE90A4BDC69ED
:1037E0003A4643462946A44601B0BDE8F04F60473B
:1037F0002DE9F04107460C4615461E4600F07BF8C1
:1038000048B9B86803689F692A4633462146BC46D2
:10381000BDE8F0416047BDE8F08170470020704787
:10382000814208B50ED0406803782A2B0CD0496835
:103830000B782A2B08BF0131FDF746F8B0FA80F06B
:10384000400908BD0120FCE70020FAE708B5FCF7B5
:10385000EBFC7FB500241023CDE902340368154644
:103860009E6912686B46CDE90044B0479DF804306C
:1038700003F00603062B03BF009B2B6001202046AC
:1038800004B070BD0098904214BF0120062070471C
:1038900010B5034B03600446FFF7BFFF204610BD81
:1038A0000C3C000810B50446FFF7F2FF2046082143
:1038B000FFF7C7FB204610BD2DE9F0411F46DDE9AB
:1038C0000834DDF8188098450646154607D1079953
:1038D000FFF7A6FF18B165710020BDE8F0813946F9
:1038E0003046FFF79DFF0028F6D00123C4F8008082
:1038F0002571A371F0E738B515461C46FFF790FF18
:1039000020B10823E36006232560237138BD73B519
:1039100005460C4601921E46FFF782FF50B9032E62
:1039200008D82368019A5B692946204602B0BDE8A1
:103930007040184702B070BDFCF7AABC0378472B53
:1039400017D143784E2B14D18378552B11D1C378DE
:10395000432B0ED10379432B0BD143792B2B08D169
:1039600083792B2B05D1C07901288CBF0020012041
:1039700070470020704710B5044648B100F03BF88E
:103980002046FFF7DBFF18B154F8140CFFF792FE46
:10399000FFF79CFE38B50246FFF7D0FF044640B162
:1039A00052F8184C0025104600F025F81DB1FFF71D
:1039B0009FFE0125F7E72046FFF78DFE0378472B92
:1039C00017D143784E2B14D18378552B11D1C3785E
:1039D000432B0ED10379432B0BD143792B2B08D1E9
:1039E00083792B2B05D1C07901288CBF00200120C1
:1039F00070470020704738B50446FFF7DBFB0568C9
:103A000002462046A4F12001FFF7D8FF28B90DB1E6
:103A1000FFF75CFE1160284638BD54F80C3C002BC3
:103A2000B4BFC3F10103013344F80C3C53688D4229
:103A300003F1FF33536020461CBF44F8105C116053
:103A4000656AFDF7BFFFE6E7024B1868BFF35B8FBF
:103A5000704700BF9C01002008B5FCF7E5FB08B5E6
:103A6000FFF7FAFFF8B500BFF8BC08BC9E467047E8
:0C3A7000F8B500BFF8BC08BC9E467047CB
:103A7C0000000000410400000000020700000000EC
:103A8C000000000041008000000002070000000060
:103A9C000000000001000000070000000000000012
:103AAC002444004000000000000000010000000061
:103ABC0000000000000000000000000101000000F8
:103ACC0000000000000000000000000000000000EA
:103ADC000102030406070809766563746F723A3AAB
:103AEC005F4D5F7265616C6C6F635F696E7365725D
:103AFC007400000048750D0A000000000C3C000822
:103B0C00183B00080C3C0008383B00084E31305F75
:103B1C005F637878616269763131355F5F666F72A9
:103B2C006365645F756E77696E6445004E31305F16
:103B3C005F637878616269763131395F5F666F7285
:103B4C006569676E5F657863657074696F6E450053
:103B5C00983B0008683B0008D43B00084E31305FAE
:103B6C005F637878616269763132305F5F73695F69
:103B7C00636C6173735F747970655F696E666F45B2
:103B8C0000000000000000005C3B00081D3700082E
:103B9C00313700081D3800081D3800080F3900089F
:103BAC0053380008F13700087D3700084537000806
:103BBC000C3C0008C43B0008537439747970655F81
:103BCC00696E666F00000000983B0008E03B00083F
:103BDC00BC3B00084E31305F5F6378786162697678
:103BEC003131375F5F636C6173735F747970655FDC
:103BFC00696E666F4500000000000000D43B0008B1
:103C0C0091380008A53800081D3800081D38000838
:103C1C000F39000853380008F7380008B938000885
:103C2C0085380008232D302B20000000686C4C00D8
:103C3C0065666745464700003031323334353637D8
:103C4C00383941424344454600000000303132339C
:103C5C0034353637383961626364656600000000BC
:103C6C0011F7FF7FB0AF3C00FFFF0117A20132BA82
:103C7C0003008A03049C0300960304BC0300B603F0
:103C8C0004000000EDF6FF7F00842600FFFF01100A
:103C9C000604000010044600182C480054040000D0
:103CAC0008B10181B0B000840000000008B10181AE
:083CBC00B0B00084000000001C
:103CC40088D9FF7F0100000018DAFF7FB0A90280C5
:103CD400ACDAFF7FB0B0A880FCDAFF7F01000000FF
:103CE40008DBFF7FB0B0AA803CDBFF7FAE71B280FF
:103CF40000DCFF7F01000000FCDBFF7FAB3F38806E
:103D04005CDCFF7F0100000064DCFF7FB0B0AA80B0
:103D1400A0DCFF7F010000004CDDFF7FAA0DB28014
:103D2400C8DDFF7FB0AF088068E0FF7F01000000BE
:103D34006CE0FF7FAD3F0280E8E2FF7F01000000FE
:103D4400C4E4FF7F00840480D8E4FF7F0100000006
:103D5400D4E4FF7FB0AD048078E7FF7FB0A8038090
:103D64009CE7FF7F44FFFF7FA0E7FF7F48FFFF7FC3
:103D7400ACE7FF7F0100000068E8FF7F0084028059
:103D8400C4E8FF7F010000006CECFF7FB0B0AA80A4
:103D940090ECFF7F01000000C4EDFF7FB0AF028014
:103DA400FCEEFF7FC4FEFF7FCCF0FF7F010000002C
:103DB400E0F1FF7FD8FEFF7F34F2FF7F01000000B7
:043DC40009020008E8
:043DC800E10100080D
:103DCC0004000020000000000000000000000000C3
:103DDC0000000000000000000000000000000000D7
:103DEC0000000000000000000000000000000000C7
:103DFC0000000000000000000000000000000000B7
:103E0C0000000000000000000000000000000000A6
:103E1C000000000000000000000000000000000096
:103E2C000000000000127A00CD36000829020008BC
:0400000508002FF1CF
:00000001FF
